{
	"Votacion.sol": {
		"Votacion": {
			"abi": [
				{
					"inputs": [
						{
							"internalType": "string[]",
							"name": "_nombresCandidatos",
							"type": "string[]"
						},
						{
							"internalType": "uint256",
							"name": "_duracionEnSegundos",
							"type": "uint256"
						}
					],
					"stateMutability": "nonpayable",
					"type": "constructor"
				},
				{
					"anonymous": false,
					"inputs": [
						{
							"indexed": false,
							"internalType": "string",
							"name": "razon",
							"type": "string"
						}
					],
					"name": "VotacionFinalizada",
					"type": "event"
				},
				{
					"anonymous": false,
					"inputs": [
						{
							"indexed": true,
							"internalType": "address",
							"name": "votante",
							"type": "address"
						}
					],
					"name": "VotanteRegistrado",
					"type": "event"
				},
				{
					"anonymous": false,
					"inputs": [
						{
							"indexed": true,
							"internalType": "address",
							"name": "votante",
							"type": "address"
						},
						{
							"indexed": true,
							"internalType": "uint256",
							"name": "candidatoId",
							"type": "uint256"
						}
					],
					"name": "VotoRegistrado",
					"type": "event"
				},
				{
					"inputs": [
						{
							"internalType": "uint256",
							"name": "",
							"type": "uint256"
						}
					],
					"name": "candidatos",
					"outputs": [
						{
							"internalType": "uint256",
							"name": "id",
							"type": "uint256"
						},
						{
							"internalType": "string",
							"name": "nombre",
							"type": "string"
						},
						{
							"internalType": "uint256",
							"name": "cantidadVotos",
							"type": "uint256"
						}
					],
					"stateMutability": "view",
					"type": "function"
				},
				{
					"inputs": [],
					"name": "endVoting",
					"outputs": [],
					"stateMutability": "nonpayable",
					"type": "function"
				},
				{
					"inputs": [],
					"name": "finVotacion",
					"outputs": [
						{
							"internalType": "uint256",
							"name": "",
							"type": "uint256"
						}
					],
					"stateMutability": "view",
					"type": "function"
				},
				{
					"inputs": [],
					"name": "getResults",
					"outputs": [
						{
							"internalType": "uint256[]",
							"name": "ids",
							"type": "uint256[]"
						},
						{
							"internalType": "string[]",
							"name": "nombres",
							"type": "string[]"
						},
						{
							"internalType": "uint256[]",
							"name": "votos",
							"type": "uint256[]"
						}
					],
					"stateMutability": "view",
					"type": "function"
				},
				{
					"inputs": [
						{
							"internalType": "address",
							"name": "_voter",
							"type": "address"
						}
					],
					"name": "getVoterInfo",
					"outputs": [
						{
							"internalType": "bool",
							"name": "estaRegistrado",
							"type": "bool"
						},
						{
							"internalType": "bool",
							"name": "yaVoto",
							"type": "bool"
						},
						{
							"internalType": "uint256",
							"name": "votoParaCandidato",
							"type": "uint256"
						}
					],
					"stateMutability": "view",
					"type": "function"
				},
				{
					"inputs": [],
					"name": "inicioVotacion",
					"outputs": [
						{
							"internalType": "uint256",
							"name": "",
							"type": "uint256"
						}
					],
					"stateMutability": "view",
					"type": "function"
				},
				{
					"inputs": [],
					"name": "owner",
					"outputs": [
						{
							"internalType": "address",
							"name": "",
							"type": "address"
						}
					],
					"stateMutability": "view",
					"type": "function"
				},
				{
					"inputs": [
						{
							"internalType": "address",
							"name": "_voter",
							"type": "address"
						}
					],
					"name": "registerVoter",
					"outputs": [],
					"stateMutability": "nonpayable",
					"type": "function"
				},
				{
					"inputs": [
						{
							"internalType": "address",
							"name": "",
							"type": "address"
						}
					],
					"name": "votantes",
					"outputs": [
						{
							"internalType": "bool",
							"name": "estaRegistrado",
							"type": "bool"
						},
						{
							"internalType": "bool",
							"name": "yaVoto",
							"type": "bool"
						},
						{
							"internalType": "uint256",
							"name": "votoParaCandidato",
							"type": "uint256"
						}
					],
					"stateMutability": "view",
					"type": "function"
				},
				{
					"inputs": [
						{
							"internalType": "uint256",
							"name": "_candidateId",
							"type": "uint256"
						}
					],
					"name": "vote",
					"outputs": [],
					"stateMutability": "nonpayable",
					"type": "function"
				}
			],
			"devdoc": {
				"kind": "dev",
				"methods": {},
				"version": 1
			},
			"evm": {
				"assembly": "    /* \"Votacion.sol\":60:6050  contract Votacion {... */\n  mstore(0x40, 0x80)\n    /* \"Votacion.sol\":1141:1728  constructor(string[] memory _nombresCandidatos, uint _duracionEnSegundos) {... */\n  callvalue\n  dup1\n  iszero\n  tag_1\n  jumpi\n  revert(0x00, 0x00)\ntag_1:\n  pop\n  mload(0x40)\n  sub(codesize, bytecodeSize)\n  dup1\n  bytecodeSize\n  dup4\n  codecopy\n  dup2\n  dup2\n  add\n  0x40\n  mstore\n  dup2\n  add\n  swap1\n  tag_2\n  swap2\n  swap1\n  tag_3\n  jump\t// in\ntag_2:\n    /* \"Votacion.sol\":1234:1244  msg.sender */\n  caller\n    /* \"Votacion.sol\":1226:1231  owner */\n  0x00\n  0x00\n    /* \"Votacion.sol\":1226:1244  owner = msg.sender */\n  0x0100\n  exp\n  dup2\n  sload\n  dup2\n  0xffffffffffffffffffffffffffffffffffffffff\n  mul\n  not\n  and\n  swap1\n  dup4\n  0xffffffffffffffffffffffffffffffffffffffff\n  and\n  mul\n  or\n  swap1\n  sstore\n  pop\n    /* \"Votacion.sol\":1312:1327  block.timestamp */\n  timestamp\n    /* \"Votacion.sol\":1295:1309  inicioVotacion */\n  0x03\n    /* \"Votacion.sol\":1295:1327  inicioVotacion = block.timestamp */\n  dup2\n  swap1\n  sstore\n  pop\n    /* \"Votacion.sol\":1387:1406  _duracionEnSegundos */\n  dup1\n    /* \"Votacion.sol\":1369:1384  block.timestamp */\n  timestamp\n    /* \"Votacion.sol\":1369:1406  block.timestamp + _duracionEnSegundos */\n  tag_6\n  swap2\n  swap1\n  tag_7\n  jump\t// in\ntag_6:\n    /* \"Votacion.sol\":1355:1366  finVotacion */\n  0x04\n    /* \"Votacion.sol\":1355:1406  finVotacion = block.timestamp + _duracionEnSegundos */\n  dup2\n  swap1\n  sstore\n  pop\n    /* \"Votacion.sol\":1497:1503  uint i */\n  0x00\n    /* \"Votacion.sol\":1506:1507  0 */\n  0x00\n    /* \"Votacion.sol\":1497:1507  uint i = 0 */\n  swap1\n  pop\n    /* \"Votacion.sol\":1492:1721  for (uint i = 0; i < _nombresCandidatos.length; i++) {... */\ntag_8:\n    /* \"Votacion.sol\":1513:1531  _nombresCandidatos */\n  dup3\n    /* \"Votacion.sol\":1513:1538  _nombresCandidatos.length */\n  mload\n    /* \"Votacion.sol\":1509:1510  i */\n  dup2\n    /* \"Votacion.sol\":1509:1538  i < _nombresCandidatos.length */\n  lt\n    /* \"Votacion.sol\":1492:1721  for (uint i = 0; i < _nombresCandidatos.length; i++) {... */\n  iszero\n  tag_9\n  jumpi\n    /* \"Votacion.sol\":1576:1709  Candidato({... */\n  mload(0x40)\n  dup1\n  0x60\n  add\n  0x40\n  mstore\n  dup1\n    /* \"Votacion.sol\":1609:1610  i */\n  dup3\n    /* \"Votacion.sol\":1576:1709  Candidato({... */\n  dup2\n  mstore\n  0x20\n  add\n    /* \"Votacion.sol\":1637:1655  _nombresCandidatos */\n  dup5\n    /* \"Votacion.sol\":1656:1657  i */\n  dup4\n    /* \"Votacion.sol\":1637:1658  _nombresCandidatos[i] */\n  dup2\n  mload\n  dup2\n  lt\n  tag_11\n  jumpi\n  tag_12\n  tag_13\n  jump\t// in\ntag_12:\ntag_11:\n  0x20\n  mul\n  0x20\n  add\n  add\n  mload\n    /* \"Votacion.sol\":1576:1709  Candidato({... */\n  dup2\n  mstore\n  0x20\n  add\n    /* \"Votacion.sol\":1692:1693  0 */\n  0x00\n    /* \"Votacion.sol\":1576:1709  Candidato({... */\n  dup2\n  mstore\n  pop\n    /* \"Votacion.sol\":1560:1570  candidatos */\n  0x01\n    /* \"Votacion.sol\":1560:1573  candidatos[i] */\n  0x00\n    /* \"Votacion.sol\":1571:1572  i */\n  dup4\n    /* \"Votacion.sol\":1560:1573  candidatos[i] */\n  dup2\n  mstore\n  0x20\n  add\n  swap1\n  dup2\n  mstore\n  0x20\n  add\n  0x00\n  keccak256\n    /* \"Votacion.sol\":1560:1709  candidatos[i] = Candidato({... */\n  0x00\n  dup3\n  add\n  mload\n  dup2\n  0x00\n  add\n  sstore\n  0x20\n  dup3\n  add\n  mload\n  dup2\n  0x01\n  add\n  swap1\n  dup2\n  tag_14\n  swap2\n  swap1\n  tag_15\n  jump\t// in\ntag_14:\n  pop\n  0x40\n  dup3\n  add\n  mload\n  dup2\n  0x02\n  add\n  sstore\n  swap1\n  pop\n  pop\n    /* \"Votacion.sol\":1540:1543  i++ */\n  dup1\n  dup1\n  0x01\n  add\n  swap2\n  pop\n  pop\n    /* \"Votacion.sol\":1492:1721  for (uint i = 0; i < _nombresCandidatos.length; i++) {... */\n  jump(tag_8)\ntag_9:\n  pop\n    /* \"Votacion.sol\":1141:1728  constructor(string[] memory _nombresCandidatos, uint _duracionEnSegundos) {... */\n  pop\n  pop\n    /* \"Votacion.sol\":60:6050  contract Votacion {... */\n  jump(tag_16)\n    /* \"#utility.yul\":7:82   */\ntag_17:\n    /* \"#utility.yul\":40:46   */\n  0x00\n    /* \"#utility.yul\":73:75   */\n  0x40\n    /* \"#utility.yul\":67:76   */\n  mload\n    /* \"#utility.yul\":57:76   */\n  swap1\n  pop\n    /* \"#utility.yul\":7:82   */\n  swap1\n  jump\t// out\n    /* \"#utility.yul\":88:205   */\ntag_18:\n    /* \"#utility.yul\":197:198   */\n  0x00\n    /* \"#utility.yul\":194:195   */\n  0x00\n    /* \"#utility.yul\":187:199   */\n  revert\n    /* \"#utility.yul\":211:328   */\ntag_19:\n    /* \"#utility.yul\":320:321   */\n  0x00\n    /* \"#utility.yul\":317:318   */\n  0x00\n    /* \"#utility.yul\":310:322   */\n  revert\n    /* \"#utility.yul\":334:451   */\ntag_20:\n    /* \"#utility.yul\":443:444   */\n  0x00\n    /* \"#utility.yul\":440:441   */\n  0x00\n    /* \"#utility.yul\":433:445   */\n  revert\n    /* \"#utility.yul\":457:559   */\ntag_21:\n    /* \"#utility.yul\":498:504   */\n  0x00\n    /* \"#utility.yul\":549:551   */\n  0x1f\n    /* \"#utility.yul\":545:552   */\n  not\n    /* \"#utility.yul\":540:542   */\n  0x1f\n    /* \"#utility.yul\":533:538   */\n  dup4\n    /* \"#utility.yul\":529:543   */\n  add\n    /* \"#utility.yul\":525:553   */\n  and\n    /* \"#utility.yul\":515:553   */\n  swap1\n  pop\n    /* \"#utility.yul\":457:559   */\n  swap2\n  swap1\n  pop\n  jump\t// out\n    /* \"#utility.yul\":565:745   */\ntag_22:\n    /* \"#utility.yul\":613:690   */\n  0x4e487b7100000000000000000000000000000000000000000000000000000000\n    /* \"#utility.yul\":610:611   */\n  0x00\n    /* \"#utility.yul\":603:691   */\n  mstore\n    /* \"#utility.yul\":710:714   */\n  0x41\n    /* \"#utility.yul\":707:708   */\n  0x04\n    /* \"#utility.yul\":700:715   */\n  mstore\n    /* \"#utility.yul\":734:738   */\n  0x24\n    /* \"#utility.yul\":731:732   */\n  0x00\n    /* \"#utility.yul\":724:739   */\n  revert\n    /* \"#utility.yul\":751:1032   */\ntag_23:\n    /* \"#utility.yul\":834:861   */\n  tag_64\n    /* \"#utility.yul\":856:860   */\n  dup3\n    /* \"#utility.yul\":834:861   */\n  tag_21\n  jump\t// in\ntag_64:\n    /* \"#utility.yul\":826:832   */\n  dup2\n    /* \"#utility.yul\":822:862   */\n  add\n    /* \"#utility.yul\":964:970   */\n  dup2\n    /* \"#utility.yul\":952:962   */\n  dup2\n    /* \"#utility.yul\":949:971   */\n  lt\n    /* \"#utility.yul\":928:946   */\n  0xffffffffffffffff\n    /* \"#utility.yul\":916:926   */\n  dup3\n    /* \"#utility.yul\":913:947   */\n  gt\n    /* \"#utility.yul\":910:972   */\n  or\n    /* \"#utility.yul\":907:995   */\n  iszero\n  tag_65\n  jumpi\n    /* \"#utility.yul\":975:993   */\n  tag_66\n  tag_22\n  jump\t// in\ntag_66:\n    /* \"#utility.yul\":907:995   */\ntag_65:\n    /* \"#utility.yul\":1015:1025   */\n  dup1\n    /* \"#utility.yul\":1011:1013   */\n  0x40\n    /* \"#utility.yul\":1004:1026   */\n  mstore\n    /* \"#utility.yul\":794:1032   */\n  pop\n    /* \"#utility.yul\":751:1032   */\n  pop\n  pop\n  jump\t// out\n    /* \"#utility.yul\":1038:1167   */\ntag_24:\n    /* \"#utility.yul\":1072:1078   */\n  0x00\n    /* \"#utility.yul\":1099:1119   */\n  tag_68\n  tag_17\n  jump\t// in\ntag_68:\n    /* \"#utility.yul\":1089:1119   */\n  swap1\n  pop\n    /* \"#utility.yul\":1128:1161   */\n  tag_69\n    /* \"#utility.yul\":1156:1160   */\n  dup3\n    /* \"#utility.yul\":1148:1154   */\n  dup3\n    /* \"#utility.yul\":1128:1161   */\n  tag_23\n  jump\t// in\ntag_69:\n    /* \"#utility.yul\":1038:1167   */\n  swap2\n  swap1\n  pop\n  jump\t// out\n    /* \"#utility.yul\":1173:1494   */\ntag_25:\n    /* \"#utility.yul\":1260:1264   */\n  0x00\n    /* \"#utility.yul\":1350:1368   */\n  0xffffffffffffffff\n    /* \"#utility.yul\":1342:1348   */\n  dup3\n    /* \"#utility.yul\":1339:1369   */\n  gt\n    /* \"#utility.yul\":1336:1392   */\n  iszero\n  tag_71\n  jumpi\n    /* \"#utility.yul\":1372:1390   */\n  tag_72\n  tag_22\n  jump\t// in\ntag_72:\n    /* \"#utility.yul\":1336:1392   */\ntag_71:\n    /* \"#utility.yul\":1422:1426   */\n  0x20\n    /* \"#utility.yul\":1414:1420   */\n  dup3\n    /* \"#utility.yul\":1410:1427   */\n  mul\n    /* \"#utility.yul\":1402:1427   */\n  swap1\n  pop\n    /* \"#utility.yul\":1482:1486   */\n  0x20\n    /* \"#utility.yul\":1476:1480   */\n  dup2\n    /* \"#utility.yul\":1472:1487   */\n  add\n    /* \"#utility.yul\":1464:1487   */\n  swap1\n  pop\n    /* \"#utility.yul\":1173:1494   */\n  swap2\n  swap1\n  pop\n  jump\t// out\n    /* \"#utility.yul\":1500:1617   */\ntag_26:\n    /* \"#utility.yul\":1609:1610   */\n  0x00\n    /* \"#utility.yul\":1606:1607   */\n  0x00\n    /* \"#utility.yul\":1599:1611   */\n  revert\n    /* \"#utility.yul\":1623:1740   */\ntag_27:\n    /* \"#utility.yul\":1732:1733   */\n  0x00\n    /* \"#utility.yul\":1729:1730   */\n  0x00\n    /* \"#utility.yul\":1722:1734   */\n  revert\n    /* \"#utility.yul\":1746:2054   */\ntag_28:\n    /* \"#utility.yul\":1808:1812   */\n  0x00\n    /* \"#utility.yul\":1898:1916   */\n  0xffffffffffffffff\n    /* \"#utility.yul\":1890:1896   */\n  dup3\n    /* \"#utility.yul\":1887:1917   */\n  gt\n    /* \"#utility.yul\":1884:1940   */\n  iszero\n  tag_76\n  jumpi\n    /* \"#utility.yul\":1920:1938   */\n  tag_77\n  tag_22\n  jump\t// in\ntag_77:\n    /* \"#utility.yul\":1884:1940   */\ntag_76:\n    /* \"#utility.yul\":1958:1987   */\n  tag_78\n    /* \"#utility.yul\":1980:1986   */\n  dup3\n    /* \"#utility.yul\":1958:1987   */\n  tag_21\n  jump\t// in\ntag_78:\n    /* \"#utility.yul\":1950:1987   */\n  swap1\n  pop\n    /* \"#utility.yul\":2042:2046   */\n  0x20\n    /* \"#utility.yul\":2036:2040   */\n  dup2\n    /* \"#utility.yul\":2032:2047   */\n  add\n    /* \"#utility.yul\":2024:2047   */\n  swap1\n  pop\n    /* \"#utility.yul\":1746:2054   */\n  swap2\n  swap1\n  pop\n  jump\t// out\n    /* \"#utility.yul\":2060:2199   */\ntag_29:\n    /* \"#utility.yul\":2149:2155   */\n  dup3\n    /* \"#utility.yul\":2144:2147   */\n  dup2\n    /* \"#utility.yul\":2139:2142   */\n  dup4\n    /* \"#utility.yul\":2133:2156   */\n  mcopy\n    /* \"#utility.yul\":2190:2191   */\n  0x00\n    /* \"#utility.yul\":2181:2187   */\n  dup4\n    /* \"#utility.yul\":2176:2179   */\n  dup4\n    /* \"#utility.yul\":2172:2188   */\n  add\n    /* \"#utility.yul\":2165:2192   */\n  mstore\n    /* \"#utility.yul\":2060:2199   */\n  pop\n  pop\n  pop\n  jump\t// out\n    /* \"#utility.yul\":2205:2639   */\ntag_30:\n    /* \"#utility.yul\":2294:2299   */\n  0x00\n    /* \"#utility.yul\":2319:2385   */\n  tag_81\n    /* \"#utility.yul\":2335:2384   */\n  tag_82\n    /* \"#utility.yul\":2377:2383   */\n  dup5\n    /* \"#utility.yul\":2335:2384   */\n  tag_28\n  jump\t// in\ntag_82:\n    /* \"#utility.yul\":2319:2385   */\n  tag_24\n  jump\t// in\ntag_81:\n    /* \"#utility.yul\":2310:2385   */\n  swap1\n  pop\n    /* \"#utility.yul\":2408:2414   */\n  dup3\n    /* \"#utility.yul\":2401:2406   */\n  dup2\n    /* \"#utility.yul\":2394:2415   */\n  mstore\n    /* \"#utility.yul\":2446:2450   */\n  0x20\n    /* \"#utility.yul\":2439:2444   */\n  dup2\n    /* \"#utility.yul\":2435:2451   */\n  add\n    /* \"#utility.yul\":2484:2487   */\n  dup5\n    /* \"#utility.yul\":2475:2481   */\n  dup5\n    /* \"#utility.yul\":2470:2473   */\n  dup5\n    /* \"#utility.yul\":2466:2482   */\n  add\n    /* \"#utility.yul\":2463:2488   */\n  gt\n    /* \"#utility.yul\":2460:2572   */\n  iszero\n  tag_83\n  jumpi\n    /* \"#utility.yul\":2491:2570   */\n  tag_84\n  tag_27\n  jump\t// in\ntag_84:\n    /* \"#utility.yul\":2460:2572   */\ntag_83:\n    /* \"#utility.yul\":2581:2633   */\n  tag_85\n    /* \"#utility.yul\":2626:2632   */\n  dup5\n    /* \"#utility.yul\":2621:2624   */\n  dup3\n    /* \"#utility.yul\":2616:2619   */\n  dup6\n    /* \"#utility.yul\":2581:2633   */\n  tag_29\n  jump\t// in\ntag_85:\n    /* \"#utility.yul\":2300:2639   */\n  pop\n    /* \"#utility.yul\":2205:2639   */\n  swap4\n  swap3\n  pop\n  pop\n  pop\n  jump\t// out\n    /* \"#utility.yul\":2659:3014   */\ntag_31:\n    /* \"#utility.yul\":2726:2731   */\n  0x00\n    /* \"#utility.yul\":2775:2778   */\n  dup3\n    /* \"#utility.yul\":2768:2772   */\n  0x1f\n    /* \"#utility.yul\":2760:2766   */\n  dup4\n    /* \"#utility.yul\":2756:2773   */\n  add\n    /* \"#utility.yul\":2752:2779   */\n  slt\n    /* \"#utility.yul\":2742:2864   */\n  tag_87\n  jumpi\n    /* \"#utility.yul\":2783:2862   */\n  tag_88\n  tag_20\n  jump\t// in\ntag_88:\n    /* \"#utility.yul\":2742:2864   */\ntag_87:\n    /* \"#utility.yul\":2893:2899   */\n  dup2\n    /* \"#utility.yul\":2887:2900   */\n  mload\n    /* \"#utility.yul\":2918:3008   */\n  tag_89\n    /* \"#utility.yul\":3004:3007   */\n  dup5\n    /* \"#utility.yul\":2996:3002   */\n  dup3\n    /* \"#utility.yul\":2989:2993   */\n  0x20\n    /* \"#utility.yul\":2981:2987   */\n  dup7\n    /* \"#utility.yul\":2977:2994   */\n  add\n    /* \"#utility.yul\":2918:3008   */\n  tag_30\n  jump\t// in\ntag_89:\n    /* \"#utility.yul\":2909:3008   */\n  swap2\n  pop\n    /* \"#utility.yul\":2732:3014   */\n  pop\n    /* \"#utility.yul\":2659:3014   */\n  swap3\n  swap2\n  pop\n  pop\n  jump\t// out\n    /* \"#utility.yul\":3036:3996   */\ntag_32:\n    /* \"#utility.yul\":3153:3158   */\n  0x00\n    /* \"#utility.yul\":3178:3269   */\n  tag_91\n    /* \"#utility.yul\":3194:3268   */\n  tag_92\n    /* \"#utility.yul\":3261:3267   */\n  dup5\n    /* \"#utility.yul\":3194:3268   */\n  tag_25\n  jump\t// in\ntag_92:\n    /* \"#utility.yul\":3178:3269   */\n  tag_24\n  jump\t// in\ntag_91:\n    /* \"#utility.yul\":3169:3269   */\n  swap1\n  pop\n    /* \"#utility.yul\":3289:3294   */\n  dup1\n    /* \"#utility.yul\":3318:3324   */\n  dup4\n    /* \"#utility.yul\":3311:3316   */\n  dup3\n    /* \"#utility.yul\":3304:3325   */\n  mstore\n    /* \"#utility.yul\":3352:3356   */\n  0x20\n    /* \"#utility.yul\":3345:3350   */\n  dup3\n    /* \"#utility.yul\":3341:3357   */\n  add\n    /* \"#utility.yul\":3334:3357   */\n  swap1\n  pop\n    /* \"#utility.yul\":3405:3409   */\n  0x20\n    /* \"#utility.yul\":3397:3403   */\n  dup5\n    /* \"#utility.yul\":3393:3410   */\n  mul\n    /* \"#utility.yul\":3385:3391   */\n  dup4\n    /* \"#utility.yul\":3381:3411   */\n  add\n    /* \"#utility.yul\":3434:3437   */\n  dup6\n    /* \"#utility.yul\":3426:3432   */\n  dup2\n    /* \"#utility.yul\":3423:3438   */\n  gt\n    /* \"#utility.yul\":3420:3542   */\n  iszero\n  tag_93\n  jumpi\n    /* \"#utility.yul\":3453:3532   */\n  tag_94\n  tag_26\n  jump\t// in\ntag_94:\n    /* \"#utility.yul\":3420:3542   */\ntag_93:\n    /* \"#utility.yul\":3568:3574   */\n  dup4\n    /* \"#utility.yul\":3551:3990   */\ntag_95:\n    /* \"#utility.yul\":3585:3591   */\n  dup2\n    /* \"#utility.yul\":3580:3583   */\n  dup2\n    /* \"#utility.yul\":3577:3592   */\n  lt\n    /* \"#utility.yul\":3551:3990   */\n  iszero\n  tag_97\n  jumpi\n    /* \"#utility.yul\":3667:3670   */\n  dup1\n    /* \"#utility.yul\":3661:3671   */\n  mload\n    /* \"#utility.yul\":3703:3721   */\n  0xffffffffffffffff\n    /* \"#utility.yul\":3690:3701   */\n  dup2\n    /* \"#utility.yul\":3687:3722   */\n  gt\n    /* \"#utility.yul\":3684:3806   */\n  iszero\n  tag_98\n  jumpi\n    /* \"#utility.yul\":3725:3804   */\n  tag_99\n  tag_20\n  jump\t// in\ntag_99:\n    /* \"#utility.yul\":3684:3806   */\ntag_98:\n    /* \"#utility.yul\":3849:3860   */\n  dup1\n    /* \"#utility.yul\":3841:3847   */\n  dup7\n    /* \"#utility.yul\":3837:3861   */\n  add\n    /* \"#utility.yul\":3887:3945   */\n  tag_100\n    /* \"#utility.yul\":3941:3944   */\n  dup10\n    /* \"#utility.yul\":3929:3939   */\n  dup3\n    /* \"#utility.yul\":3887:3945   */\n  tag_31\n  jump\t// in\ntag_100:\n    /* \"#utility.yul\":3882:3885   */\n  dup6\n    /* \"#utility.yul\":3875:3946   */\n  mstore\n    /* \"#utility.yul\":3975:3979   */\n  0x20\n    /* \"#utility.yul\":3970:3973   */\n  dup6\n    /* \"#utility.yul\":3966:3980   */\n  add\n    /* \"#utility.yul\":3959:3980   */\n  swap5\n  pop\n    /* \"#utility.yul\":3627:3990   */\n  pop\n  pop\n    /* \"#utility.yul\":3611:3615   */\n  0x20\n    /* \"#utility.yul\":3606:3609   */\n  dup2\n    /* \"#utility.yul\":3602:3616   */\n  add\n    /* \"#utility.yul\":3595:3616   */\n  swap1\n  pop\n    /* \"#utility.yul\":3551:3990   */\n  jump(tag_95)\ntag_97:\n    /* \"#utility.yul\":3555:3576   */\n  pop\n    /* \"#utility.yul\":3159:3996   */\n  pop\n  pop\n    /* \"#utility.yul\":3036:3996   */\n  swap4\n  swap3\n  pop\n  pop\n  pop\n  jump\t// out\n    /* \"#utility.yul\":4018:4423   */\ntag_33:\n    /* \"#utility.yul\":4110:4115   */\n  0x00\n    /* \"#utility.yul\":4159:4162   */\n  dup3\n    /* \"#utility.yul\":4152:4156   */\n  0x1f\n    /* \"#utility.yul\":4144:4150   */\n  dup4\n    /* \"#utility.yul\":4140:4157   */\n  add\n    /* \"#utility.yul\":4136:4163   */\n  slt\n    /* \"#utility.yul\":4126:4248   */\n  tag_102\n  jumpi\n    /* \"#utility.yul\":4167:4246   */\n  tag_103\n  tag_20\n  jump\t// in\ntag_103:\n    /* \"#utility.yul\":4126:4248   */\ntag_102:\n    /* \"#utility.yul\":4277:4283   */\n  dup2\n    /* \"#utility.yul\":4271:4284   */\n  mload\n    /* \"#utility.yul\":4302:4417   */\n  tag_104\n    /* \"#utility.yul\":4413:4416   */\n  dup5\n    /* \"#utility.yul\":4405:4411   */\n  dup3\n    /* \"#utility.yul\":4398:4402   */\n  0x20\n    /* \"#utility.yul\":4390:4396   */\n  dup7\n    /* \"#utility.yul\":4386:4403   */\n  add\n    /* \"#utility.yul\":4302:4417   */\n  tag_32\n  jump\t// in\ntag_104:\n    /* \"#utility.yul\":4293:4417   */\n  swap2\n  pop\n    /* \"#utility.yul\":4116:4423   */\n  pop\n    /* \"#utility.yul\":4018:4423   */\n  swap3\n  swap2\n  pop\n  pop\n  jump\t// out\n    /* \"#utility.yul\":4429:4506   */\ntag_34:\n    /* \"#utility.yul\":4466:4473   */\n  0x00\n    /* \"#utility.yul\":4495:4500   */\n  dup2\n    /* \"#utility.yul\":4484:4500   */\n  swap1\n  pop\n    /* \"#utility.yul\":4429:4506   */\n  swap2\n  swap1\n  pop\n  jump\t// out\n    /* \"#utility.yul\":4512:4634   */\ntag_35:\n    /* \"#utility.yul\":4585:4609   */\n  tag_107\n    /* \"#utility.yul\":4603:4608   */\n  dup2\n    /* \"#utility.yul\":4585:4609   */\n  tag_34\n  jump\t// in\ntag_107:\n    /* \"#utility.yul\":4578:4583   */\n  dup2\n    /* \"#utility.yul\":4575:4610   */\n  eq\n    /* \"#utility.yul\":4565:4628   */\n  tag_108\n  jumpi\n    /* \"#utility.yul\":4624:4625   */\n  0x00\n    /* \"#utility.yul\":4621:4622   */\n  0x00\n    /* \"#utility.yul\":4614:4626   */\n  revert\n    /* \"#utility.yul\":4565:4628   */\ntag_108:\n    /* \"#utility.yul\":4512:4634   */\n  pop\n  jump\t// out\n    /* \"#utility.yul\":4640:4783   */\ntag_36:\n    /* \"#utility.yul\":4697:4702   */\n  0x00\n    /* \"#utility.yul\":4728:4734   */\n  dup2\n    /* \"#utility.yul\":4722:4735   */\n  mload\n    /* \"#utility.yul\":4713:4735   */\n  swap1\n  pop\n    /* \"#utility.yul\":4744:4777   */\n  tag_110\n    /* \"#utility.yul\":4771:4776   */\n  dup2\n    /* \"#utility.yul\":4744:4777   */\n  tag_35\n  jump\t// in\ntag_110:\n    /* \"#utility.yul\":4640:4783   */\n  swap3\n  swap2\n  pop\n  pop\n  jump\t// out\n    /* \"#utility.yul\":4789:5519   */\ntag_3:\n    /* \"#utility.yul\":4903:4909   */\n  0x00\n    /* \"#utility.yul\":4911:4917   */\n  0x00\n    /* \"#utility.yul\":4960:4962   */\n  0x40\n    /* \"#utility.yul\":4948:4957   */\n  dup4\n    /* \"#utility.yul\":4939:4946   */\n  dup6\n    /* \"#utility.yul\":4935:4958   */\n  sub\n    /* \"#utility.yul\":4931:4963   */\n  slt\n    /* \"#utility.yul\":4928:5047   */\n  iszero\n  tag_112\n  jumpi\n    /* \"#utility.yul\":4966:5045   */\n  tag_113\n  tag_18\n  jump\t// in\ntag_113:\n    /* \"#utility.yul\":4928:5047   */\ntag_112:\n    /* \"#utility.yul\":5107:5108   */\n  0x00\n    /* \"#utility.yul\":5096:5105   */\n  dup4\n    /* \"#utility.yul\":5092:5109   */\n  add\n    /* \"#utility.yul\":5086:5110   */\n  mload\n    /* \"#utility.yul\":5137:5155   */\n  0xffffffffffffffff\n    /* \"#utility.yul\":5129:5135   */\n  dup2\n    /* \"#utility.yul\":5126:5156   */\n  gt\n    /* \"#utility.yul\":5123:5240   */\n  iszero\n  tag_114\n  jumpi\n    /* \"#utility.yul\":5159:5238   */\n  tag_115\n  tag_19\n  jump\t// in\ntag_115:\n    /* \"#utility.yul\":5123:5240   */\ntag_114:\n    /* \"#utility.yul\":5264:5363   */\n  tag_116\n    /* \"#utility.yul\":5355:5362   */\n  dup6\n    /* \"#utility.yul\":5346:5352   */\n  dup3\n    /* \"#utility.yul\":5335:5344   */\n  dup7\n    /* \"#utility.yul\":5331:5353   */\n  add\n    /* \"#utility.yul\":5264:5363   */\n  tag_33\n  jump\t// in\ntag_116:\n    /* \"#utility.yul\":5254:5363   */\n  swap3\n  pop\n    /* \"#utility.yul\":5057:5373   */\n  pop\n    /* \"#utility.yul\":5412:5414   */\n  0x20\n    /* \"#utility.yul\":5438:5502   */\n  tag_117\n    /* \"#utility.yul\":5494:5501   */\n  dup6\n    /* \"#utility.yul\":5485:5491   */\n  dup3\n    /* \"#utility.yul\":5474:5483   */\n  dup7\n    /* \"#utility.yul\":5470:5492   */\n  add\n    /* \"#utility.yul\":5438:5502   */\n  tag_36\n  jump\t// in\ntag_117:\n    /* \"#utility.yul\":5428:5502   */\n  swap2\n  pop\n    /* \"#utility.yul\":5383:5512   */\n  pop\n    /* \"#utility.yul\":4789:5519   */\n  swap3\n  pop\n  swap3\n  swap1\n  pop\n  jump\t// out\n    /* \"#utility.yul\":5525:5705   */\ntag_37:\n    /* \"#utility.yul\":5573:5650   */\n  0x4e487b7100000000000000000000000000000000000000000000000000000000\n    /* \"#utility.yul\":5570:5571   */\n  0x00\n    /* \"#utility.yul\":5563:5651   */\n  mstore\n    /* \"#utility.yul\":5670:5674   */\n  0x11\n    /* \"#utility.yul\":5667:5668   */\n  0x04\n    /* \"#utility.yul\":5660:5675   */\n  mstore\n    /* \"#utility.yul\":5694:5698   */\n  0x24\n    /* \"#utility.yul\":5691:5692   */\n  0x00\n    /* \"#utility.yul\":5684:5699   */\n  revert\n    /* \"#utility.yul\":5711:5902   */\ntag_7:\n    /* \"#utility.yul\":5751:5754   */\n  0x00\n    /* \"#utility.yul\":5770:5790   */\n  tag_120\n    /* \"#utility.yul\":5788:5789   */\n  dup3\n    /* \"#utility.yul\":5770:5790   */\n  tag_34\n  jump\t// in\ntag_120:\n    /* \"#utility.yul\":5765:5790   */\n  swap2\n  pop\n    /* \"#utility.yul\":5804:5824   */\n  tag_121\n    /* \"#utility.yul\":5822:5823   */\n  dup4\n    /* \"#utility.yul\":5804:5824   */\n  tag_34\n  jump\t// in\ntag_121:\n    /* \"#utility.yul\":5799:5824   */\n  swap3\n  pop\n    /* \"#utility.yul\":5847:5848   */\n  dup3\n    /* \"#utility.yul\":5844:5845   */\n  dup3\n    /* \"#utility.yul\":5840:5849   */\n  add\n    /* \"#utility.yul\":5833:5849   */\n  swap1\n  pop\n    /* \"#utility.yul\":5868:5871   */\n  dup1\n    /* \"#utility.yul\":5865:5866   */\n  dup3\n    /* \"#utility.yul\":5862:5872   */\n  gt\n    /* \"#utility.yul\":5859:5895   */\n  iszero\n  tag_122\n  jumpi\n    /* \"#utility.yul\":5875:5893   */\n  tag_123\n  tag_37\n  jump\t// in\ntag_123:\n    /* \"#utility.yul\":5859:5895   */\ntag_122:\n    /* \"#utility.yul\":5711:5902   */\n  swap3\n  swap2\n  pop\n  pop\n  jump\t// out\n    /* \"#utility.yul\":5908:6088   */\ntag_13:\n    /* \"#utility.yul\":5956:6033   */\n  0x4e487b7100000000000000000000000000000000000000000000000000000000\n    /* \"#utility.yul\":5953:5954   */\n  0x00\n    /* \"#utility.yul\":5946:6034   */\n  mstore\n    /* \"#utility.yul\":6053:6057   */\n  0x32\n    /* \"#utility.yul\":6050:6051   */\n  0x04\n    /* \"#utility.yul\":6043:6058   */\n  mstore\n    /* \"#utility.yul\":6077:6081   */\n  0x24\n    /* \"#utility.yul\":6074:6075   */\n  0x00\n    /* \"#utility.yul\":6067:6082   */\n  revert\n    /* \"#utility.yul\":6094:6193   */\ntag_38:\n    /* \"#utility.yul\":6146:6152   */\n  0x00\n    /* \"#utility.yul\":6180:6185   */\n  dup2\n    /* \"#utility.yul\":6174:6186   */\n  mload\n    /* \"#utility.yul\":6164:6186   */\n  swap1\n  pop\n    /* \"#utility.yul\":6094:6193   */\n  swap2\n  swap1\n  pop\n  jump\t// out\n    /* \"#utility.yul\":6199:6379   */\ntag_39:\n    /* \"#utility.yul\":6247:6324   */\n  0x4e487b7100000000000000000000000000000000000000000000000000000000\n    /* \"#utility.yul\":6244:6245   */\n  0x00\n    /* \"#utility.yul\":6237:6325   */\n  mstore\n    /* \"#utility.yul\":6344:6348   */\n  0x22\n    /* \"#utility.yul\":6341:6342   */\n  0x04\n    /* \"#utility.yul\":6334:6349   */\n  mstore\n    /* \"#utility.yul\":6368:6372   */\n  0x24\n    /* \"#utility.yul\":6365:6366   */\n  0x00\n    /* \"#utility.yul\":6358:6373   */\n  revert\n    /* \"#utility.yul\":6385:6705   */\ntag_40:\n    /* \"#utility.yul\":6429:6435   */\n  0x00\n    /* \"#utility.yul\":6466:6467   */\n  0x02\n    /* \"#utility.yul\":6460:6464   */\n  dup3\n    /* \"#utility.yul\":6456:6468   */\n  div\n    /* \"#utility.yul\":6446:6468   */\n  swap1\n  pop\n    /* \"#utility.yul\":6513:6514   */\n  0x01\n    /* \"#utility.yul\":6507:6511   */\n  dup3\n    /* \"#utility.yul\":6503:6515   */\n  and\n    /* \"#utility.yul\":6534:6552   */\n  dup1\n    /* \"#utility.yul\":6524:6605   */\n  tag_128\n  jumpi\n    /* \"#utility.yul\":6590:6594   */\n  0x7f\n    /* \"#utility.yul\":6582:6588   */\n  dup3\n    /* \"#utility.yul\":6578:6595   */\n  and\n    /* \"#utility.yul\":6568:6595   */\n  swap2\n  pop\n    /* \"#utility.yul\":6524:6605   */\ntag_128:\n    /* \"#utility.yul\":6652:6654   */\n  0x20\n    /* \"#utility.yul\":6644:6650   */\n  dup3\n    /* \"#utility.yul\":6641:6655   */\n  lt\n    /* \"#utility.yul\":6621:6639   */\n  dup2\n    /* \"#utility.yul\":6618:6656   */\n  sub\n    /* \"#utility.yul\":6615:6699   */\n  tag_129\n  jumpi\n    /* \"#utility.yul\":6671:6689   */\n  tag_130\n  tag_39\n  jump\t// in\ntag_130:\n    /* \"#utility.yul\":6615:6699   */\ntag_129:\n    /* \"#utility.yul\":6436:6705   */\n  pop\n    /* \"#utility.yul\":6385:6705   */\n  swap2\n  swap1\n  pop\n  jump\t// out\n    /* \"#utility.yul\":6711:6852   */\ntag_41:\n    /* \"#utility.yul\":6760:6764   */\n  0x00\n    /* \"#utility.yul\":6783:6786   */\n  dup2\n    /* \"#utility.yul\":6775:6786   */\n  swap1\n  pop\n    /* \"#utility.yul\":6806:6809   */\n  dup2\n    /* \"#utility.yul\":6803:6804   */\n  0x00\n    /* \"#utility.yul\":6796:6810   */\n  mstore\n    /* \"#utility.yul\":6840:6844   */\n  0x20\n    /* \"#utility.yul\":6837:6838   */\n  0x00\n    /* \"#utility.yul\":6827:6845   */\n  keccak256\n    /* \"#utility.yul\":6819:6845   */\n  swap1\n  pop\n    /* \"#utility.yul\":6711:6852   */\n  swap2\n  swap1\n  pop\n  jump\t// out\n    /* \"#utility.yul\":6858:6951   */\ntag_42:\n    /* \"#utility.yul\":6895:6901   */\n  0x00\n    /* \"#utility.yul\":6942:6944   */\n  0x20\n    /* \"#utility.yul\":6937:6939   */\n  0x1f\n    /* \"#utility.yul\":6930:6935   */\n  dup4\n    /* \"#utility.yul\":6926:6940   */\n  add\n    /* \"#utility.yul\":6922:6945   */\n  div\n    /* \"#utility.yul\":6912:6945   */\n  swap1\n  pop\n    /* \"#utility.yul\":6858:6951   */\n  swap2\n  swap1\n  pop\n  jump\t// out\n    /* \"#utility.yul\":6957:7064   */\ntag_43:\n    /* \"#utility.yul\":7001:7009   */\n  0x00\n    /* \"#utility.yul\":7051:7056   */\n  dup3\n    /* \"#utility.yul\":7045:7049   */\n  dup3\n    /* \"#utility.yul\":7041:7057   */\n  shl\n    /* \"#utility.yul\":7020:7057   */\n  swap1\n  pop\n    /* \"#utility.yul\":6957:7064   */\n  swap3\n  swap2\n  pop\n  pop\n  jump\t// out\n    /* \"#utility.yul\":7070:7463   */\ntag_44:\n    /* \"#utility.yul\":7139:7145   */\n  0x00\n    /* \"#utility.yul\":7189:7190   */\n  0x08\n    /* \"#utility.yul\":7177:7187   */\n  dup4\n    /* \"#utility.yul\":7173:7191   */\n  mul\n    /* \"#utility.yul\":7212:7309   */\n  tag_135\n    /* \"#utility.yul\":7242:7308   */\n  0xffffffffffffffffffffffffffffffffffffffffffffffffffffffffffffffff\n    /* \"#utility.yul\":7231:7240   */\n  dup3\n    /* \"#utility.yul\":7212:7309   */\n  tag_43\n  jump\t// in\ntag_135:\n    /* \"#utility.yul\":7330:7369   */\n  tag_136\n    /* \"#utility.yul\":7360:7368   */\n  dup7\n    /* \"#utility.yul\":7349:7358   */\n  dup4\n    /* \"#utility.yul\":7330:7369   */\n  tag_43\n  jump\t// in\ntag_136:\n    /* \"#utility.yul\":7318:7369   */\n  swap6\n  pop\n    /* \"#utility.yul\":7402:7406   */\n  dup1\n    /* \"#utility.yul\":7398:7407   */\n  not\n    /* \"#utility.yul\":7391:7396   */\n  dup5\n    /* \"#utility.yul\":7387:7408   */\n  and\n    /* \"#utility.yul\":7378:7408   */\n  swap4\n  pop\n    /* \"#utility.yul\":7451:7455   */\n  dup1\n    /* \"#utility.yul\":7441:7449   */\n  dup7\n    /* \"#utility.yul\":7437:7456   */\n  and\n    /* \"#utility.yul\":7430:7435   */\n  dup5\n    /* \"#utility.yul\":7427:7457   */\n  or\n    /* \"#utility.yul\":7417:7457   */\n  swap3\n  pop\n    /* \"#utility.yul\":7146:7463   */\n  pop\n  pop\n    /* \"#utility.yul\":7070:7463   */\n  swap4\n  swap3\n  pop\n  pop\n  pop\n  jump\t// out\n    /* \"#utility.yul\":7469:7529   */\ntag_45:\n    /* \"#utility.yul\":7497:7500   */\n  0x00\n    /* \"#utility.yul\":7518:7523   */\n  dup2\n    /* \"#utility.yul\":7511:7523   */\n  swap1\n  pop\n    /* \"#utility.yul\":7469:7529   */\n  swap2\n  swap1\n  pop\n  jump\t// out\n    /* \"#utility.yul\":7535:7677   */\ntag_46:\n    /* \"#utility.yul\":7585:7594   */\n  0x00\n    /* \"#utility.yul\":7618:7671   */\n  tag_139\n    /* \"#utility.yul\":7636:7670   */\n  tag_140\n    /* \"#utility.yul\":7645:7669   */\n  tag_141\n    /* \"#utility.yul\":7663:7668   */\n  dup5\n    /* \"#utility.yul\":7645:7669   */\n  tag_34\n  jump\t// in\ntag_141:\n    /* \"#utility.yul\":7636:7670   */\n  tag_45\n  jump\t// in\ntag_140:\n    /* \"#utility.yul\":7618:7671   */\n  tag_34\n  jump\t// in\ntag_139:\n    /* \"#utility.yul\":7605:7671   */\n  swap1\n  pop\n    /* \"#utility.yul\":7535:7677   */\n  swap2\n  swap1\n  pop\n  jump\t// out\n    /* \"#utility.yul\":7683:7758   */\ntag_47:\n    /* \"#utility.yul\":7726:7729   */\n  0x00\n    /* \"#utility.yul\":7747:7752   */\n  dup2\n    /* \"#utility.yul\":7740:7752   */\n  swap1\n  pop\n    /* \"#utility.yul\":7683:7758   */\n  swap2\n  swap1\n  pop\n  jump\t// out\n    /* \"#utility.yul\":7764:8033   */\ntag_48:\n    /* \"#utility.yul\":7874:7913   */\n  tag_144\n    /* \"#utility.yul\":7905:7912   */\n  dup4\n    /* \"#utility.yul\":7874:7913   */\n  tag_46\n  jump\t// in\ntag_144:\n    /* \"#utility.yul\":7935:8026   */\n  tag_145\n    /* \"#utility.yul\":7984:8025   */\n  tag_146\n    /* \"#utility.yul\":8008:8024   */\n  dup3\n    /* \"#utility.yul\":7984:8025   */\n  tag_47\n  jump\t// in\ntag_146:\n    /* \"#utility.yul\":7976:7982   */\n  dup5\n    /* \"#utility.yul\":7969:7973   */\n  dup5\n    /* \"#utility.yul\":7963:7974   */\n  sload\n    /* \"#utility.yul\":7935:8026   */\n  tag_44\n  jump\t// in\ntag_145:\n    /* \"#utility.yul\":7929:7933   */\n  dup3\n    /* \"#utility.yul\":7922:8027   */\n  sstore\n    /* \"#utility.yul\":7840:8033   */\n  pop\n    /* \"#utility.yul\":7764:8033   */\n  pop\n  pop\n  pop\n  jump\t// out\n    /* \"#utility.yul\":8039:8112   */\ntag_49:\n    /* \"#utility.yul\":8084:8087   */\n  0x00\n    /* \"#utility.yul\":8105:8106   */\n  0x00\n    /* \"#utility.yul\":8098:8106   */\n  swap1\n  pop\n    /* \"#utility.yul\":8039:8112   */\n  swap1\n  jump\t// out\n    /* \"#utility.yul\":8118:8307   */\ntag_50:\n    /* \"#utility.yul\":8195:8227   */\n  tag_149\n  tag_49\n  jump\t// in\ntag_149:\n    /* \"#utility.yul\":8236:8301   */\n  tag_150\n    /* \"#utility.yul\":8294:8300   */\n  dup2\n    /* \"#utility.yul\":8286:8292   */\n  dup5\n    /* \"#utility.yul\":8280:8284   */\n  dup5\n    /* \"#utility.yul\":8236:8301   */\n  tag_48\n  jump\t// in\ntag_150:\n    /* \"#utility.yul\":8171:8307   */\n  pop\n    /* \"#utility.yul\":8118:8307   */\n  pop\n  pop\n  jump\t// out\n    /* \"#utility.yul\":8313:8499   */\ntag_51:\n    /* \"#utility.yul\":8373:8493   */\ntag_152:\n    /* \"#utility.yul\":8390:8393   */\n  dup2\n    /* \"#utility.yul\":8383:8388   */\n  dup2\n    /* \"#utility.yul\":8380:8394   */\n  lt\n    /* \"#utility.yul\":8373:8493   */\n  iszero\n  tag_154\n  jumpi\n    /* \"#utility.yul\":8444:8483   */\n  tag_155\n    /* \"#utility.yul\":8481:8482   */\n  0x00\n    /* \"#utility.yul\":8474:8479   */\n  dup3\n    /* \"#utility.yul\":8444:8483   */\n  tag_50\n  jump\t// in\ntag_155:\n    /* \"#utility.yul\":8417:8418   */\n  0x01\n    /* \"#utility.yul\":8410:8415   */\n  dup2\n    /* \"#utility.yul\":8406:8419   */\n  add\n    /* \"#utility.yul\":8397:8419   */\n  swap1\n  pop\n    /* \"#utility.yul\":8373:8493   */\n  jump(tag_152)\ntag_154:\n    /* \"#utility.yul\":8313:8499   */\n  pop\n  pop\n  jump\t// out\n    /* \"#utility.yul\":8505:9048   */\ntag_52:\n    /* \"#utility.yul\":8606:8608   */\n  0x1f\n    /* \"#utility.yul\":8601:8604   */\n  dup3\n    /* \"#utility.yul\":8598:8609   */\n  gt\n    /* \"#utility.yul\":8595:9041   */\n  iszero\n  tag_157\n  jumpi\n    /* \"#utility.yul\":8640:8678   */\n  tag_158\n    /* \"#utility.yul\":8672:8677   */\n  dup2\n    /* \"#utility.yul\":8640:8678   */\n  tag_41\n  jump\t// in\ntag_158:\n    /* \"#utility.yul\":8724:8753   */\n  tag_159\n    /* \"#utility.yul\":8742:8752   */\n  dup5\n    /* \"#utility.yul\":8724:8753   */\n  tag_42\n  jump\t// in\ntag_159:\n    /* \"#utility.yul\":8714:8722   */\n  dup2\n    /* \"#utility.yul\":8710:8754   */\n  add\n    /* \"#utility.yul\":8907:8909   */\n  0x20\n    /* \"#utility.yul\":8895:8905   */\n  dup6\n    /* \"#utility.yul\":8892:8910   */\n  lt\n    /* \"#utility.yul\":8889:8938   */\n  iszero\n  tag_160\n  jumpi\n    /* \"#utility.yul\":8928:8936   */\n  dup2\n    /* \"#utility.yul\":8913:8936   */\n  swap1\n  pop\n    /* \"#utility.yul\":8889:8938   */\ntag_160:\n    /* \"#utility.yul\":8951:9031   */\n  tag_161\n    /* \"#utility.yul\":9007:9029   */\n  tag_162\n    /* \"#utility.yul\":9025:9028   */\n  dup6\n    /* \"#utility.yul\":9007:9029   */\n  tag_42\n  jump\t// in\ntag_162:\n    /* \"#utility.yul\":8997:9005   */\n  dup4\n    /* \"#utility.yul\":8993:9030   */\n  add\n    /* \"#utility.yul\":8980:8991   */\n  dup3\n    /* \"#utility.yul\":8951:9031   */\n  tag_51\n  jump\t// in\ntag_161:\n    /* \"#utility.yul\":8610:9041   */\n  pop\n  pop\n    /* \"#utility.yul\":8595:9041   */\ntag_157:\n    /* \"#utility.yul\":8505:9048   */\n  pop\n  pop\n  pop\n  jump\t// out\n    /* \"#utility.yul\":9054:9171   */\ntag_53:\n    /* \"#utility.yul\":9108:9116   */\n  0x00\n    /* \"#utility.yul\":9158:9163   */\n  dup3\n    /* \"#utility.yul\":9152:9156   */\n  dup3\n    /* \"#utility.yul\":9148:9164   */\n  shr\n    /* \"#utility.yul\":9127:9164   */\n  swap1\n  pop\n    /* \"#utility.yul\":9054:9171   */\n  swap3\n  swap2\n  pop\n  pop\n  jump\t// out\n    /* \"#utility.yul\":9177:9346   */\ntag_54:\n    /* \"#utility.yul\":9221:9227   */\n  0x00\n    /* \"#utility.yul\":9254:9305   */\n  tag_165\n    /* \"#utility.yul\":9302:9303   */\n  0x00\n    /* \"#utility.yul\":9298:9304   */\n  not\n    /* \"#utility.yul\":9290:9295   */\n  dup5\n    /* \"#utility.yul\":9287:9288   */\n  0x08\n    /* \"#utility.yul\":9283:9296   */\n  mul\n    /* \"#utility.yul\":9254:9305   */\n  tag_53\n  jump\t// in\ntag_165:\n    /* \"#utility.yul\":9250:9306   */\n  not\n    /* \"#utility.yul\":9335:9339   */\n  dup1\n    /* \"#utility.yul\":9329:9333   */\n  dup4\n    /* \"#utility.yul\":9325:9340   */\n  and\n    /* \"#utility.yul\":9315:9340   */\n  swap2\n  pop\n    /* \"#utility.yul\":9228:9346   */\n  pop\n    /* \"#utility.yul\":9177:9346   */\n  swap3\n  swap2\n  pop\n  pop\n  jump\t// out\n    /* \"#utility.yul\":9351:9646   */\ntag_55:\n    /* \"#utility.yul\":9427:9431   */\n  0x00\n    /* \"#utility.yul\":9573:9602   */\n  tag_167\n    /* \"#utility.yul\":9598:9601   */\n  dup4\n    /* \"#utility.yul\":9592:9596   */\n  dup4\n    /* \"#utility.yul\":9573:9602   */\n  tag_54\n  jump\t// in\ntag_167:\n    /* \"#utility.yul\":9565:9602   */\n  swap2\n  pop\n    /* \"#utility.yul\":9635:9638   */\n  dup3\n    /* \"#utility.yul\":9632:9633   */\n  0x02\n    /* \"#utility.yul\":9628:9639   */\n  mul\n    /* \"#utility.yul\":9622:9626   */\n  dup3\n    /* \"#utility.yul\":9619:9640   */\n  or\n    /* \"#utility.yul\":9611:9640   */\n  swap1\n  pop\n    /* \"#utility.yul\":9351:9646   */\n  swap3\n  swap2\n  pop\n  pop\n  jump\t// out\n    /* \"#utility.yul\":9651:11046   */\ntag_15:\n    /* \"#utility.yul\":9768:9805   */\n  tag_169\n    /* \"#utility.yul\":9801:9804   */\n  dup3\n    /* \"#utility.yul\":9768:9805   */\n  tag_38\n  jump\t// in\ntag_169:\n    /* \"#utility.yul\":9870:9888   */\n  0xffffffffffffffff\n    /* \"#utility.yul\":9862:9868   */\n  dup2\n    /* \"#utility.yul\":9859:9889   */\n  gt\n    /* \"#utility.yul\":9856:9912   */\n  iszero\n  tag_170\n  jumpi\n    /* \"#utility.yul\":9892:9910   */\n  tag_171\n  tag_22\n  jump\t// in\ntag_171:\n    /* \"#utility.yul\":9856:9912   */\ntag_170:\n    /* \"#utility.yul\":9936:9974   */\n  tag_172\n    /* \"#utility.yul\":9968:9972   */\n  dup3\n    /* \"#utility.yul\":9962:9973   */\n  sload\n    /* \"#utility.yul\":9936:9974   */\n  tag_40\n  jump\t// in\ntag_172:\n    /* \"#utility.yul\":10021:10088   */\n  tag_173\n    /* \"#utility.yul\":10081:10087   */\n  dup3\n    /* \"#utility.yul\":10073:10079   */\n  dup3\n    /* \"#utility.yul\":10067:10071   */\n  dup6\n    /* \"#utility.yul\":10021:10088   */\n  tag_52\n  jump\t// in\ntag_173:\n    /* \"#utility.yul\":10115:10116   */\n  0x00\n    /* \"#utility.yul\":10139:10143   */\n  0x20\n    /* \"#utility.yul\":10126:10143   */\n  swap1\n  pop\n    /* \"#utility.yul\":10171:10173   */\n  0x1f\n    /* \"#utility.yul\":10163:10169   */\n  dup4\n    /* \"#utility.yul\":10160:10174   */\n  gt\n    /* \"#utility.yul\":10188:10189   */\n  0x01\n    /* \"#utility.yul\":10183:10801   */\n  dup2\n  eq\n  tag_175\n  jumpi\n    /* \"#utility.yul\":10845:10846   */\n  0x00\n    /* \"#utility.yul\":10862:10868   */\n  dup5\n    /* \"#utility.yul\":10859:10936   */\n  iszero\n  tag_176\n  jumpi\n    /* \"#utility.yul\":10911:10920   */\n  dup3\n    /* \"#utility.yul\":10906:10909   */\n  dup8\n    /* \"#utility.yul\":10902:10921   */\n  add\n    /* \"#utility.yul\":10896:10922   */\n  mload\n    /* \"#utility.yul\":10887:10922   */\n  swap1\n  pop\n    /* \"#utility.yul\":10859:10936   */\ntag_176:\n    /* \"#utility.yul\":10962:11029   */\n  tag_177\n    /* \"#utility.yul\":11022:11028   */\n  dup6\n    /* \"#utility.yul\":11015:11020   */\n  dup3\n    /* \"#utility.yul\":10962:11029   */\n  tag_55\n  jump\t// in\ntag_177:\n    /* \"#utility.yul\":10956:10960   */\n  dup7\n    /* \"#utility.yul\":10949:11030   */\n  sstore\n    /* \"#utility.yul\":10818:11040   */\n  pop\n    /* \"#utility.yul\":10153:11040   */\n  jump(tag_174)\n    /* \"#utility.yul\":10183:10801   */\ntag_175:\n    /* \"#utility.yul\":10235:10239   */\n  0x1f\n    /* \"#utility.yul\":10231:10240   */\n  not\n    /* \"#utility.yul\":10223:10229   */\n  dup5\n    /* \"#utility.yul\":10219:10241   */\n  and\n    /* \"#utility.yul\":10269:10306   */\n  tag_178\n    /* \"#utility.yul\":10301:10305   */\n  dup7\n    /* \"#utility.yul\":10269:10306   */\n  tag_41\n  jump\t// in\ntag_178:\n    /* \"#utility.yul\":10328:10329   */\n  0x00\n    /* \"#utility.yul\":10342:10550   */\ntag_179:\n    /* \"#utility.yul\":10356:10363   */\n  dup3\n    /* \"#utility.yul\":10353:10354   */\n  dup2\n    /* \"#utility.yul\":10350:10364   */\n  lt\n    /* \"#utility.yul\":10342:10550   */\n  iszero\n  tag_181\n  jumpi\n    /* \"#utility.yul\":10435:10444   */\n  dup5\n    /* \"#utility.yul\":10430:10433   */\n  dup10\n    /* \"#utility.yul\":10426:10445   */\n  add\n    /* \"#utility.yul\":10420:10446   */\n  mload\n    /* \"#utility.yul\":10412:10418   */\n  dup3\n    /* \"#utility.yul\":10405:10447   */\n  sstore\n    /* \"#utility.yul\":10486:10487   */\n  0x01\n    /* \"#utility.yul\":10478:10484   */\n  dup3\n    /* \"#utility.yul\":10474:10488   */\n  add\n    /* \"#utility.yul\":10464:10488   */\n  swap2\n  pop\n    /* \"#utility.yul\":10533:10535   */\n  0x20\n    /* \"#utility.yul\":10522:10531   */\n  dup6\n    /* \"#utility.yul\":10518:10536   */\n  add\n    /* \"#utility.yul\":10505:10536   */\n  swap5\n  pop\n    /* \"#utility.yul\":10379:10383   */\n  0x20\n    /* \"#utility.yul\":10376:10377   */\n  dup2\n    /* \"#utility.yul\":10372:10384   */\n  add\n    /* \"#utility.yul\":10367:10384   */\n  swap1\n  pop\n    /* \"#utility.yul\":10342:10550   */\n  jump(tag_179)\ntag_181:\n    /* \"#utility.yul\":10578:10584   */\n  dup7\n    /* \"#utility.yul\":10569:10576   */\n  dup4\n    /* \"#utility.yul\":10566:10585   */\n  lt\n    /* \"#utility.yul\":10563:10742   */\n  iszero\n  tag_182\n  jumpi\n    /* \"#utility.yul\":10636:10645   */\n  dup5\n    /* \"#utility.yul\":10631:10634   */\n  dup10\n    /* \"#utility.yul\":10627:10646   */\n  add\n    /* \"#utility.yul\":10621:10647   */\n  mload\n    /* \"#utility.yul\":10679:10727   */\n  tag_183\n    /* \"#utility.yul\":10721:10725   */\n  0x1f\n    /* \"#utility.yul\":10713:10719   */\n  dup10\n    /* \"#utility.yul\":10709:10726   */\n  and\n    /* \"#utility.yul\":10698:10707   */\n  dup3\n    /* \"#utility.yul\":10679:10727   */\n  tag_54\n  jump\t// in\ntag_183:\n    /* \"#utility.yul\":10671:10677   */\n  dup4\n    /* \"#utility.yul\":10664:10728   */\n  sstore\n    /* \"#utility.yul\":10586:10742   */\n  pop\n    /* \"#utility.yul\":10563:10742   */\ntag_182:\n    /* \"#utility.yul\":10788:10789   */\n  0x01\n    /* \"#utility.yul\":10784:10785   */\n  0x02\n    /* \"#utility.yul\":10776:10782   */\n  dup9\n    /* \"#utility.yul\":10772:10786   */\n  mul\n    /* \"#utility.yul\":10768:10790   */\n  add\n    /* \"#utility.yul\":10762:10766   */\n  dup9\n    /* \"#utility.yul\":10755:10791   */\n  sstore\n    /* \"#utility.yul\":10190:10801   */\n  pop\n  pop\n  pop\n    /* \"#utility.yul\":10153:11040   */\ntag_174:\n  pop\n    /* \"#utility.yul\":9743:11046   */\n  pop\n  pop\n  pop\n    /* \"#utility.yul\":9651:11046   */\n  pop\n  pop\n  jump\t// out\n    /* \"Votacion.sol\":60:6050  contract Votacion {... */\ntag_16:\n  dataSize(sub_0)\n  dup1\n  dataOffset(sub_0)\n  0x00\n  codecopy\n  0x00\n  return\nstop\n\nsub_0: assembly {\n        /* \"Votacion.sol\":60:6050  contract Votacion {... */\n      mstore(0x40, 0x80)\n      callvalue\n      dup1\n      iszero\n      tag_1\n      jumpi\n      revert(0x00, 0x00)\n    tag_1:\n      pop\n      jumpi(tag_2, lt(calldatasize, 0x04))\n      shr(0xe0, calldataload(0x00))\n      dup1\n      0x8f023f85\n      gt\n      tag_13\n      jumpi\n      dup1\n      0x8f023f85\n      eq\n      tag_8\n      jumpi\n      dup1\n      0x9225f3b0\n      eq\n      tag_9\n      jumpi\n      dup1\n      0x9ed1f255\n      eq\n      tag_10\n      jumpi\n      dup1\n      0xa92284d0\n      eq\n      tag_11\n      jumpi\n      dup1\n      0xc3403ddf\n      eq\n      tag_12\n      jumpi\n      jump(tag_2)\n    tag_13:\n      dup1\n      0x0121b93f\n      eq\n      tag_3\n      jumpi\n      dup1\n      0x38db6dd3\n      eq\n      tag_4\n      jumpi\n      dup1\n      0x4717f97c\n      eq\n      tag_5\n      jumpi\n      dup1\n      0x8cff86cc\n      eq\n      tag_6\n      jumpi\n      dup1\n      0x8da5cb5b\n      eq\n      tag_7\n      jumpi\n    tag_2:\n      revert(0x00, 0x00)\n        /* \"Votacion.sol\":2396:3995  function vote(uint _candidateId) public {... */\n    tag_3:\n      tag_14\n      0x04\n      dup1\n      calldatasize\n      sub\n      dup2\n      add\n      swap1\n      tag_15\n      swap2\n      swap1\n      tag_16\n      jump\t// in\n    tag_15:\n      tag_17\n      jump\t// in\n    tag_14:\n      stop\n        /* \"Votacion.sol\":1788:2334  function registerVoter(address _voter) public onlyOwner {... */\n    tag_4:\n      tag_18\n      0x04\n      dup1\n      calldatasize\n      sub\n      dup2\n      add\n      swap1\n      tag_19\n      swap2\n      swap1\n      tag_20\n      jump\t// in\n    tag_19:\n      tag_21\n      jump\t// in\n    tag_18:\n      stop\n        /* \"Votacion.sol\":4295:5300  function getResults() public view returns (... */\n    tag_5:\n      tag_22\n      tag_23\n      jump\t// in\n    tag_22:\n      mload(0x40)\n      tag_24\n      swap4\n      swap3\n      swap2\n      swap1\n      tag_25\n      jump\t// in\n    tag_24:\n      mload(0x40)\n      dup1\n      swap2\n      sub\n      swap1\n      return\n        /* \"Votacion.sol\":807:833  uint public inicioVotacion */\n    tag_6:\n      tag_26\n      tag_27\n      jump\t// in\n    tag_26:\n      mload(0x40)\n      tag_28\n      swap2\n      swap1\n      tag_29\n      jump\t// in\n    tag_28:\n      mload(0x40)\n      dup1\n      swap2\n      sub\n      swap1\n      return\n        /* \"Votacion.sol\":491:511  address public owner */\n    tag_7:\n      tag_30\n      tag_31\n      jump\t// in\n    tag_30:\n      mload(0x40)\n      tag_32\n      swap2\n      swap1\n      tag_33\n      jump\t// in\n    tag_32:\n      mload(0x40)\n      dup1\n      swap2\n      sub\n      swap1\n      return\n        /* \"Votacion.sol\":579:623  mapping(uint => Candidato) public candidatos */\n    tag_8:\n      tag_34\n      0x04\n      dup1\n      calldatasize\n      sub\n      dup2\n      add\n      swap1\n      tag_35\n      swap2\n      swap1\n      tag_16\n      jump\t// in\n    tag_35:\n      tag_36\n      jump\t// in\n    tag_34:\n      mload(0x40)\n      tag_37\n      swap4\n      swap3\n      swap2\n      swap1\n      tag_38\n      jump\t// in\n    tag_37:\n      mload(0x40)\n      dup1\n      swap2\n      sub\n      swap1\n      return\n        /* \"Votacion.sol\":840:863  uint public finVotacion */\n    tag_9:\n      tag_39\n      tag_40\n      jump\t// in\n    tag_39:\n      mload(0x40)\n      tag_41\n      swap2\n      swap1\n      tag_29\n      jump\t// in\n    tag_41:\n      mload(0x40)\n      dup1\n      swap2\n      sub\n      swap1\n      return\n        /* \"Votacion.sol\":5365:5686  function getVoterInfo(address _voter) public view returns (... */\n    tag_10:\n      tag_42\n      0x04\n      dup1\n      calldatasize\n      sub\n      dup2\n      add\n      swap1\n      tag_43\n      swap2\n      swap1\n      tag_20\n      jump\t// in\n    tag_43:\n      tag_44\n      jump\t// in\n    tag_42:\n      mload(0x40)\n      tag_45\n      swap4\n      swap3\n      swap2\n      swap1\n      tag_46\n      jump\t// in\n    tag_45:\n      mload(0x40)\n      dup1\n      swap2\n      sub\n      swap1\n      return\n        /* \"Votacion.sol\":707:750  mapping(address => Votante) public votantes */\n    tag_11:\n      tag_47\n      0x04\n      dup1\n      calldatasize\n      sub\n      dup2\n      add\n      swap1\n      tag_48\n      swap2\n      swap1\n      tag_20\n      jump\t// in\n    tag_48:\n      tag_49\n      jump\t// in\n    tag_47:\n      mload(0x40)\n      tag_50\n      swap4\n      swap3\n      swap2\n      swap1\n      tag_46\n      jump\t// in\n    tag_50:\n      mload(0x40)\n      dup1\n      swap2\n      sub\n      swap1\n      return\n        /* \"Votacion.sol\":5761:6047  function endVoting() public onlyOwner {... */\n    tag_12:\n      tag_51\n      tag_52\n      jump\t// in\n    tag_51:\n      stop\n        /* \"Votacion.sol\":2396:3995  function vote(uint _candidateId) public {... */\n    tag_17:\n        /* \"Votacion.sol\":2583:2597  inicioVotacion */\n      sload(0x03)\n        /* \"Votacion.sol\":2564:2579  block.timestamp */\n      timestamp\n        /* \"Votacion.sol\":2564:2597  block.timestamp >= inicioVotacion */\n      lt\n      iszero\n        /* \"Votacion.sol\":2556:2632  require(block.timestamp >= inicioVotacion, \"La votacion aun no ha iniciado\") */\n      tag_54\n      jumpi\n      mload(0x40)\n      0x08c379a000000000000000000000000000000000000000000000000000000000\n      dup2\n      mstore\n      0x04\n      add\n      tag_55\n      swap1\n      tag_56\n      jump\t// in\n    tag_55:\n      mload(0x40)\n      dup1\n      swap2\n      sub\n      swap1\n      revert\n    tag_54:\n        /* \"Votacion.sol\":2739:2750  finVotacion */\n      sload(0x04)\n        /* \"Votacion.sol\":2720:2735  block.timestamp */\n      timestamp\n        /* \"Votacion.sol\":2720:2750  block.timestamp <= finVotacion */\n      gt\n      iszero\n        /* \"Votacion.sol\":2712:2783  require(block.timestamp <= finVotacion, \"La votacion ya ha finalizado\") */\n      tag_57\n      jumpi\n      mload(0x40)\n      0x08c379a000000000000000000000000000000000000000000000000000000000\n      dup2\n      mstore\n      0x04\n      add\n      tag_58\n      swap1\n      tag_59\n      jump\t// in\n    tag_58:\n      mload(0x40)\n      dup1\n      swap2\n      sub\n      swap1\n      revert\n    tag_57:\n        /* \"Votacion.sol\":2931:2939  votantes */\n      0x02\n        /* \"Votacion.sol\":2931:2951  votantes[msg.sender] */\n      0x00\n        /* \"Votacion.sol\":2940:2950  msg.sender */\n      caller\n        /* \"Votacion.sol\":2931:2951  votantes[msg.sender] */\n      0xffffffffffffffffffffffffffffffffffffffff\n      and\n      0xffffffffffffffffffffffffffffffffffffffff\n      and\n      dup2\n      mstore\n      0x20\n      add\n      swap1\n      dup2\n      mstore\n      0x20\n      add\n      0x00\n      keccak256\n        /* \"Votacion.sol\":2931:2966  votantes[msg.sender].estaRegistrado */\n      0x00\n      add\n      0x00\n      swap1\n      sload\n      swap1\n      0x0100\n      exp\n      swap1\n      div\n      0xff\n      and\n        /* \"Votacion.sol\":2923:3001  require(votantes[msg.sender].estaRegistrado, \"No estas autorizado para votar\") */\n      tag_60\n      jumpi\n      mload(0x40)\n      0x08c379a000000000000000000000000000000000000000000000000000000000\n      dup2\n      mstore\n      0x04\n      add\n      tag_61\n      swap1\n      tag_62\n      jump\t// in\n    tag_61:\n      mload(0x40)\n      dup1\n      swap2\n      sub\n      swap1\n      revert\n    tag_60:\n        /* \"Votacion.sol\":3133:3141  votantes */\n      0x02\n        /* \"Votacion.sol\":3133:3153  votantes[msg.sender] */\n      0x00\n        /* \"Votacion.sol\":3142:3152  msg.sender */\n      caller\n        /* \"Votacion.sol\":3133:3153  votantes[msg.sender] */\n      0xffffffffffffffffffffffffffffffffffffffff\n      and\n      0xffffffffffffffffffffffffffffffffffffffff\n      and\n      dup2\n      mstore\n      0x20\n      add\n      swap1\n      dup2\n      mstore\n      0x20\n      add\n      0x00\n      keccak256\n        /* \"Votacion.sol\":3133:3160  votantes[msg.sender].yaVoto */\n      0x00\n      add\n      0x01\n      swap1\n      sload\n      swap1\n      0x0100\n      exp\n      swap1\n      div\n      0xff\n      and\n        /* \"Votacion.sol\":3132:3160  !votantes[msg.sender].yaVoto */\n      iszero\n        /* \"Votacion.sol\":3124:3187  require(!votantes[msg.sender].yaVoto, \"Ya has emitido tu voto\") */\n      tag_63\n      jumpi\n      mload(0x40)\n      0x08c379a000000000000000000000000000000000000000000000000000000000\n      dup2\n      mstore\n      0x04\n      add\n      tag_64\n      swap1\n      tag_65\n      jump\t// in\n    tag_64:\n      mload(0x40)\n      dup1\n      swap2\n      sub\n      swap1\n      revert\n    tag_63:\n        /* \"Votacion.sol\":3357:3369  _candidateId */\n      dup1\n        /* \"Votacion.sol\":3326:3336  candidatos */\n      0x01\n        /* \"Votacion.sol\":3326:3350  candidatos[_candidateId] */\n      0x00\n        /* \"Votacion.sol\":3337:3349  _candidateId */\n      dup4\n        /* \"Votacion.sol\":3326:3350  candidatos[_candidateId] */\n      dup2\n      mstore\n      0x20\n      add\n      swap1\n      dup2\n      mstore\n      0x20\n      add\n      0x00\n      keccak256\n        /* \"Votacion.sol\":3326:3353  candidatos[_candidateId].id */\n      0x00\n      add\n      sload\n        /* \"Votacion.sol\":3326:3369  candidatos[_candidateId].id == _candidateId */\n      eq\n        /* \"Votacion.sol\":3318:3393  require(candidatos[_candidateId].id == _candidateId, \"Candidato no valido\") */\n      tag_66\n      jumpi\n      mload(0x40)\n      0x08c379a000000000000000000000000000000000000000000000000000000000\n      dup2\n      mstore\n      0x04\n      add\n      tag_67\n      swap1\n      tag_68\n      jump\t// in\n    tag_67:\n      mload(0x40)\n      dup1\n      swap2\n      sub\n      swap1\n      revert\n    tag_66:\n        /* \"Votacion.sol\":3477:3481  true */\n      0x01\n        /* \"Votacion.sol\":3447:3455  votantes */\n      0x02\n        /* \"Votacion.sol\":3447:3467  votantes[msg.sender] */\n      0x00\n        /* \"Votacion.sol\":3456:3466  msg.sender */\n      caller\n        /* \"Votacion.sol\":3447:3467  votantes[msg.sender] */\n      0xffffffffffffffffffffffffffffffffffffffff\n      and\n      0xffffffffffffffffffffffffffffffffffffffff\n      and\n      dup2\n      mstore\n      0x20\n      add\n      swap1\n      dup2\n      mstore\n      0x20\n      add\n      0x00\n      keccak256\n        /* \"Votacion.sol\":3447:3474  votantes[msg.sender].yaVoto */\n      0x00\n      add\n      0x01\n        /* \"Votacion.sol\":3447:3481  votantes[msg.sender].yaVoto = true */\n      0x0100\n      exp\n      dup2\n      sload\n      dup2\n      0xff\n      mul\n      not\n      and\n      swap1\n      dup4\n      iszero\n      iszero\n      mul\n      or\n      swap1\n      sstore\n      pop\n        /* \"Votacion.sol\":3533:3545  _candidateId */\n      dup1\n        /* \"Votacion.sol\":3492:3500  votantes */\n      0x02\n        /* \"Votacion.sol\":3492:3512  votantes[msg.sender] */\n      0x00\n        /* \"Votacion.sol\":3501:3511  msg.sender */\n      caller\n        /* \"Votacion.sol\":3492:3512  votantes[msg.sender] */\n      0xffffffffffffffffffffffffffffffffffffffff\n      and\n      0xffffffffffffffffffffffffffffffffffffffff\n      and\n      dup2\n      mstore\n      0x20\n      add\n      swap1\n      dup2\n      mstore\n      0x20\n      add\n      0x00\n      keccak256\n        /* \"Votacion.sol\":3492:3530  votantes[msg.sender].votoParaCandidato */\n      0x01\n      add\n        /* \"Votacion.sol\":3492:3545  votantes[msg.sender].votoParaCandidato = _candidateId */\n      dup2\n      swap1\n      sstore\n      pop\n        /* \"Votacion.sol\":3598:3599  1 */\n      0x01\n        /* \"Votacion.sol\":3556:3566  candidatos */\n      dup1\n        /* \"Votacion.sol\":3556:3580  candidatos[_candidateId] */\n      0x00\n        /* \"Votacion.sol\":3567:3579  _candidateId */\n      dup4\n        /* \"Votacion.sol\":3556:3580  candidatos[_candidateId] */\n      dup2\n      mstore\n      0x20\n      add\n      swap1\n      dup2\n      mstore\n      0x20\n      add\n      0x00\n      keccak256\n        /* \"Votacion.sol\":3556:3594  candidatos[_candidateId].cantidadVotos */\n      0x02\n      add\n      0x00\n        /* \"Votacion.sol\":3556:3599  candidatos[_candidateId].cantidadVotos += 1 */\n      dup3\n      dup3\n      sload\n      tag_69\n      swap2\n      swap1\n      tag_70\n      jump\t// in\n    tag_69:\n      swap3\n      pop\n      pop\n      dup2\n      swap1\n      sstore\n      pop\n        /* \"Votacion.sol\":3974:3986  _candidateId */\n      dup1\n        /* \"Votacion.sol\":3962:3972  msg.sender */\n      caller\n        /* \"Votacion.sol\":3947:3987  VotoRegistrado(msg.sender, _candidateId) */\n      0xffffffffffffffffffffffffffffffffffffffff\n      and\n      0xac1dcdb899109d4da03ab9144f50cd414560615119d4abd1a5b043365c81c595\n      mload(0x40)\n      mload(0x40)\n      dup1\n      swap2\n      sub\n      swap1\n      log3\n        /* \"Votacion.sol\":2396:3995  function vote(uint _candidateId) public {... */\n      pop\n      jump\t// out\n        /* \"Votacion.sol\":1788:2334  function registerVoter(address _voter) public onlyOwner {... */\n    tag_21:\n        /* \"Votacion.sol\":1003:1008  owner */\n      0x00\n      0x00\n      swap1\n      sload\n      swap1\n      0x0100\n      exp\n      swap1\n      div\n      0xffffffffffffffffffffffffffffffffffffffff\n      and\n        /* \"Votacion.sol\":989:1008  msg.sender == owner */\n      0xffffffffffffffffffffffffffffffffffffffff\n      and\n        /* \"Votacion.sol\":989:999  msg.sender */\n      caller\n        /* \"Votacion.sol\":989:1008  msg.sender == owner */\n      0xffffffffffffffffffffffffffffffffffffffff\n      and\n      eq\n        /* \"Votacion.sol\":981:1051  require(msg.sender == owner, \"Solo el administrador puede hacer esto\") */\n      tag_72\n      jumpi\n      mload(0x40)\n      0x08c379a000000000000000000000000000000000000000000000000000000000\n      dup2\n      mstore\n      0x04\n      add\n      tag_73\n      swap1\n      tag_74\n      jump\t// in\n    tag_73:\n      mload(0x40)\n      dup1\n      swap2\n      sub\n      swap1\n      revert\n    tag_72:\n        /* \"Votacion.sol\":2027:2035  votantes */\n      0x02\n        /* \"Votacion.sol\":2027:2043  votantes[_voter] */\n      0x00\n        /* \"Votacion.sol\":2036:2042  _voter */\n      dup3\n        /* \"Votacion.sol\":2027:2043  votantes[_voter] */\n      0xffffffffffffffffffffffffffffffffffffffff\n      and\n      0xffffffffffffffffffffffffffffffffffffffff\n      and\n      dup2\n      mstore\n      0x20\n      add\n      swap1\n      dup2\n      mstore\n      0x20\n      add\n      0x00\n      keccak256\n        /* \"Votacion.sol\":2027:2058  votantes[_voter].estaRegistrado */\n      0x00\n      add\n      0x00\n      swap1\n      sload\n      swap1\n      0x0100\n      exp\n      swap1\n      div\n      0xff\n      and\n        /* \"Votacion.sol\":2026:2058  !votantes[_voter].estaRegistrado */\n      iszero\n        /* \"Votacion.sol\":2018:2094  require(!votantes[_voter].estaRegistrado, \"Este votante ya esta registrado\") */\n      tag_76\n      jumpi\n      mload(0x40)\n      0x08c379a000000000000000000000000000000000000000000000000000000000\n      dup2\n      mstore\n      0x04\n      add\n      tag_77\n      swap1\n      tag_78\n      jump\t// in\n    tag_77:\n      mload(0x40)\n      dup1\n      swap2\n      sub\n      swap1\n      revert\n    tag_76:\n        /* \"Votacion.sol\":2166:2326  Votante({... */\n      mload(0x40)\n      dup1\n      0x60\n      add\n      0x40\n      mstore\n      dup1\n        /* \"Votacion.sol\":2205:2209  true */\n      0x01\n        /* \"Votacion.sol\":2166:2326  Votante({... */\n      iszero\n      iszero\n      dup2\n      mstore\n      0x20\n      add\n        /* \"Votacion.sol\":2232:2237  false */\n      0x00\n        /* \"Votacion.sol\":2166:2326  Votante({... */\n      iszero\n      iszero\n      dup2\n      mstore\n      0x20\n      add\n        /* \"Votacion.sol\":2271:2276  99999 */\n      0x01869f\n        /* \"Votacion.sol\":2166:2326  Votante({... */\n      dup2\n      mstore\n      pop\n        /* \"Votacion.sol\":2147:2155  votantes */\n      0x02\n        /* \"Votacion.sol\":2147:2163  votantes[_voter] */\n      0x00\n        /* \"Votacion.sol\":2156:2162  _voter */\n      dup4\n        /* \"Votacion.sol\":2147:2163  votantes[_voter] */\n      0xffffffffffffffffffffffffffffffffffffffff\n      and\n      0xffffffffffffffffffffffffffffffffffffffff\n      and\n      dup2\n      mstore\n      0x20\n      add\n      swap1\n      dup2\n      mstore\n      0x20\n      add\n      0x00\n      keccak256\n        /* \"Votacion.sol\":2147:2326  votantes[_voter] = Votante({... */\n      0x00\n      dup3\n      add\n      mload\n      dup2\n      0x00\n      add\n      exp(0x0100, 0x00)\n      dup2\n      sload\n      dup2\n      0xff\n      mul\n      not\n      and\n      swap1\n      dup4\n      iszero\n      iszero\n      mul\n      or\n      swap1\n      sstore\n      pop\n      0x20\n      dup3\n      add\n      mload\n      dup2\n      0x00\n      add\n      exp(0x0100, 0x01)\n      dup2\n      sload\n      dup2\n      0xff\n      mul\n      not\n      and\n      swap1\n      dup4\n      iszero\n      iszero\n      mul\n      or\n      swap1\n      sstore\n      pop\n      0x40\n      dup3\n      add\n      mload\n      dup2\n      0x01\n      add\n      sstore\n      swap1\n      pop\n      pop\n        /* \"Votacion.sol\":1788:2334  function registerVoter(address _voter) public onlyOwner {... */\n      pop\n      jump\t// out\n        /* \"Votacion.sol\":4295:5300  function getResults() public view returns (... */\n    tag_23:\n        /* \"Votacion.sol\":4348:4365  uint[] memory ids */\n      0x60\n        /* \"Votacion.sol\":4376:4399  string[] memory nombres */\n      dup1\n        /* \"Votacion.sol\":4410:4429  uint[] memory votos */\n      0x60\n        /* \"Votacion.sol\":4491:4514  uint cantidadCandidatos */\n      0x00\n        /* \"Votacion.sol\":4517:4518  0 */\n      0x00\n        /* \"Votacion.sol\":4491:4518  uint cantidadCandidatos = 0 */\n      swap1\n      pop\n        /* \"Votacion.sol\":4587:4593  uint i */\n      0x00\n        /* \"Votacion.sol\":4596:4597  0 */\n      0x00\n        /* \"Votacion.sol\":4587:4597  uint i = 0 */\n      swap1\n      pop\n        /* \"Votacion.sol\":4582:4767  for (uint i = 0; i < 100; i++) {... */\n    tag_80:\n        /* \"Votacion.sol\":4603:4606  100 */\n      0x64\n        /* \"Votacion.sol\":4599:4600  i */\n      dup2\n        /* \"Votacion.sol\":4599:4606  i < 100 */\n      lt\n        /* \"Votacion.sol\":4582:4767  for (uint i = 0; i < 100; i++) {... */\n      iszero\n      tag_81\n      jumpi\n        /* \"Votacion.sol\":4652:4653  i */\n      dup1\n        /* \"Votacion.sol\":4632:4642  candidatos */\n      0x01\n        /* \"Votacion.sol\":4632:4645  candidatos[i] */\n      0x00\n        /* \"Votacion.sol\":4643:4644  i */\n      dup4\n        /* \"Votacion.sol\":4632:4645  candidatos[i] */\n      dup2\n      mstore\n      0x20\n      add\n      swap1\n      dup2\n      mstore\n      0x20\n      add\n      0x00\n      keccak256\n        /* \"Votacion.sol\":4632:4648  candidatos[i].id */\n      0x00\n      add\n      sload\n        /* \"Votacion.sol\":4632:4653  candidatos[i].id == i */\n      sub\n        /* \"Votacion.sol\":4628:4756  if (candidatos[i].id == i) {... */\n      tag_83\n      jumpi\n        /* \"Votacion.sol\":4674:4694  cantidadCandidatos++ */\n      dup2\n      dup1\n      tag_84\n      swap1\n      tag_85\n      jump\t// in\n    tag_84:\n      swap3\n      pop\n      pop\n        /* \"Votacion.sol\":4628:4756  if (candidatos[i].id == i) {... */\n      jump(tag_86)\n    tag_83:\n        /* \"Votacion.sol\":4735:4740  break */\n      jump(tag_81)\n        /* \"Votacion.sol\":4628:4756  if (candidatos[i].id == i) {... */\n    tag_86:\n        /* \"Votacion.sol\":4608:4611  i++ */\n      dup1\n      dup1\n      0x01\n      add\n      swap2\n      pop\n      pop\n        /* \"Votacion.sol\":4582:4767  for (uint i = 0; i < 100; i++) {... */\n      jump(tag_80)\n    tag_81:\n      pop\n        /* \"Votacion.sol\":4853:4871  cantidadCandidatos */\n      dup1\n        /* \"Votacion.sol\":4842:4872  new uint[](cantidadCandidatos) */\n      0xffffffffffffffff\n      dup2\n      gt\n      iszero\n      tag_87\n      jumpi\n      tag_88\n      tag_89\n      jump\t// in\n    tag_88:\n    tag_87:\n      mload(0x40)\n      swap1\n      dup1\n      dup3\n      mstore\n      dup1\n      0x20\n      mul\n      0x20\n      add\n      dup3\n      add\n      0x40\n      mstore\n      dup1\n      iszero\n      tag_90\n      jumpi\n      dup2\n      0x20\n      add\n      0x20\n      dup3\n      mul\n      dup1\n      calldatasize\n      dup4\n      calldatacopy\n      dup1\n      dup3\n      add\n      swap2\n      pop\n      pop\n      swap1\n      pop\n    tag_90:\n      pop\n        /* \"Votacion.sol\":4836:4872  ids = new uint[](cantidadCandidatos) */\n      swap4\n      pop\n        /* \"Votacion.sol\":4906:4924  cantidadCandidatos */\n      dup1\n        /* \"Votacion.sol\":4893:4925  new string[](cantidadCandidatos) */\n      0xffffffffffffffff\n      dup2\n      gt\n      iszero\n      tag_91\n      jumpi\n      tag_92\n      tag_89\n      jump\t// in\n    tag_92:\n    tag_91:\n      mload(0x40)\n      swap1\n      dup1\n      dup3\n      mstore\n      dup1\n      0x20\n      mul\n      0x20\n      add\n      dup3\n      add\n      0x40\n      mstore\n      dup1\n      iszero\n      tag_93\n      jumpi\n      dup2\n      0x20\n      add\n    tag_94:\n      0x60\n      dup2\n      mstore\n      0x20\n      add\n      swap1\n      0x01\n      swap1\n      sub\n      swap1\n      dup2\n      tag_94\n      jumpi\n      swap1\n      pop\n    tag_93:\n      pop\n        /* \"Votacion.sol\":4883:4925  nombres = new string[](cantidadCandidatos) */\n      swap3\n      pop\n        /* \"Votacion.sol\":4955:4973  cantidadCandidatos */\n      dup1\n        /* \"Votacion.sol\":4944:4974  new uint[](cantidadCandidatos) */\n      0xffffffffffffffff\n      dup2\n      gt\n      iszero\n      tag_95\n      jumpi\n      tag_96\n      tag_89\n      jump\t// in\n    tag_96:\n    tag_95:\n      mload(0x40)\n      swap1\n      dup1\n      dup3\n      mstore\n      dup1\n      0x20\n      mul\n      0x20\n      add\n      dup3\n      add\n      0x40\n      mstore\n      dup1\n      iszero\n      tag_97\n      jumpi\n      dup2\n      0x20\n      add\n      0x20\n      dup3\n      mul\n      dup1\n      calldatasize\n      dup4\n      calldatacopy\n      dup1\n      dup3\n      add\n      swap2\n      pop\n      pop\n      swap1\n      pop\n    tag_97:\n      pop\n        /* \"Votacion.sol\":4936:4974  votos = new uint[](cantidadCandidatos) */\n      swap2\n      pop\n        /* \"Votacion.sol\":5050:5056  uint i */\n      0x00\n        /* \"Votacion.sol\":5059:5060  0 */\n      0x00\n        /* \"Votacion.sol\":5050:5060  uint i = 0 */\n      swap1\n      pop\n        /* \"Votacion.sol\":5045:5244  for (uint i = 0; i < cantidadCandidatos; i++) {... */\n    tag_98:\n        /* \"Votacion.sol\":5066:5084  cantidadCandidatos */\n      dup2\n        /* \"Votacion.sol\":5062:5063  i */\n      dup2\n        /* \"Votacion.sol\":5062:5084  i < cantidadCandidatos */\n      lt\n        /* \"Votacion.sol\":5045:5244  for (uint i = 0; i < cantidadCandidatos; i++) {... */\n      iszero\n      tag_99\n      jumpi\n        /* \"Votacion.sol\":5115:5125  candidatos */\n      0x01\n        /* \"Votacion.sol\":5115:5128  candidatos[i] */\n      0x00\n        /* \"Votacion.sol\":5126:5127  i */\n      dup3\n        /* \"Votacion.sol\":5115:5128  candidatos[i] */\n      dup2\n      mstore\n      0x20\n      add\n      swap1\n      dup2\n      mstore\n      0x20\n      add\n      0x00\n      keccak256\n        /* \"Votacion.sol\":5115:5131  candidatos[i].id */\n      0x00\n      add\n      sload\n        /* \"Votacion.sol\":5106:5109  ids */\n      dup6\n        /* \"Votacion.sol\":5110:5111  i */\n      dup3\n        /* \"Votacion.sol\":5106:5112  ids[i] */\n      dup2\n      mload\n      dup2\n      lt\n      tag_101\n      jumpi\n      tag_102\n      tag_103\n      jump\t// in\n    tag_102:\n    tag_101:\n      0x20\n      mul\n      0x20\n      add\n      add\n        /* \"Votacion.sol\":5106:5131  ids[i] = candidatos[i].id */\n      dup2\n      dup2\n      mstore\n      pop\n      pop\n        /* \"Votacion.sol\":5159:5169  candidatos */\n      0x01\n        /* \"Votacion.sol\":5159:5172  candidatos[i] */\n      0x00\n        /* \"Votacion.sol\":5170:5171  i */\n      dup3\n        /* \"Votacion.sol\":5159:5172  candidatos[i] */\n      dup2\n      mstore\n      0x20\n      add\n      swap1\n      dup2\n      mstore\n      0x20\n      add\n      0x00\n      keccak256\n        /* \"Votacion.sol\":5159:5179  candidatos[i].nombre */\n      0x01\n      add\n        /* \"Votacion.sol\":5146:5179  nombres[i] = candidatos[i].nombre */\n      dup1\n      sload\n      tag_104\n      swap1\n      tag_105\n      jump\t// in\n    tag_104:\n      dup1\n      0x1f\n      add\n      0x20\n      dup1\n      swap2\n      div\n      mul\n      0x20\n      add\n      mload(0x40)\n      swap1\n      dup2\n      add\n      0x40\n      mstore\n      dup1\n      swap3\n      swap2\n      swap1\n      dup2\n      dup2\n      mstore\n      0x20\n      add\n      dup3\n      dup1\n      sload\n      tag_106\n      swap1\n      tag_105\n      jump\t// in\n    tag_106:\n      dup1\n      iszero\n      tag_107\n      jumpi\n      dup1\n      0x1f\n      lt\n      tag_108\n      jumpi\n      0x0100\n      dup1\n      dup4\n      sload\n      div\n      mul\n      dup4\n      mstore\n      swap2\n      0x20\n      add\n      swap2\n      jump(tag_107)\n    tag_108:\n      dup3\n      add\n      swap2\n      swap1\n      0x00\n      mstore\n      keccak256(0x00, 0x20)\n      swap1\n    tag_109:\n      dup2\n      sload\n      dup2\n      mstore\n      swap1\n      0x01\n      add\n      swap1\n      0x20\n      add\n      dup1\n      dup4\n      gt\n      tag_109\n      jumpi\n      dup3\n      swap1\n      sub\n      0x1f\n      and\n      dup3\n      add\n      swap2\n    tag_107:\n      pop\n      pop\n      pop\n      pop\n      pop\n        /* \"Votacion.sol\":5146:5153  nombres */\n      dup5\n        /* \"Votacion.sol\":5154:5155  i */\n      dup3\n        /* \"Votacion.sol\":5146:5156  nombres[i] */\n      dup2\n      mload\n      dup2\n      lt\n      tag_110\n      jumpi\n      tag_111\n      tag_103\n      jump\t// in\n    tag_111:\n    tag_110:\n      0x20\n      mul\n      0x20\n      add\n      add\n        /* \"Votacion.sol\":5146:5179  nombres[i] = candidatos[i].nombre */\n      dup2\n      swap1\n      mstore\n      pop\n        /* \"Votacion.sol\":5205:5215  candidatos */\n      0x01\n        /* \"Votacion.sol\":5205:5218  candidatos[i] */\n      0x00\n        /* \"Votacion.sol\":5216:5217  i */\n      dup3\n        /* \"Votacion.sol\":5205:5218  candidatos[i] */\n      dup2\n      mstore\n      0x20\n      add\n      swap1\n      dup2\n      mstore\n      0x20\n      add\n      0x00\n      keccak256\n        /* \"Votacion.sol\":5205:5232  candidatos[i].cantidadVotos */\n      0x02\n      add\n      sload\n        /* \"Votacion.sol\":5194:5199  votos */\n      dup4\n        /* \"Votacion.sol\":5200:5201  i */\n      dup3\n        /* \"Votacion.sol\":5194:5202  votos[i] */\n      dup2\n      mload\n      dup2\n      lt\n      tag_112\n      jumpi\n      tag_113\n      tag_103\n      jump\t// in\n    tag_113:\n    tag_112:\n      0x20\n      mul\n      0x20\n      add\n      add\n        /* \"Votacion.sol\":5194:5232  votos[i] = candidatos[i].cantidadVotos */\n      dup2\n      dup2\n      mstore\n      pop\n      pop\n        /* \"Votacion.sol\":5086:5089  i++ */\n      dup1\n      dup1\n      0x01\n      add\n      swap2\n      pop\n      pop\n        /* \"Votacion.sol\":5045:5244  for (uint i = 0; i < cantidadCandidatos; i++) {... */\n      jump(tag_98)\n    tag_99:\n      pop\n        /* \"Votacion.sol\":5264:5292  return (ids, nombres, votos) */\n      pop\n        /* \"Votacion.sol\":4295:5300  function getResults() public view returns (... */\n      swap1\n      swap2\n      swap3\n      jump\t// out\n        /* \"Votacion.sol\":807:833  uint public inicioVotacion */\n    tag_27:\n      sload(0x03)\n      dup2\n      jump\t// out\n        /* \"Votacion.sol\":491:511  address public owner */\n    tag_31:\n      0x00\n      0x00\n      swap1\n      sload\n      swap1\n      0x0100\n      exp\n      swap1\n      div\n      0xffffffffffffffffffffffffffffffffffffffff\n      and\n      dup2\n      jump\t// out\n        /* \"Votacion.sol\":579:623  mapping(uint => Candidato) public candidatos */\n    tag_36:\n      mstore(0x20, 0x01)\n      dup1\n      0x00\n      mstore\n      keccak256(0x00, 0x40)\n      0x00\n      swap2\n      pop\n      swap1\n      pop\n      dup1\n      0x00\n      add\n      sload\n      swap1\n      dup1\n      0x01\n      add\n      dup1\n      sload\n      tag_114\n      swap1\n      tag_105\n      jump\t// in\n    tag_114:\n      dup1\n      0x1f\n      add\n      0x20\n      dup1\n      swap2\n      div\n      mul\n      0x20\n      add\n      mload(0x40)\n      swap1\n      dup2\n      add\n      0x40\n      mstore\n      dup1\n      swap3\n      swap2\n      swap1\n      dup2\n      dup2\n      mstore\n      0x20\n      add\n      dup3\n      dup1\n      sload\n      tag_115\n      swap1\n      tag_105\n      jump\t// in\n    tag_115:\n      dup1\n      iszero\n      tag_116\n      jumpi\n      dup1\n      0x1f\n      lt\n      tag_117\n      jumpi\n      0x0100\n      dup1\n      dup4\n      sload\n      div\n      mul\n      dup4\n      mstore\n      swap2\n      0x20\n      add\n      swap2\n      jump(tag_116)\n    tag_117:\n      dup3\n      add\n      swap2\n      swap1\n      0x00\n      mstore\n      keccak256(0x00, 0x20)\n      swap1\n    tag_118:\n      dup2\n      sload\n      dup2\n      mstore\n      swap1\n      0x01\n      add\n      swap1\n      0x20\n      add\n      dup1\n      dup4\n      gt\n      tag_118\n      jumpi\n      dup3\n      swap1\n      sub\n      0x1f\n      and\n      dup3\n      add\n      swap2\n    tag_116:\n      pop\n      pop\n      pop\n      pop\n      pop\n      swap1\n      dup1\n      0x02\n      add\n      sload\n      swap1\n      pop\n      dup4\n      jump\t// out\n        /* \"Votacion.sol\":840:863  uint public finVotacion */\n    tag_40:\n      sload(0x04)\n      dup2\n      jump\t// out\n        /* \"Votacion.sol\":5365:5686  function getVoterInfo(address _voter) public view returns (... */\n    tag_44:\n        /* \"Votacion.sol\":5434:5453  bool estaRegistrado */\n      0x00\n        /* \"Votacion.sol\":5464:5475  bool yaVoto */\n      0x00\n        /* \"Votacion.sol\":5486:5508  uint votoParaCandidato */\n      0x00\n        /* \"Votacion.sol\":5549:5557  votantes */\n      0x02\n        /* \"Votacion.sol\":5549:5565  votantes[_voter] */\n      0x00\n        /* \"Votacion.sol\":5558:5564  _voter */\n      dup6\n        /* \"Votacion.sol\":5549:5565  votantes[_voter] */\n      0xffffffffffffffffffffffffffffffffffffffff\n      and\n      0xffffffffffffffffffffffffffffffffffffffff\n      and\n      dup2\n      mstore\n      0x20\n      add\n      swap1\n      dup2\n      mstore\n      0x20\n      add\n      0x00\n      keccak256\n        /* \"Votacion.sol\":5549:5580  votantes[_voter].estaRegistrado */\n      0x00\n      add\n      0x00\n      swap1\n      sload\n      swap1\n      0x0100\n      exp\n      swap1\n      div\n      0xff\n      and\n        /* \"Votacion.sol\":5595:5603  votantes */\n      0x02\n        /* \"Votacion.sol\":5595:5611  votantes[_voter] */\n      0x00\n        /* \"Votacion.sol\":5604:5610  _voter */\n      dup7\n        /* \"Votacion.sol\":5595:5611  votantes[_voter] */\n      0xffffffffffffffffffffffffffffffffffffffff\n      and\n      0xffffffffffffffffffffffffffffffffffffffff\n      and\n      dup2\n      mstore\n      0x20\n      add\n      swap1\n      dup2\n      mstore\n      0x20\n      add\n      0x00\n      keccak256\n        /* \"Votacion.sol\":5595:5618  votantes[_voter].yaVoto */\n      0x00\n      add\n      0x01\n      swap1\n      sload\n      swap1\n      0x0100\n      exp\n      swap1\n      div\n      0xff\n      and\n        /* \"Votacion.sol\":5633:5641  votantes */\n      0x02\n        /* \"Votacion.sol\":5633:5649  votantes[_voter] */\n      0x00\n        /* \"Votacion.sol\":5642:5648  _voter */\n      dup8\n        /* \"Votacion.sol\":5633:5649  votantes[_voter] */\n      0xffffffffffffffffffffffffffffffffffffffff\n      and\n      0xffffffffffffffffffffffffffffffffffffffff\n      and\n      dup2\n      mstore\n      0x20\n      add\n      swap1\n      dup2\n      mstore\n      0x20\n      add\n      0x00\n      keccak256\n        /* \"Votacion.sol\":5633:5667  votantes[_voter].votoParaCandidato */\n      0x01\n      add\n      sload\n        /* \"Votacion.sol\":5527:5678  return (... */\n      swap3\n      pop\n      swap3\n      pop\n      swap3\n      pop\n        /* \"Votacion.sol\":5365:5686  function getVoterInfo(address _voter) public view returns (... */\n      swap2\n      swap4\n      swap1\n      swap3\n      pop\n      jump\t// out\n        /* \"Votacion.sol\":707:750  mapping(address => Votante) public votantes */\n    tag_49:\n      mstore(0x20, 0x02)\n      dup1\n      0x00\n      mstore\n      keccak256(0x00, 0x40)\n      0x00\n      swap2\n      pop\n      swap1\n      pop\n      dup1\n      0x00\n      add\n      0x00\n      swap1\n      sload\n      swap1\n      0x0100\n      exp\n      swap1\n      div\n      0xff\n      and\n      swap1\n      dup1\n      0x00\n      add\n      0x01\n      swap1\n      sload\n      swap1\n      0x0100\n      exp\n      swap1\n      div\n      0xff\n      and\n      swap1\n      dup1\n      0x01\n      add\n      sload\n      swap1\n      pop\n      dup4\n      jump\t// out\n        /* \"Votacion.sol\":5761:6047  function endVoting() public onlyOwner {... */\n    tag_52:\n        /* \"Votacion.sol\":1003:1008  owner */\n      0x00\n      0x00\n      swap1\n      sload\n      swap1\n      0x0100\n      exp\n      swap1\n      div\n      0xffffffffffffffffffffffffffffffffffffffff\n      and\n        /* \"Votacion.sol\":989:1008  msg.sender == owner */\n      0xffffffffffffffffffffffffffffffffffffffff\n      and\n        /* \"Votacion.sol\":989:999  msg.sender */\n      caller\n        /* \"Votacion.sol\":989:1008  msg.sender == owner */\n      0xffffffffffffffffffffffffffffffffffffffff\n      and\n      eq\n        /* \"Votacion.sol\":981:1051  require(msg.sender == owner, \"Solo el administrador puede hacer esto\") */\n      tag_121\n      jumpi\n      mload(0x40)\n      0x08c379a000000000000000000000000000000000000000000000000000000000\n      dup2\n      mstore\n      0x04\n      add\n      tag_122\n      swap1\n      tag_74\n      jump\t// in\n    tag_122:\n      mload(0x40)\n      dup1\n      swap2\n      sub\n      swap1\n      revert\n    tag_121:\n        /* \"Votacion.sol\":5836:5847  finVotacion */\n      sload(0x04)\n        /* \"Votacion.sol\":5818:5833  block.timestamp */\n      timestamp\n        /* \"Votacion.sol\":5818:5847  block.timestamp < finVotacion */\n      lt\n        /* \"Votacion.sol\":5810:5874  require(block.timestamp < finVotacion, \"La votacion ya termino\") */\n      tag_124\n      jumpi\n      mload(0x40)\n      0x08c379a000000000000000000000000000000000000000000000000000000000\n      dup2\n      mstore\n      0x04\n      add\n      tag_125\n      swap1\n      tag_126\n      jump\t// in\n    tag_125:\n      mload(0x40)\n      dup1\n      swap2\n      sub\n      swap1\n      revert\n    tag_124:\n        /* \"Votacion.sol\":5909:5924  block.timestamp */\n      timestamp\n        /* \"Votacion.sol\":5895:5906  finVotacion */\n      0x04\n        /* \"Votacion.sol\":5895:5924  finVotacion = block.timestamp */\n      dup2\n      swap1\n      sstore\n      pop\n        /* \"Votacion.sol\":5970:6039  VotacionFinalizada(\"Finalizada anticipadamente por el administrador\") */\n      0xbabe3b8da6535f2cd9f87c37dbce6ddc53fd35264b8c32502c6a560ba2e459bf\n      mload(0x40)\n      tag_127\n      swap1\n      tag_128\n      jump\t// in\n    tag_127:\n      mload(0x40)\n      dup1\n      swap2\n      sub\n      swap1\n      log1\n        /* \"Votacion.sol\":5761:6047  function endVoting() public onlyOwner {... */\n      jump\t// out\n        /* \"#utility.yul\":88:205   */\n    tag_130:\n        /* \"#utility.yul\":197:198   */\n      0x00\n        /* \"#utility.yul\":194:195   */\n      0x00\n        /* \"#utility.yul\":187:199   */\n      revert\n        /* \"#utility.yul\":334:411   */\n    tag_132:\n        /* \"#utility.yul\":371:378   */\n      0x00\n        /* \"#utility.yul\":400:405   */\n      dup2\n        /* \"#utility.yul\":389:405   */\n      swap1\n      pop\n        /* \"#utility.yul\":334:411   */\n      swap2\n      swap1\n      pop\n      jump\t// out\n        /* \"#utility.yul\":417:539   */\n    tag_133:\n        /* \"#utility.yul\":490:514   */\n      tag_189\n        /* \"#utility.yul\":508:513   */\n      dup2\n        /* \"#utility.yul\":490:514   */\n      tag_132\n      jump\t// in\n    tag_189:\n        /* \"#utility.yul\":483:488   */\n      dup2\n        /* \"#utility.yul\":480:515   */\n      eq\n        /* \"#utility.yul\":470:533   */\n      tag_190\n      jumpi\n        /* \"#utility.yul\":529:530   */\n      0x00\n        /* \"#utility.yul\":526:527   */\n      0x00\n        /* \"#utility.yul\":519:531   */\n      revert\n        /* \"#utility.yul\":470:533   */\n    tag_190:\n        /* \"#utility.yul\":417:539   */\n      pop\n      jump\t// out\n        /* \"#utility.yul\":545:684   */\n    tag_134:\n        /* \"#utility.yul\":591:596   */\n      0x00\n        /* \"#utility.yul\":629:635   */\n      dup2\n        /* \"#utility.yul\":616:636   */\n      calldataload\n        /* \"#utility.yul\":607:636   */\n      swap1\n      pop\n        /* \"#utility.yul\":645:678   */\n      tag_192\n        /* \"#utility.yul\":672:677   */\n      dup2\n        /* \"#utility.yul\":645:678   */\n      tag_133\n      jump\t// in\n    tag_192:\n        /* \"#utility.yul\":545:684   */\n      swap3\n      swap2\n      pop\n      pop\n      jump\t// out\n        /* \"#utility.yul\":690:1019   */\n    tag_16:\n        /* \"#utility.yul\":749:755   */\n      0x00\n        /* \"#utility.yul\":798:800   */\n      0x20\n        /* \"#utility.yul\":786:795   */\n      dup3\n        /* \"#utility.yul\":777:784   */\n      dup5\n        /* \"#utility.yul\":773:796   */\n      sub\n        /* \"#utility.yul\":769:801   */\n      slt\n        /* \"#utility.yul\":766:885   */\n      iszero\n      tag_194\n      jumpi\n        /* \"#utility.yul\":804:883   */\n      tag_195\n      tag_130\n      jump\t// in\n    tag_195:\n        /* \"#utility.yul\":766:885   */\n    tag_194:\n        /* \"#utility.yul\":924:925   */\n      0x00\n        /* \"#utility.yul\":949:1002   */\n      tag_196\n        /* \"#utility.yul\":994:1001   */\n      dup5\n        /* \"#utility.yul\":985:991   */\n      dup3\n        /* \"#utility.yul\":974:983   */\n      dup6\n        /* \"#utility.yul\":970:992   */\n      add\n        /* \"#utility.yul\":949:1002   */\n      tag_134\n      jump\t// in\n    tag_196:\n        /* \"#utility.yul\":939:1002   */\n      swap2\n      pop\n        /* \"#utility.yul\":895:1012   */\n      pop\n        /* \"#utility.yul\":690:1019   */\n      swap3\n      swap2\n      pop\n      pop\n      jump\t// out\n        /* \"#utility.yul\":1025:1151   */\n    tag_135:\n        /* \"#utility.yul\":1062:1069   */\n      0x00\n        /* \"#utility.yul\":1102:1144   */\n      0xffffffffffffffffffffffffffffffffffffffff\n        /* \"#utility.yul\":1095:1100   */\n      dup3\n        /* \"#utility.yul\":1091:1145   */\n      and\n        /* \"#utility.yul\":1080:1145   */\n      swap1\n      pop\n        /* \"#utility.yul\":1025:1151   */\n      swap2\n      swap1\n      pop\n      jump\t// out\n        /* \"#utility.yul\":1157:1253   */\n    tag_136:\n        /* \"#utility.yul\":1194:1201   */\n      0x00\n        /* \"#utility.yul\":1223:1247   */\n      tag_199\n        /* \"#utility.yul\":1241:1246   */\n      dup3\n        /* \"#utility.yul\":1223:1247   */\n      tag_135\n      jump\t// in\n    tag_199:\n        /* \"#utility.yul\":1212:1247   */\n      swap1\n      pop\n        /* \"#utility.yul\":1157:1253   */\n      swap2\n      swap1\n      pop\n      jump\t// out\n        /* \"#utility.yul\":1259:1381   */\n    tag_137:\n        /* \"#utility.yul\":1332:1356   */\n      tag_201\n        /* \"#utility.yul\":1350:1355   */\n      dup2\n        /* \"#utility.yul\":1332:1356   */\n      tag_136\n      jump\t// in\n    tag_201:\n        /* \"#utility.yul\":1325:1330   */\n      dup2\n        /* \"#utility.yul\":1322:1357   */\n      eq\n        /* \"#utility.yul\":1312:1375   */\n      tag_202\n      jumpi\n        /* \"#utility.yul\":1371:1372   */\n      0x00\n        /* \"#utility.yul\":1368:1369   */\n      0x00\n        /* \"#utility.yul\":1361:1373   */\n      revert\n        /* \"#utility.yul\":1312:1375   */\n    tag_202:\n        /* \"#utility.yul\":1259:1381   */\n      pop\n      jump\t// out\n        /* \"#utility.yul\":1387:1526   */\n    tag_138:\n        /* \"#utility.yul\":1433:1438   */\n      0x00\n        /* \"#utility.yul\":1471:1477   */\n      dup2\n        /* \"#utility.yul\":1458:1478   */\n      calldataload\n        /* \"#utility.yul\":1449:1478   */\n      swap1\n      pop\n        /* \"#utility.yul\":1487:1520   */\n      tag_204\n        /* \"#utility.yul\":1514:1519   */\n      dup2\n        /* \"#utility.yul\":1487:1520   */\n      tag_137\n      jump\t// in\n    tag_204:\n        /* \"#utility.yul\":1387:1526   */\n      swap3\n      swap2\n      pop\n      pop\n      jump\t// out\n        /* \"#utility.yul\":1532:1861   */\n    tag_20:\n        /* \"#utility.yul\":1591:1597   */\n      0x00\n        /* \"#utility.yul\":1640:1642   */\n      0x20\n        /* \"#utility.yul\":1628:1637   */\n      dup3\n        /* \"#utility.yul\":1619:1626   */\n      dup5\n        /* \"#utility.yul\":1615:1638   */\n      sub\n        /* \"#utility.yul\":1611:1643   */\n      slt\n        /* \"#utility.yul\":1608:1727   */\n      iszero\n      tag_206\n      jumpi\n        /* \"#utility.yul\":1646:1725   */\n      tag_207\n      tag_130\n      jump\t// in\n    tag_207:\n        /* \"#utility.yul\":1608:1727   */\n    tag_206:\n        /* \"#utility.yul\":1766:1767   */\n      0x00\n        /* \"#utility.yul\":1791:1844   */\n      tag_208\n        /* \"#utility.yul\":1836:1843   */\n      dup5\n        /* \"#utility.yul\":1827:1833   */\n      dup3\n        /* \"#utility.yul\":1816:1825   */\n      dup6\n        /* \"#utility.yul\":1812:1834   */\n      add\n        /* \"#utility.yul\":1791:1844   */\n      tag_138\n      jump\t// in\n    tag_208:\n        /* \"#utility.yul\":1781:1844   */\n      swap2\n      pop\n        /* \"#utility.yul\":1737:1854   */\n      pop\n        /* \"#utility.yul\":1532:1861   */\n      swap3\n      swap2\n      pop\n      pop\n      jump\t// out\n        /* \"#utility.yul\":1867:1981   */\n    tag_139:\n        /* \"#utility.yul\":1934:1940   */\n      0x00\n        /* \"#utility.yul\":1968:1973   */\n      dup2\n        /* \"#utility.yul\":1962:1974   */\n      mload\n        /* \"#utility.yul\":1952:1974   */\n      swap1\n      pop\n        /* \"#utility.yul\":1867:1981   */\n      swap2\n      swap1\n      pop\n      jump\t// out\n        /* \"#utility.yul\":1987:2171   */\n    tag_140:\n        /* \"#utility.yul\":2086:2097   */\n      0x00\n        /* \"#utility.yul\":2120:2126   */\n      dup3\n        /* \"#utility.yul\":2115:2118   */\n      dup3\n        /* \"#utility.yul\":2108:2127   */\n      mstore\n        /* \"#utility.yul\":2160:2164   */\n      0x20\n        /* \"#utility.yul\":2155:2158   */\n      dup3\n        /* \"#utility.yul\":2151:2165   */\n      add\n        /* \"#utility.yul\":2136:2165   */\n      swap1\n      pop\n        /* \"#utility.yul\":1987:2171   */\n      swap3\n      swap2\n      pop\n      pop\n      jump\t// out\n        /* \"#utility.yul\":2177:2309   */\n    tag_141:\n        /* \"#utility.yul\":2244:2248   */\n      0x00\n        /* \"#utility.yul\":2267:2270   */\n      dup2\n        /* \"#utility.yul\":2259:2270   */\n      swap1\n      pop\n        /* \"#utility.yul\":2297:2301   */\n      0x20\n        /* \"#utility.yul\":2292:2295   */\n      dup3\n        /* \"#utility.yul\":2288:2302   */\n      add\n        /* \"#utility.yul\":2280:2302   */\n      swap1\n      pop\n        /* \"#utility.yul\":2177:2309   */\n      swap2\n      swap1\n      pop\n      jump\t// out\n        /* \"#utility.yul\":2315:2423   */\n    tag_142:\n        /* \"#utility.yul\":2392:2416   */\n      tag_213\n        /* \"#utility.yul\":2410:2415   */\n      dup2\n        /* \"#utility.yul\":2392:2416   */\n      tag_132\n      jump\t// in\n    tag_213:\n        /* \"#utility.yul\":2387:2390   */\n      dup3\n        /* \"#utility.yul\":2380:2417   */\n      mstore\n        /* \"#utility.yul\":2315:2423   */\n      pop\n      pop\n      jump\t// out\n        /* \"#utility.yul\":2429:2608   */\n    tag_143:\n        /* \"#utility.yul\":2498:2508   */\n      0x00\n        /* \"#utility.yul\":2519:2565   */\n      tag_215\n        /* \"#utility.yul\":2561:2564   */\n      dup4\n        /* \"#utility.yul\":2553:2559   */\n      dup4\n        /* \"#utility.yul\":2519:2565   */\n      tag_142\n      jump\t// in\n    tag_215:\n        /* \"#utility.yul\":2597:2601   */\n      0x20\n        /* \"#utility.yul\":2592:2595   */\n      dup4\n        /* \"#utility.yul\":2588:2602   */\n      add\n        /* \"#utility.yul\":2574:2602   */\n      swap1\n      pop\n        /* \"#utility.yul\":2429:2608   */\n      swap3\n      swap2\n      pop\n      pop\n      jump\t// out\n        /* \"#utility.yul\":2614:2727   */\n    tag_144:\n        /* \"#utility.yul\":2684:2688   */\n      0x00\n        /* \"#utility.yul\":2716:2720   */\n      0x20\n        /* \"#utility.yul\":2711:2714   */\n      dup3\n        /* \"#utility.yul\":2707:2721   */\n      add\n        /* \"#utility.yul\":2699:2721   */\n      swap1\n      pop\n        /* \"#utility.yul\":2614:2727   */\n      swap2\n      swap1\n      pop\n      jump\t// out\n        /* \"#utility.yul\":2763:3495   */\n    tag_145:\n        /* \"#utility.yul\":2882:2885   */\n      0x00\n        /* \"#utility.yul\":2911:2965   */\n      tag_218\n        /* \"#utility.yul\":2959:2964   */\n      dup3\n        /* \"#utility.yul\":2911:2965   */\n      tag_139\n      jump\t// in\n    tag_218:\n        /* \"#utility.yul\":2981:3067   */\n      tag_219\n        /* \"#utility.yul\":3060:3066   */\n      dup2\n        /* \"#utility.yul\":3055:3058   */\n      dup6\n        /* \"#utility.yul\":2981:3067   */\n      tag_140\n      jump\t// in\n    tag_219:\n        /* \"#utility.yul\":2974:3067   */\n      swap4\n      pop\n        /* \"#utility.yul\":3091:3147   */\n      tag_220\n        /* \"#utility.yul\":3141:3146   */\n      dup4\n        /* \"#utility.yul\":3091:3147   */\n      tag_141\n      jump\t// in\n    tag_220:\n        /* \"#utility.yul\":3170:3177   */\n      dup1\n        /* \"#utility.yul\":3201:3202   */\n      0x00\n        /* \"#utility.yul\":3186:3470   */\n    tag_221:\n        /* \"#utility.yul\":3211:3217   */\n      dup4\n        /* \"#utility.yul\":3208:3209   */\n      dup2\n        /* \"#utility.yul\":3205:3218   */\n      lt\n        /* \"#utility.yul\":3186:3470   */\n      iszero\n      tag_223\n      jumpi\n        /* \"#utility.yul\":3287:3293   */\n      dup2\n        /* \"#utility.yul\":3281:3294   */\n      mload\n        /* \"#utility.yul\":3314:3377   */\n      tag_224\n        /* \"#utility.yul\":3373:3376   */\n      dup9\n        /* \"#utility.yul\":3358:3371   */\n      dup3\n        /* \"#utility.yul\":3314:3377   */\n      tag_143\n      jump\t// in\n    tag_224:\n        /* \"#utility.yul\":3307:3377   */\n      swap8\n      pop\n        /* \"#utility.yul\":3400:3460   */\n      tag_225\n        /* \"#utility.yul\":3453:3459   */\n      dup4\n        /* \"#utility.yul\":3400:3460   */\n      tag_144\n      jump\t// in\n    tag_225:\n        /* \"#utility.yul\":3390:3460   */\n      swap3\n      pop\n        /* \"#utility.yul\":3246:3470   */\n      pop\n        /* \"#utility.yul\":3233:3234   */\n      0x01\n        /* \"#utility.yul\":3230:3231   */\n      dup2\n        /* \"#utility.yul\":3226:3235   */\n      add\n        /* \"#utility.yul\":3221:3235   */\n      swap1\n      pop\n        /* \"#utility.yul\":3186:3470   */\n      jump(tag_221)\n    tag_223:\n        /* \"#utility.yul\":3190:3204   */\n      pop\n        /* \"#utility.yul\":3486:3489   */\n      dup6\n        /* \"#utility.yul\":3479:3489   */\n      swap4\n      pop\n        /* \"#utility.yul\":2887:3495   */\n      pop\n      pop\n      pop\n        /* \"#utility.yul\":2763:3495   */\n      swap3\n      swap2\n      pop\n      pop\n      jump\t// out\n        /* \"#utility.yul\":3501:3625   */\n    tag_146:\n        /* \"#utility.yul\":3578:3584   */\n      0x00\n        /* \"#utility.yul\":3612:3617   */\n      dup2\n        /* \"#utility.yul\":3606:3618   */\n      mload\n        /* \"#utility.yul\":3596:3618   */\n      swap1\n      pop\n        /* \"#utility.yul\":3501:3625   */\n      swap2\n      swap1\n      pop\n      jump\t// out\n        /* \"#utility.yul\":3631:3825   */\n    tag_147:\n        /* \"#utility.yul\":3740:3751   */\n      0x00\n        /* \"#utility.yul\":3774:3780   */\n      dup3\n        /* \"#utility.yul\":3769:3772   */\n      dup3\n        /* \"#utility.yul\":3762:3781   */\n      mstore\n        /* \"#utility.yul\":3814:3818   */\n      0x20\n        /* \"#utility.yul\":3809:3812   */\n      dup3\n        /* \"#utility.yul\":3805:3819   */\n      add\n        /* \"#utility.yul\":3790:3819   */\n      swap1\n      pop\n        /* \"#utility.yul\":3631:3825   */\n      swap3\n      swap2\n      pop\n      pop\n      jump\t// out\n        /* \"#utility.yul\":3831:3973   */\n    tag_148:\n        /* \"#utility.yul\":3908:3912   */\n      0x00\n        /* \"#utility.yul\":3931:3934   */\n      dup2\n        /* \"#utility.yul\":3923:3934   */\n      swap1\n      pop\n        /* \"#utility.yul\":3961:3965   */\n      0x20\n        /* \"#utility.yul\":3956:3959   */\n      dup3\n        /* \"#utility.yul\":3952:3966   */\n      add\n        /* \"#utility.yul\":3944:3966   */\n      swap1\n      pop\n        /* \"#utility.yul\":3831:3973   */\n      swap2\n      swap1\n      pop\n      jump\t// out\n        /* \"#utility.yul\":3979:4078   */\n    tag_149:\n        /* \"#utility.yul\":4031:4037   */\n      0x00\n        /* \"#utility.yul\":4065:4070   */\n      dup2\n        /* \"#utility.yul\":4059:4071   */\n      mload\n        /* \"#utility.yul\":4049:4071   */\n      swap1\n      pop\n        /* \"#utility.yul\":3979:4078   */\n      swap2\n      swap1\n      pop\n      jump\t// out\n        /* \"#utility.yul\":4084:4243   */\n    tag_150:\n        /* \"#utility.yul\":4158:4169   */\n      0x00\n        /* \"#utility.yul\":4192:4198   */\n      dup3\n        /* \"#utility.yul\":4187:4190   */\n      dup3\n        /* \"#utility.yul\":4180:4199   */\n      mstore\n        /* \"#utility.yul\":4232:4236   */\n      0x20\n        /* \"#utility.yul\":4227:4230   */\n      dup3\n        /* \"#utility.yul\":4223:4237   */\n      add\n        /* \"#utility.yul\":4208:4237   */\n      swap1\n      pop\n        /* \"#utility.yul\":4084:4243   */\n      swap3\n      swap2\n      pop\n      pop\n      jump\t// out\n        /* \"#utility.yul\":4249:4388   */\n    tag_151:\n        /* \"#utility.yul\":4338:4344   */\n      dup3\n        /* \"#utility.yul\":4333:4336   */\n      dup2\n        /* \"#utility.yul\":4328:4331   */\n      dup4\n        /* \"#utility.yul\":4322:4345   */\n      mcopy\n        /* \"#utility.yul\":4379:4380   */\n      0x00\n        /* \"#utility.yul\":4370:4376   */\n      dup4\n        /* \"#utility.yul\":4365:4368   */\n      dup4\n        /* \"#utility.yul\":4361:4377   */\n      add\n        /* \"#utility.yul\":4354:4381   */\n      mstore\n        /* \"#utility.yul\":4249:4388   */\n      pop\n      pop\n      pop\n      jump\t// out\n        /* \"#utility.yul\":4394:4496   */\n    tag_152:\n        /* \"#utility.yul\":4435:4441   */\n      0x00\n        /* \"#utility.yul\":4486:4488   */\n      0x1f\n        /* \"#utility.yul\":4482:4489   */\n      not\n        /* \"#utility.yul\":4477:4479   */\n      0x1f\n        /* \"#utility.yul\":4470:4475   */\n      dup4\n        /* \"#utility.yul\":4466:4480   */\n      add\n        /* \"#utility.yul\":4462:4490   */\n      and\n        /* \"#utility.yul\":4452:4490   */\n      swap1\n      pop\n        /* \"#utility.yul\":4394:4496   */\n      swap2\n      swap1\n      pop\n      jump\t// out\n        /* \"#utility.yul\":4502:4859   */\n    tag_153:\n        /* \"#utility.yul\":4580:4583   */\n      0x00\n        /* \"#utility.yul\":4608:4647   */\n      tag_234\n        /* \"#utility.yul\":4641:4646   */\n      dup3\n        /* \"#utility.yul\":4608:4647   */\n      tag_149\n      jump\t// in\n    tag_234:\n        /* \"#utility.yul\":4663:4724   */\n      tag_235\n        /* \"#utility.yul\":4717:4723   */\n      dup2\n        /* \"#utility.yul\":4712:4715   */\n      dup6\n        /* \"#utility.yul\":4663:4724   */\n      tag_150\n      jump\t// in\n    tag_235:\n        /* \"#utility.yul\":4656:4724   */\n      swap4\n      pop\n        /* \"#utility.yul\":4733:4798   */\n      tag_236\n        /* \"#utility.yul\":4791:4797   */\n      dup2\n        /* \"#utility.yul\":4786:4789   */\n      dup6\n        /* \"#utility.yul\":4779:4783   */\n      0x20\n        /* \"#utility.yul\":4772:4777   */\n      dup7\n        /* \"#utility.yul\":4768:4784   */\n      add\n        /* \"#utility.yul\":4733:4798   */\n      tag_151\n      jump\t// in\n    tag_236:\n        /* \"#utility.yul\":4823:4852   */\n      tag_237\n        /* \"#utility.yul\":4845:4851   */\n      dup2\n        /* \"#utility.yul\":4823:4852   */\n      tag_152\n      jump\t// in\n    tag_237:\n        /* \"#utility.yul\":4818:4821   */\n      dup5\n        /* \"#utility.yul\":4814:4853   */\n      add\n        /* \"#utility.yul\":4807:4853   */\n      swap2\n      pop\n        /* \"#utility.yul\":4584:4859   */\n      pop\n        /* \"#utility.yul\":4502:4859   */\n      swap3\n      swap2\n      pop\n      pop\n      jump\t// out\n        /* \"#utility.yul\":4865:5061   */\n    tag_154:\n        /* \"#utility.yul\":4954:4964   */\n      0x00\n        /* \"#utility.yul\":4989:5055   */\n      tag_239\n        /* \"#utility.yul\":5051:5054   */\n      dup4\n        /* \"#utility.yul\":5043:5049   */\n      dup4\n        /* \"#utility.yul\":4989:5055   */\n      tag_153\n      jump\t// in\n    tag_239:\n        /* \"#utility.yul\":4975:5055   */\n      swap1\n      pop\n        /* \"#utility.yul\":4865:5061   */\n      swap3\n      swap2\n      pop\n      pop\n      jump\t// out\n        /* \"#utility.yul\":5067:5190   */\n    tag_155:\n        /* \"#utility.yul\":5147:5151   */\n      0x00\n        /* \"#utility.yul\":5179:5183   */\n      0x20\n        /* \"#utility.yul\":5174:5177   */\n      dup3\n        /* \"#utility.yul\":5170:5184   */\n      add\n        /* \"#utility.yul\":5162:5184   */\n      swap1\n      pop\n        /* \"#utility.yul\":5067:5190   */\n      swap2\n      swap1\n      pop\n      jump\t// out\n        /* \"#utility.yul\":5224:6215   */\n    tag_156:\n        /* \"#utility.yul\":5363:5366   */\n      0x00\n        /* \"#utility.yul\":5392:5456   */\n      tag_242\n        /* \"#utility.yul\":5450:5455   */\n      dup3\n        /* \"#utility.yul\":5392:5456   */\n      tag_146\n      jump\t// in\n    tag_242:\n        /* \"#utility.yul\":5472:5568   */\n      tag_243\n        /* \"#utility.yul\":5561:5567   */\n      dup2\n        /* \"#utility.yul\":5556:5559   */\n      dup6\n        /* \"#utility.yul\":5472:5568   */\n      tag_147\n      jump\t// in\n    tag_243:\n        /* \"#utility.yul\":5465:5568   */\n      swap4\n      pop\n        /* \"#utility.yul\":5594:5597   */\n      dup4\n        /* \"#utility.yul\":5639:5643   */\n      0x20\n        /* \"#utility.yul\":5631:5637   */\n      dup3\n        /* \"#utility.yul\":5627:5644   */\n      mul\n        /* \"#utility.yul\":5622:5625   */\n      dup6\n        /* \"#utility.yul\":5618:5645   */\n      add\n        /* \"#utility.yul\":5669:5735   */\n      tag_244\n        /* \"#utility.yul\":5729:5734   */\n      dup6\n        /* \"#utility.yul\":5669:5735   */\n      tag_148\n      jump\t// in\n    tag_244:\n        /* \"#utility.yul\":5758:5765   */\n      dup1\n        /* \"#utility.yul\":5789:5790   */\n      0x00\n        /* \"#utility.yul\":5774:6170   */\n    tag_245:\n        /* \"#utility.yul\":5799:5805   */\n      dup6\n        /* \"#utility.yul\":5796:5797   */\n      dup2\n        /* \"#utility.yul\":5793:5806   */\n      lt\n        /* \"#utility.yul\":5774:6170   */\n      iszero\n      tag_247\n      jumpi\n        /* \"#utility.yul\":5870:5879   */\n      dup5\n        /* \"#utility.yul\":5864:5868   */\n      dup5\n        /* \"#utility.yul\":5860:5880   */\n      sub\n        /* \"#utility.yul\":5855:5858   */\n      dup10\n        /* \"#utility.yul\":5848:5881   */\n      mstore\n        /* \"#utility.yul\":5921:5927   */\n      dup2\n        /* \"#utility.yul\":5915:5928   */\n      mload\n        /* \"#utility.yul\":5949:6033   */\n      tag_248\n        /* \"#utility.yul\":6028:6032   */\n      dup6\n        /* \"#utility.yul\":6013:6026   */\n      dup3\n        /* \"#utility.yul\":5949:6033   */\n      tag_154\n      jump\t// in\n    tag_248:\n        /* \"#utility.yul\":5941:6033   */\n      swap5\n      pop\n        /* \"#utility.yul\":6056:6126   */\n      tag_249\n        /* \"#utility.yul\":6119:6125   */\n      dup4\n        /* \"#utility.yul\":6056:6126   */\n      tag_155\n      jump\t// in\n    tag_249:\n        /* \"#utility.yul\":6046:6126   */\n      swap3\n      pop\n        /* \"#utility.yul\":6155:6159   */\n      0x20\n        /* \"#utility.yul\":6150:6153   */\n      dup11\n        /* \"#utility.yul\":6146:6160   */\n      add\n        /* \"#utility.yul\":6139:6160   */\n      swap10\n      pop\n        /* \"#utility.yul\":5834:6170   */\n      pop\n        /* \"#utility.yul\":5821:5822   */\n      0x01\n        /* \"#utility.yul\":5818:5819   */\n      dup2\n        /* \"#utility.yul\":5814:5823   */\n      add\n        /* \"#utility.yul\":5809:5823   */\n      swap1\n      pop\n        /* \"#utility.yul\":5774:6170   */\n      jump(tag_245)\n    tag_247:\n        /* \"#utility.yul\":5778:5792   */\n      pop\n        /* \"#utility.yul\":6186:6190   */\n      dup3\n        /* \"#utility.yul\":6179:6190   */\n      swap8\n      pop\n        /* \"#utility.yul\":6206:6209   */\n      dup8\n        /* \"#utility.yul\":6199:6209   */\n      swap6\n      pop\n        /* \"#utility.yul\":5368:6215   */\n      pop\n      pop\n      pop\n      pop\n      pop\n        /* \"#utility.yul\":5224:6215   */\n      swap3\n      swap2\n      pop\n      pop\n      jump\t// out\n        /* \"#utility.yul\":6221:7156   */\n    tag_25:\n        /* \"#utility.yul\":6540:6544   */\n      0x00\n        /* \"#utility.yul\":6578:6580   */\n      0x60\n        /* \"#utility.yul\":6567:6576   */\n      dup3\n        /* \"#utility.yul\":6563:6581   */\n      add\n        /* \"#utility.yul\":6555:6581   */\n      swap1\n      pop\n        /* \"#utility.yul\":6627:6636   */\n      dup2\n        /* \"#utility.yul\":6621:6625   */\n      dup2\n        /* \"#utility.yul\":6617:6637   */\n      sub\n        /* \"#utility.yul\":6613:6614   */\n      0x00\n        /* \"#utility.yul\":6602:6611   */\n      dup4\n        /* \"#utility.yul\":6598:6615   */\n      add\n        /* \"#utility.yul\":6591:6638   */\n      mstore\n        /* \"#utility.yul\":6655:6763   */\n      tag_251\n        /* \"#utility.yul\":6758:6762   */\n      dup2\n        /* \"#utility.yul\":6749:6755   */\n      dup7\n        /* \"#utility.yul\":6655:6763   */\n      tag_145\n      jump\t// in\n    tag_251:\n        /* \"#utility.yul\":6647:6763   */\n      swap1\n      pop\n        /* \"#utility.yul\":6810:6819   */\n      dup2\n        /* \"#utility.yul\":6804:6808   */\n      dup2\n        /* \"#utility.yul\":6800:6820   */\n      sub\n        /* \"#utility.yul\":6795:6797   */\n      0x20\n        /* \"#utility.yul\":6784:6793   */\n      dup4\n        /* \"#utility.yul\":6780:6798   */\n      add\n        /* \"#utility.yul\":6773:6821   */\n      mstore\n        /* \"#utility.yul\":6838:6966   */\n      tag_252\n        /* \"#utility.yul\":6961:6965   */\n      dup2\n        /* \"#utility.yul\":6952:6958   */\n      dup6\n        /* \"#utility.yul\":6838:6966   */\n      tag_156\n      jump\t// in\n    tag_252:\n        /* \"#utility.yul\":6830:6966   */\n      swap1\n      pop\n        /* \"#utility.yul\":7013:7022   */\n      dup2\n        /* \"#utility.yul\":7007:7011   */\n      dup2\n        /* \"#utility.yul\":7003:7023   */\n      sub\n        /* \"#utility.yul\":6998:7000   */\n      0x40\n        /* \"#utility.yul\":6987:6996   */\n      dup4\n        /* \"#utility.yul\":6983:7001   */\n      add\n        /* \"#utility.yul\":6976:7024   */\n      mstore\n        /* \"#utility.yul\":7041:7149   */\n      tag_253\n        /* \"#utility.yul\":7144:7148   */\n      dup2\n        /* \"#utility.yul\":7135:7141   */\n      dup5\n        /* \"#utility.yul\":7041:7149   */\n      tag_145\n      jump\t// in\n    tag_253:\n        /* \"#utility.yul\":7033:7149   */\n      swap1\n      pop\n        /* \"#utility.yul\":6221:7156   */\n      swap5\n      swap4\n      pop\n      pop\n      pop\n      pop\n      jump\t// out\n        /* \"#utility.yul\":7162:7280   */\n    tag_157:\n        /* \"#utility.yul\":7249:7273   */\n      tag_255\n        /* \"#utility.yul\":7267:7272   */\n      dup2\n        /* \"#utility.yul\":7249:7273   */\n      tag_132\n      jump\t// in\n    tag_255:\n        /* \"#utility.yul\":7244:7247   */\n      dup3\n        /* \"#utility.yul\":7237:7274   */\n      mstore\n        /* \"#utility.yul\":7162:7280   */\n      pop\n      pop\n      jump\t// out\n        /* \"#utility.yul\":7286:7508   */\n    tag_29:\n        /* \"#utility.yul\":7379:7383   */\n      0x00\n        /* \"#utility.yul\":7417:7419   */\n      0x20\n        /* \"#utility.yul\":7406:7415   */\n      dup3\n        /* \"#utility.yul\":7402:7420   */\n      add\n        /* \"#utility.yul\":7394:7420   */\n      swap1\n      pop\n        /* \"#utility.yul\":7430:7501   */\n      tag_257\n        /* \"#utility.yul\":7498:7499   */\n      0x00\n        /* \"#utility.yul\":7487:7496   */\n      dup4\n        /* \"#utility.yul\":7483:7500   */\n      add\n        /* \"#utility.yul\":7474:7480   */\n      dup5\n        /* \"#utility.yul\":7430:7501   */\n      tag_157\n      jump\t// in\n    tag_257:\n        /* \"#utility.yul\":7286:7508   */\n      swap3\n      swap2\n      pop\n      pop\n      jump\t// out\n        /* \"#utility.yul\":7514:7632   */\n    tag_158:\n        /* \"#utility.yul\":7601:7625   */\n      tag_259\n        /* \"#utility.yul\":7619:7624   */\n      dup2\n        /* \"#utility.yul\":7601:7625   */\n      tag_136\n      jump\t// in\n    tag_259:\n        /* \"#utility.yul\":7596:7599   */\n      dup3\n        /* \"#utility.yul\":7589:7626   */\n      mstore\n        /* \"#utility.yul\":7514:7632   */\n      pop\n      pop\n      jump\t// out\n        /* \"#utility.yul\":7638:7860   */\n    tag_33:\n        /* \"#utility.yul\":7731:7735   */\n      0x00\n        /* \"#utility.yul\":7769:7771   */\n      0x20\n        /* \"#utility.yul\":7758:7767   */\n      dup3\n        /* \"#utility.yul\":7754:7772   */\n      add\n        /* \"#utility.yul\":7746:7772   */\n      swap1\n      pop\n        /* \"#utility.yul\":7782:7853   */\n      tag_261\n        /* \"#utility.yul\":7850:7851   */\n      0x00\n        /* \"#utility.yul\":7839:7848   */\n      dup4\n        /* \"#utility.yul\":7835:7852   */\n      add\n        /* \"#utility.yul\":7826:7832   */\n      dup5\n        /* \"#utility.yul\":7782:7853   */\n      tag_158\n      jump\t// in\n    tag_261:\n        /* \"#utility.yul\":7638:7860   */\n      swap3\n      swap2\n      pop\n      pop\n      jump\t// out\n        /* \"#utility.yul\":7866:8035   */\n    tag_159:\n        /* \"#utility.yul\":7950:7961   */\n      0x00\n        /* \"#utility.yul\":7984:7990   */\n      dup3\n        /* \"#utility.yul\":7979:7982   */\n      dup3\n        /* \"#utility.yul\":7972:7991   */\n      mstore\n        /* \"#utility.yul\":8024:8028   */\n      0x20\n        /* \"#utility.yul\":8019:8022   */\n      dup3\n        /* \"#utility.yul\":8015:8029   */\n      add\n        /* \"#utility.yul\":8000:8029   */\n      swap1\n      pop\n        /* \"#utility.yul\":7866:8035   */\n      swap3\n      swap2\n      pop\n      pop\n      jump\t// out\n        /* \"#utility.yul\":8041:8418   */\n    tag_160:\n        /* \"#utility.yul\":8129:8132   */\n      0x00\n        /* \"#utility.yul\":8157:8196   */\n      tag_264\n        /* \"#utility.yul\":8190:8195   */\n      dup3\n        /* \"#utility.yul\":8157:8196   */\n      tag_149\n      jump\t// in\n    tag_264:\n        /* \"#utility.yul\":8212:8283   */\n      tag_265\n        /* \"#utility.yul\":8276:8282   */\n      dup2\n        /* \"#utility.yul\":8271:8274   */\n      dup6\n        /* \"#utility.yul\":8212:8283   */\n      tag_159\n      jump\t// in\n    tag_265:\n        /* \"#utility.yul\":8205:8283   */\n      swap4\n      pop\n        /* \"#utility.yul\":8292:8357   */\n      tag_266\n        /* \"#utility.yul\":8350:8356   */\n      dup2\n        /* \"#utility.yul\":8345:8348   */\n      dup6\n        /* \"#utility.yul\":8338:8342   */\n      0x20\n        /* \"#utility.yul\":8331:8336   */\n      dup7\n        /* \"#utility.yul\":8327:8343   */\n      add\n        /* \"#utility.yul\":8292:8357   */\n      tag_151\n      jump\t// in\n    tag_266:\n        /* \"#utility.yul\":8382:8411   */\n      tag_267\n        /* \"#utility.yul\":8404:8410   */\n      dup2\n        /* \"#utility.yul\":8382:8411   */\n      tag_152\n      jump\t// in\n    tag_267:\n        /* \"#utility.yul\":8377:8380   */\n      dup5\n        /* \"#utility.yul\":8373:8412   */\n      add\n        /* \"#utility.yul\":8366:8412   */\n      swap2\n      pop\n        /* \"#utility.yul\":8133:8418   */\n      pop\n        /* \"#utility.yul\":8041:8418   */\n      swap3\n      swap2\n      pop\n      pop\n      jump\t// out\n        /* \"#utility.yul\":8424:8957   */\n    tag_38:\n        /* \"#utility.yul\":8593:8597   */\n      0x00\n        /* \"#utility.yul\":8631:8633   */\n      0x60\n        /* \"#utility.yul\":8620:8629   */\n      dup3\n        /* \"#utility.yul\":8616:8634   */\n      add\n        /* \"#utility.yul\":8608:8634   */\n      swap1\n      pop\n        /* \"#utility.yul\":8644:8715   */\n      tag_269\n        /* \"#utility.yul\":8712:8713   */\n      0x00\n        /* \"#utility.yul\":8701:8710   */\n      dup4\n        /* \"#utility.yul\":8697:8714   */\n      add\n        /* \"#utility.yul\":8688:8694   */\n      dup7\n        /* \"#utility.yul\":8644:8715   */\n      tag_157\n      jump\t// in\n    tag_269:\n        /* \"#utility.yul\":8762:8771   */\n      dup2\n        /* \"#utility.yul\":8756:8760   */\n      dup2\n        /* \"#utility.yul\":8752:8772   */\n      sub\n        /* \"#utility.yul\":8747:8749   */\n      0x20\n        /* \"#utility.yul\":8736:8745   */\n      dup4\n        /* \"#utility.yul\":8732:8750   */\n      add\n        /* \"#utility.yul\":8725:8773   */\n      mstore\n        /* \"#utility.yul\":8790:8868   */\n      tag_270\n        /* \"#utility.yul\":8863:8867   */\n      dup2\n        /* \"#utility.yul\":8854:8860   */\n      dup6\n        /* \"#utility.yul\":8790:8868   */\n      tag_160\n      jump\t// in\n    tag_270:\n        /* \"#utility.yul\":8782:8868   */\n      swap1\n      pop\n        /* \"#utility.yul\":8878:8950   */\n      tag_271\n        /* \"#utility.yul\":8946:8948   */\n      0x40\n        /* \"#utility.yul\":8935:8944   */\n      dup4\n        /* \"#utility.yul\":8931:8949   */\n      add\n        /* \"#utility.yul\":8922:8928   */\n      dup5\n        /* \"#utility.yul\":8878:8950   */\n      tag_157\n      jump\t// in\n    tag_271:\n        /* \"#utility.yul\":8424:8957   */\n      swap5\n      swap4\n      pop\n      pop\n      pop\n      pop\n      jump\t// out\n        /* \"#utility.yul\":8963:9053   */\n    tag_161:\n        /* \"#utility.yul\":8997:9004   */\n      0x00\n        /* \"#utility.yul\":9040:9045   */\n      dup2\n        /* \"#utility.yul\":9033:9046   */\n      iszero\n        /* \"#utility.yul\":9026:9047   */\n      iszero\n        /* \"#utility.yul\":9015:9047   */\n      swap1\n      pop\n        /* \"#utility.yul\":8963:9053   */\n      swap2\n      swap1\n      pop\n      jump\t// out\n        /* \"#utility.yul\":9059:9168   */\n    tag_162:\n        /* \"#utility.yul\":9140:9161   */\n      tag_274\n        /* \"#utility.yul\":9155:9160   */\n      dup2\n        /* \"#utility.yul\":9140:9161   */\n      tag_161\n      jump\t// in\n    tag_274:\n        /* \"#utility.yul\":9135:9138   */\n      dup3\n        /* \"#utility.yul\":9128:9162   */\n      mstore\n        /* \"#utility.yul\":9059:9168   */\n      pop\n      pop\n      jump\t// out\n        /* \"#utility.yul\":9174:9592   */\n    tag_46:\n        /* \"#utility.yul\":9311:9315   */\n      0x00\n        /* \"#utility.yul\":9349:9351   */\n      0x60\n        /* \"#utility.yul\":9338:9347   */\n      dup3\n        /* \"#utility.yul\":9334:9352   */\n      add\n        /* \"#utility.yul\":9326:9352   */\n      swap1\n      pop\n        /* \"#utility.yul\":9362:9427   */\n      tag_276\n        /* \"#utility.yul\":9424:9425   */\n      0x00\n        /* \"#utility.yul\":9413:9422   */\n      dup4\n        /* \"#utility.yul\":9409:9426   */\n      add\n        /* \"#utility.yul\":9400:9406   */\n      dup7\n        /* \"#utility.yul\":9362:9427   */\n      tag_162\n      jump\t// in\n    tag_276:\n        /* \"#utility.yul\":9437:9503   */\n      tag_277\n        /* \"#utility.yul\":9499:9501   */\n      0x20\n        /* \"#utility.yul\":9488:9497   */\n      dup4\n        /* \"#utility.yul\":9484:9502   */\n      add\n        /* \"#utility.yul\":9475:9481   */\n      dup6\n        /* \"#utility.yul\":9437:9503   */\n      tag_162\n      jump\t// in\n    tag_277:\n        /* \"#utility.yul\":9513:9585   */\n      tag_278\n        /* \"#utility.yul\":9581:9583   */\n      0x40\n        /* \"#utility.yul\":9570:9579   */\n      dup4\n        /* \"#utility.yul\":9566:9584   */\n      add\n        /* \"#utility.yul\":9557:9563   */\n      dup5\n        /* \"#utility.yul\":9513:9585   */\n      tag_157\n      jump\t// in\n    tag_278:\n        /* \"#utility.yul\":9174:9592   */\n      swap5\n      swap4\n      pop\n      pop\n      pop\n      pop\n      jump\t// out\n        /* \"#utility.yul\":9598:9778   */\n    tag_163:\n        /* \"#utility.yul\":9738:9770   */\n      0x4c6120766f746163696f6e2061756e206e6f20686120696e69636961646f0000\n        /* \"#utility.yul\":9734:9735   */\n      0x00\n        /* \"#utility.yul\":9726:9732   */\n      dup3\n        /* \"#utility.yul\":9722:9736   */\n      add\n        /* \"#utility.yul\":9715:9771   */\n      mstore\n        /* \"#utility.yul\":9598:9778   */\n      pop\n      jump\t// out\n        /* \"#utility.yul\":9784:10150   */\n    tag_164:\n        /* \"#utility.yul\":9926:9929   */\n      0x00\n        /* \"#utility.yul\":9947:10014   */\n      tag_281\n        /* \"#utility.yul\":10011:10013   */\n      0x1e\n        /* \"#utility.yul\":10006:10009   */\n      dup4\n        /* \"#utility.yul\":9947:10014   */\n      tag_159\n      jump\t// in\n    tag_281:\n        /* \"#utility.yul\":9940:10014   */\n      swap2\n      pop\n        /* \"#utility.yul\":10023:10116   */\n      tag_282\n        /* \"#utility.yul\":10112:10115   */\n      dup3\n        /* \"#utility.yul\":10023:10116   */\n      tag_163\n      jump\t// in\n    tag_282:\n        /* \"#utility.yul\":10141:10143   */\n      0x20\n        /* \"#utility.yul\":10136:10139   */\n      dup3\n        /* \"#utility.yul\":10132:10144   */\n      add\n        /* \"#utility.yul\":10125:10144   */\n      swap1\n      pop\n        /* \"#utility.yul\":9784:10150   */\n      swap2\n      swap1\n      pop\n      jump\t// out\n        /* \"#utility.yul\":10156:10575   */\n    tag_56:\n        /* \"#utility.yul\":10322:10326   */\n      0x00\n        /* \"#utility.yul\":10360:10362   */\n      0x20\n        /* \"#utility.yul\":10349:10358   */\n      dup3\n        /* \"#utility.yul\":10345:10363   */\n      add\n        /* \"#utility.yul\":10337:10363   */\n      swap1\n      pop\n        /* \"#utility.yul\":10409:10418   */\n      dup2\n        /* \"#utility.yul\":10403:10407   */\n      dup2\n        /* \"#utility.yul\":10399:10419   */\n      sub\n        /* \"#utility.yul\":10395:10396   */\n      0x00\n        /* \"#utility.yul\":10384:10393   */\n      dup4\n        /* \"#utility.yul\":10380:10397   */\n      add\n        /* \"#utility.yul\":10373:10420   */\n      mstore\n        /* \"#utility.yul\":10437:10568   */\n      tag_284\n        /* \"#utility.yul\":10563:10567   */\n      dup2\n        /* \"#utility.yul\":10437:10568   */\n      tag_164\n      jump\t// in\n    tag_284:\n        /* \"#utility.yul\":10429:10568   */\n      swap1\n      pop\n        /* \"#utility.yul\":10156:10575   */\n      swap2\n      swap1\n      pop\n      jump\t// out\n        /* \"#utility.yul\":10581:10759   */\n    tag_165:\n        /* \"#utility.yul\":10721:10751   */\n      0x4c6120766f746163696f6e2079612068612066696e616c697a61646f00000000\n        /* \"#utility.yul\":10717:10718   */\n      0x00\n        /* \"#utility.yul\":10709:10715   */\n      dup3\n        /* \"#utility.yul\":10705:10719   */\n      add\n        /* \"#utility.yul\":10698:10752   */\n      mstore\n        /* \"#utility.yul\":10581:10759   */\n      pop\n      jump\t// out\n        /* \"#utility.yul\":10765:11131   */\n    tag_166:\n        /* \"#utility.yul\":10907:10910   */\n      0x00\n        /* \"#utility.yul\":10928:10995   */\n      tag_287\n        /* \"#utility.yul\":10992:10994   */\n      0x1c\n        /* \"#utility.yul\":10987:10990   */\n      dup4\n        /* \"#utility.yul\":10928:10995   */\n      tag_159\n      jump\t// in\n    tag_287:\n        /* \"#utility.yul\":10921:10995   */\n      swap2\n      pop\n        /* \"#utility.yul\":11004:11097   */\n      tag_288\n        /* \"#utility.yul\":11093:11096   */\n      dup3\n        /* \"#utility.yul\":11004:11097   */\n      tag_165\n      jump\t// in\n    tag_288:\n        /* \"#utility.yul\":11122:11124   */\n      0x20\n        /* \"#utility.yul\":11117:11120   */\n      dup3\n        /* \"#utility.yul\":11113:11125   */\n      add\n        /* \"#utility.yul\":11106:11125   */\n      swap1\n      pop\n        /* \"#utility.yul\":10765:11131   */\n      swap2\n      swap1\n      pop\n      jump\t// out\n        /* \"#utility.yul\":11137:11556   */\n    tag_59:\n        /* \"#utility.yul\":11303:11307   */\n      0x00\n        /* \"#utility.yul\":11341:11343   */\n      0x20\n        /* \"#utility.yul\":11330:11339   */\n      dup3\n        /* \"#utility.yul\":11326:11344   */\n      add\n        /* \"#utility.yul\":11318:11344   */\n      swap1\n      pop\n        /* \"#utility.yul\":11390:11399   */\n      dup2\n        /* \"#utility.yul\":11384:11388   */\n      dup2\n        /* \"#utility.yul\":11380:11400   */\n      sub\n        /* \"#utility.yul\":11376:11377   */\n      0x00\n        /* \"#utility.yul\":11365:11374   */\n      dup4\n        /* \"#utility.yul\":11361:11378   */\n      add\n        /* \"#utility.yul\":11354:11401   */\n      mstore\n        /* \"#utility.yul\":11418:11549   */\n      tag_290\n        /* \"#utility.yul\":11544:11548   */\n      dup2\n        /* \"#utility.yul\":11418:11549   */\n      tag_166\n      jump\t// in\n    tag_290:\n        /* \"#utility.yul\":11410:11549   */\n      swap1\n      pop\n        /* \"#utility.yul\":11137:11556   */\n      swap2\n      swap1\n      pop\n      jump\t// out\n        /* \"#utility.yul\":11562:11742   */\n    tag_167:\n        /* \"#utility.yul\":11702:11734   */\n      0x4e6f206573746173206175746f72697a61646f207061726120766f7461720000\n        /* \"#utility.yul\":11698:11699   */\n      0x00\n        /* \"#utility.yul\":11690:11696   */\n      dup3\n        /* \"#utility.yul\":11686:11700   */\n      add\n        /* \"#utility.yul\":11679:11735   */\n      mstore\n        /* \"#utility.yul\":11562:11742   */\n      pop\n      jump\t// out\n        /* \"#utility.yul\":11748:12114   */\n    tag_168:\n        /* \"#utility.yul\":11890:11893   */\n      0x00\n        /* \"#utility.yul\":11911:11978   */\n      tag_293\n        /* \"#utility.yul\":11975:11977   */\n      0x1e\n        /* \"#utility.yul\":11970:11973   */\n      dup4\n        /* \"#utility.yul\":11911:11978   */\n      tag_159\n      jump\t// in\n    tag_293:\n        /* \"#utility.yul\":11904:11978   */\n      swap2\n      pop\n        /* \"#utility.yul\":11987:12080   */\n      tag_294\n        /* \"#utility.yul\":12076:12079   */\n      dup3\n        /* \"#utility.yul\":11987:12080   */\n      tag_167\n      jump\t// in\n    tag_294:\n        /* \"#utility.yul\":12105:12107   */\n      0x20\n        /* \"#utility.yul\":12100:12103   */\n      dup3\n        /* \"#utility.yul\":12096:12108   */\n      add\n        /* \"#utility.yul\":12089:12108   */\n      swap1\n      pop\n        /* \"#utility.yul\":11748:12114   */\n      swap2\n      swap1\n      pop\n      jump\t// out\n        /* \"#utility.yul\":12120:12539   */\n    tag_62:\n        /* \"#utility.yul\":12286:12290   */\n      0x00\n        /* \"#utility.yul\":12324:12326   */\n      0x20\n        /* \"#utility.yul\":12313:12322   */\n      dup3\n        /* \"#utility.yul\":12309:12327   */\n      add\n        /* \"#utility.yul\":12301:12327   */\n      swap1\n      pop\n        /* \"#utility.yul\":12373:12382   */\n      dup2\n        /* \"#utility.yul\":12367:12371   */\n      dup2\n        /* \"#utility.yul\":12363:12383   */\n      sub\n        /* \"#utility.yul\":12359:12360   */\n      0x00\n        /* \"#utility.yul\":12348:12357   */\n      dup4\n        /* \"#utility.yul\":12344:12361   */\n      add\n        /* \"#utility.yul\":12337:12384   */\n      mstore\n        /* \"#utility.yul\":12401:12532   */\n      tag_296\n        /* \"#utility.yul\":12527:12531   */\n      dup2\n        /* \"#utility.yul\":12401:12532   */\n      tag_168\n      jump\t// in\n    tag_296:\n        /* \"#utility.yul\":12393:12532   */\n      swap1\n      pop\n        /* \"#utility.yul\":12120:12539   */\n      swap2\n      swap1\n      pop\n      jump\t// out\n        /* \"#utility.yul\":12545:12717   */\n    tag_169:\n        /* \"#utility.yul\":12685:12709   */\n      0x59612068617320656d697469646f20747520766f746f00000000000000000000\n        /* \"#utility.yul\":12681:12682   */\n      0x00\n        /* \"#utility.yul\":12673:12679   */\n      dup3\n        /* \"#utility.yul\":12669:12683   */\n      add\n        /* \"#utility.yul\":12662:12710   */\n      mstore\n        /* \"#utility.yul\":12545:12717   */\n      pop\n      jump\t// out\n        /* \"#utility.yul\":12723:13089   */\n    tag_170:\n        /* \"#utility.yul\":12865:12868   */\n      0x00\n        /* \"#utility.yul\":12886:12953   */\n      tag_299\n        /* \"#utility.yul\":12950:12952   */\n      0x16\n        /* \"#utility.yul\":12945:12948   */\n      dup4\n        /* \"#utility.yul\":12886:12953   */\n      tag_159\n      jump\t// in\n    tag_299:\n        /* \"#utility.yul\":12879:12953   */\n      swap2\n      pop\n        /* \"#utility.yul\":12962:13055   */\n      tag_300\n        /* \"#utility.yul\":13051:13054   */\n      dup3\n        /* \"#utility.yul\":12962:13055   */\n      tag_169\n      jump\t// in\n    tag_300:\n        /* \"#utility.yul\":13080:13082   */\n      0x20\n        /* \"#utility.yul\":13075:13078   */\n      dup3\n        /* \"#utility.yul\":13071:13083   */\n      add\n        /* \"#utility.yul\":13064:13083   */\n      swap1\n      pop\n        /* \"#utility.yul\":12723:13089   */\n      swap2\n      swap1\n      pop\n      jump\t// out\n        /* \"#utility.yul\":13095:13514   */\n    tag_65:\n        /* \"#utility.yul\":13261:13265   */\n      0x00\n        /* \"#utility.yul\":13299:13301   */\n      0x20\n        /* \"#utility.yul\":13288:13297   */\n      dup3\n        /* \"#utility.yul\":13284:13302   */\n      add\n        /* \"#utility.yul\":13276:13302   */\n      swap1\n      pop\n        /* \"#utility.yul\":13348:13357   */\n      dup2\n        /* \"#utility.yul\":13342:13346   */\n      dup2\n        /* \"#utility.yul\":13338:13358   */\n      sub\n        /* \"#utility.yul\":13334:13335   */\n      0x00\n        /* \"#utility.yul\":13323:13332   */\n      dup4\n        /* \"#utility.yul\":13319:13336   */\n      add\n        /* \"#utility.yul\":13312:13359   */\n      mstore\n        /* \"#utility.yul\":13376:13507   */\n      tag_302\n        /* \"#utility.yul\":13502:13506   */\n      dup2\n        /* \"#utility.yul\":13376:13507   */\n      tag_170\n      jump\t// in\n    tag_302:\n        /* \"#utility.yul\":13368:13507   */\n      swap1\n      pop\n        /* \"#utility.yul\":13095:13514   */\n      swap2\n      swap1\n      pop\n      jump\t// out\n        /* \"#utility.yul\":13520:13689   */\n    tag_171:\n        /* \"#utility.yul\":13660:13681   */\n      0x43616e64696461746f206e6f2076616c69646f00000000000000000000000000\n        /* \"#utility.yul\":13656:13657   */\n      0x00\n        /* \"#utility.yul\":13648:13654   */\n      dup3\n        /* \"#utility.yul\":13644:13658   */\n      add\n        /* \"#utility.yul\":13637:13682   */\n      mstore\n        /* \"#utility.yul\":13520:13689   */\n      pop\n      jump\t// out\n        /* \"#utility.yul\":13695:14061   */\n    tag_172:\n        /* \"#utility.yul\":13837:13840   */\n      0x00\n        /* \"#utility.yul\":13858:13925   */\n      tag_305\n        /* \"#utility.yul\":13922:13924   */\n      0x13\n        /* \"#utility.yul\":13917:13920   */\n      dup4\n        /* \"#utility.yul\":13858:13925   */\n      tag_159\n      jump\t// in\n    tag_305:\n        /* \"#utility.yul\":13851:13925   */\n      swap2\n      pop\n        /* \"#utility.yul\":13934:14027   */\n      tag_306\n        /* \"#utility.yul\":14023:14026   */\n      dup3\n        /* \"#utility.yul\":13934:14027   */\n      tag_171\n      jump\t// in\n    tag_306:\n        /* \"#utility.yul\":14052:14054   */\n      0x20\n        /* \"#utility.yul\":14047:14050   */\n      dup3\n        /* \"#utility.yul\":14043:14055   */\n      add\n        /* \"#utility.yul\":14036:14055   */\n      swap1\n      pop\n        /* \"#utility.yul\":13695:14061   */\n      swap2\n      swap1\n      pop\n      jump\t// out\n        /* \"#utility.yul\":14067:14486   */\n    tag_68:\n        /* \"#utility.yul\":14233:14237   */\n      0x00\n        /* \"#utility.yul\":14271:14273   */\n      0x20\n        /* \"#utility.yul\":14260:14269   */\n      dup3\n        /* \"#utility.yul\":14256:14274   */\n      add\n        /* \"#utility.yul\":14248:14274   */\n      swap1\n      pop\n        /* \"#utility.yul\":14320:14329   */\n      dup2\n        /* \"#utility.yul\":14314:14318   */\n      dup2\n        /* \"#utility.yul\":14310:14330   */\n      sub\n        /* \"#utility.yul\":14306:14307   */\n      0x00\n        /* \"#utility.yul\":14295:14304   */\n      dup4\n        /* \"#utility.yul\":14291:14308   */\n      add\n        /* \"#utility.yul\":14284:14331   */\n      mstore\n        /* \"#utility.yul\":14348:14479   */\n      tag_308\n        /* \"#utility.yul\":14474:14478   */\n      dup2\n        /* \"#utility.yul\":14348:14479   */\n      tag_172\n      jump\t// in\n    tag_308:\n        /* \"#utility.yul\":14340:14479   */\n      swap1\n      pop\n        /* \"#utility.yul\":14067:14486   */\n      swap2\n      swap1\n      pop\n      jump\t// out\n        /* \"#utility.yul\":14492:14672   */\n    tag_173:\n        /* \"#utility.yul\":14540:14617   */\n      0x4e487b7100000000000000000000000000000000000000000000000000000000\n        /* \"#utility.yul\":14537:14538   */\n      0x00\n        /* \"#utility.yul\":14530:14618   */\n      mstore\n        /* \"#utility.yul\":14637:14641   */\n      0x11\n        /* \"#utility.yul\":14634:14635   */\n      0x04\n        /* \"#utility.yul\":14627:14642   */\n      mstore\n        /* \"#utility.yul\":14661:14665   */\n      0x24\n        /* \"#utility.yul\":14658:14659   */\n      0x00\n        /* \"#utility.yul\":14651:14666   */\n      revert\n        /* \"#utility.yul\":14678:14869   */\n    tag_70:\n        /* \"#utility.yul\":14718:14721   */\n      0x00\n        /* \"#utility.yul\":14737:14757   */\n      tag_311\n        /* \"#utility.yul\":14755:14756   */\n      dup3\n        /* \"#utility.yul\":14737:14757   */\n      tag_132\n      jump\t// in\n    tag_311:\n        /* \"#utility.yul\":14732:14757   */\n      swap2\n      pop\n        /* \"#utility.yul\":14771:14791   */\n      tag_312\n        /* \"#utility.yul\":14789:14790   */\n      dup4\n        /* \"#utility.yul\":14771:14791   */\n      tag_132\n      jump\t// in\n    tag_312:\n        /* \"#utility.yul\":14766:14791   */\n      swap3\n      pop\n        /* \"#utility.yul\":14814:14815   */\n      dup3\n        /* \"#utility.yul\":14811:14812   */\n      dup3\n        /* \"#utility.yul\":14807:14816   */\n      add\n        /* \"#utility.yul\":14800:14816   */\n      swap1\n      pop\n        /* \"#utility.yul\":14835:14838   */\n      dup1\n        /* \"#utility.yul\":14832:14833   */\n      dup3\n        /* \"#utility.yul\":14829:14839   */\n      gt\n        /* \"#utility.yul\":14826:14862   */\n      iszero\n      tag_313\n      jumpi\n        /* \"#utility.yul\":14842:14860   */\n      tag_314\n      tag_173\n      jump\t// in\n    tag_314:\n        /* \"#utility.yul\":14826:14862   */\n    tag_313:\n        /* \"#utility.yul\":14678:14869   */\n      swap3\n      swap2\n      pop\n      pop\n      jump\t// out\n        /* \"#utility.yul\":14875:15100   */\n    tag_174:\n        /* \"#utility.yul\":15015:15049   */\n      0x536f6c6f20656c2061646d696e6973747261646f722070756564652068616365\n        /* \"#utility.yul\":15011:15012   */\n      0x00\n        /* \"#utility.yul\":15003:15009   */\n      dup3\n        /* \"#utility.yul\":14999:15013   */\n      add\n        /* \"#utility.yul\":14992:15050   */\n      mstore\n        /* \"#utility.yul\":15084:15092   */\n      0x72206573746f0000000000000000000000000000000000000000000000000000\n        /* \"#utility.yul\":15079:15081   */\n      0x20\n        /* \"#utility.yul\":15071:15077   */\n      dup3\n        /* \"#utility.yul\":15067:15082   */\n      add\n        /* \"#utility.yul\":15060:15093   */\n      mstore\n        /* \"#utility.yul\":14875:15100   */\n      pop\n      jump\t// out\n        /* \"#utility.yul\":15106:15472   */\n    tag_175:\n        /* \"#utility.yul\":15248:15251   */\n      0x00\n        /* \"#utility.yul\":15269:15336   */\n      tag_317\n        /* \"#utility.yul\":15333:15335   */\n      0x26\n        /* \"#utility.yul\":15328:15331   */\n      dup4\n        /* \"#utility.yul\":15269:15336   */\n      tag_159\n      jump\t// in\n    tag_317:\n        /* \"#utility.yul\":15262:15336   */\n      swap2\n      pop\n        /* \"#utility.yul\":15345:15438   */\n      tag_318\n        /* \"#utility.yul\":15434:15437   */\n      dup3\n        /* \"#utility.yul\":15345:15438   */\n      tag_174\n      jump\t// in\n    tag_318:\n        /* \"#utility.yul\":15463:15465   */\n      0x40\n        /* \"#utility.yul\":15458:15461   */\n      dup3\n        /* \"#utility.yul\":15454:15466   */\n      add\n        /* \"#utility.yul\":15447:15466   */\n      swap1\n      pop\n        /* \"#utility.yul\":15106:15472   */\n      swap2\n      swap1\n      pop\n      jump\t// out\n        /* \"#utility.yul\":15478:15897   */\n    tag_74:\n        /* \"#utility.yul\":15644:15648   */\n      0x00\n        /* \"#utility.yul\":15682:15684   */\n      0x20\n        /* \"#utility.yul\":15671:15680   */\n      dup3\n        /* \"#utility.yul\":15667:15685   */\n      add\n        /* \"#utility.yul\":15659:15685   */\n      swap1\n      pop\n        /* \"#utility.yul\":15731:15740   */\n      dup2\n        /* \"#utility.yul\":15725:15729   */\n      dup2\n        /* \"#utility.yul\":15721:15741   */\n      sub\n        /* \"#utility.yul\":15717:15718   */\n      0x00\n        /* \"#utility.yul\":15706:15715   */\n      dup4\n        /* \"#utility.yul\":15702:15719   */\n      add\n        /* \"#utility.yul\":15695:15742   */\n      mstore\n        /* \"#utility.yul\":15759:15890   */\n      tag_320\n        /* \"#utility.yul\":15885:15889   */\n      dup2\n        /* \"#utility.yul\":15759:15890   */\n      tag_175\n      jump\t// in\n    tag_320:\n        /* \"#utility.yul\":15751:15890   */\n      swap1\n      pop\n        /* \"#utility.yul\":15478:15897   */\n      swap2\n      swap1\n      pop\n      jump\t// out\n        /* \"#utility.yul\":15903:16084   */\n    tag_176:\n        /* \"#utility.yul\":16043:16076   */\n      0x4573746520766f74616e74652079612065737461207265676973747261646f00\n        /* \"#utility.yul\":16039:16040   */\n      0x00\n        /* \"#utility.yul\":16031:16037   */\n      dup3\n        /* \"#utility.yul\":16027:16041   */\n      add\n        /* \"#utility.yul\":16020:16077   */\n      mstore\n        /* \"#utility.yul\":15903:16084   */\n      pop\n      jump\t// out\n        /* \"#utility.yul\":16090:16456   */\n    tag_177:\n        /* \"#utility.yul\":16232:16235   */\n      0x00\n        /* \"#utility.yul\":16253:16320   */\n      tag_323\n        /* \"#utility.yul\":16317:16319   */\n      0x1f\n        /* \"#utility.yul\":16312:16315   */\n      dup4\n        /* \"#utility.yul\":16253:16320   */\n      tag_159\n      jump\t// in\n    tag_323:\n        /* \"#utility.yul\":16246:16320   */\n      swap2\n      pop\n        /* \"#utility.yul\":16329:16422   */\n      tag_324\n        /* \"#utility.yul\":16418:16421   */\n      dup3\n        /* \"#utility.yul\":16329:16422   */\n      tag_176\n      jump\t// in\n    tag_324:\n        /* \"#utility.yul\":16447:16449   */\n      0x20\n        /* \"#utility.yul\":16442:16445   */\n      dup3\n        /* \"#utility.yul\":16438:16450   */\n      add\n        /* \"#utility.yul\":16431:16450   */\n      swap1\n      pop\n        /* \"#utility.yul\":16090:16456   */\n      swap2\n      swap1\n      pop\n      jump\t// out\n        /* \"#utility.yul\":16462:16881   */\n    tag_78:\n        /* \"#utility.yul\":16628:16632   */\n      0x00\n        /* \"#utility.yul\":16666:16668   */\n      0x20\n        /* \"#utility.yul\":16655:16664   */\n      dup3\n        /* \"#utility.yul\":16651:16669   */\n      add\n        /* \"#utility.yul\":16643:16669   */\n      swap1\n      pop\n        /* \"#utility.yul\":16715:16724   */\n      dup2\n        /* \"#utility.yul\":16709:16713   */\n      dup2\n        /* \"#utility.yul\":16705:16725   */\n      sub\n        /* \"#utility.yul\":16701:16702   */\n      0x00\n        /* \"#utility.yul\":16690:16699   */\n      dup4\n        /* \"#utility.yul\":16686:16703   */\n      add\n        /* \"#utility.yul\":16679:16726   */\n      mstore\n        /* \"#utility.yul\":16743:16874   */\n      tag_326\n        /* \"#utility.yul\":16869:16873   */\n      dup2\n        /* \"#utility.yul\":16743:16874   */\n      tag_177\n      jump\t// in\n    tag_326:\n        /* \"#utility.yul\":16735:16874   */\n      swap1\n      pop\n        /* \"#utility.yul\":16462:16881   */\n      swap2\n      swap1\n      pop\n      jump\t// out\n        /* \"#utility.yul\":16887:17120   */\n    tag_85:\n        /* \"#utility.yul\":16926:16929   */\n      0x00\n        /* \"#utility.yul\":16949:16973   */\n      tag_328\n        /* \"#utility.yul\":16967:16972   */\n      dup3\n        /* \"#utility.yul\":16949:16973   */\n      tag_132\n      jump\t// in\n    tag_328:\n        /* \"#utility.yul\":16940:16973   */\n      swap2\n      pop\n        /* \"#utility.yul\":16995:17061   */\n      0xffffffffffffffffffffffffffffffffffffffffffffffffffffffffffffffff\n        /* \"#utility.yul\":16988:16993   */\n      dup3\n        /* \"#utility.yul\":16985:17062   */\n      sub\n        /* \"#utility.yul\":16982:17085   */\n      tag_329\n      jumpi\n        /* \"#utility.yul\":17065:17083   */\n      tag_330\n      tag_173\n      jump\t// in\n    tag_330:\n        /* \"#utility.yul\":16982:17085   */\n    tag_329:\n        /* \"#utility.yul\":17112:17113   */\n      0x01\n        /* \"#utility.yul\":17105:17110   */\n      dup3\n        /* \"#utility.yul\":17101:17114   */\n      add\n        /* \"#utility.yul\":17094:17114   */\n      swap1\n      pop\n        /* \"#utility.yul\":16887:17120   */\n      swap2\n      swap1\n      pop\n      jump\t// out\n        /* \"#utility.yul\":17126:17306   */\n    tag_89:\n        /* \"#utility.yul\":17174:17251   */\n      0x4e487b7100000000000000000000000000000000000000000000000000000000\n        /* \"#utility.yul\":17171:17172   */\n      0x00\n        /* \"#utility.yul\":17164:17252   */\n      mstore\n        /* \"#utility.yul\":17271:17275   */\n      0x41\n        /* \"#utility.yul\":17268:17269   */\n      0x04\n        /* \"#utility.yul\":17261:17276   */\n      mstore\n        /* \"#utility.yul\":17295:17299   */\n      0x24\n        /* \"#utility.yul\":17292:17293   */\n      0x00\n        /* \"#utility.yul\":17285:17300   */\n      revert\n        /* \"#utility.yul\":17312:17492   */\n    tag_103:\n        /* \"#utility.yul\":17360:17437   */\n      0x4e487b7100000000000000000000000000000000000000000000000000000000\n        /* \"#utility.yul\":17357:17358   */\n      0x00\n        /* \"#utility.yul\":17350:17438   */\n      mstore\n        /* \"#utility.yul\":17457:17461   */\n      0x32\n        /* \"#utility.yul\":17454:17455   */\n      0x04\n        /* \"#utility.yul\":17447:17462   */\n      mstore\n        /* \"#utility.yul\":17481:17485   */\n      0x24\n        /* \"#utility.yul\":17478:17479   */\n      0x00\n        /* \"#utility.yul\":17471:17486   */\n      revert\n        /* \"#utility.yul\":17498:17678   */\n    tag_178:\n        /* \"#utility.yul\":17546:17623   */\n      0x4e487b7100000000000000000000000000000000000000000000000000000000\n        /* \"#utility.yul\":17543:17544   */\n      0x00\n        /* \"#utility.yul\":17536:17624   */\n      mstore\n        /* \"#utility.yul\":17643:17647   */\n      0x22\n        /* \"#utility.yul\":17640:17641   */\n      0x04\n        /* \"#utility.yul\":17633:17648   */\n      mstore\n        /* \"#utility.yul\":17667:17671   */\n      0x24\n        /* \"#utility.yul\":17664:17665   */\n      0x00\n        /* \"#utility.yul\":17657:17672   */\n      revert\n        /* \"#utility.yul\":17684:18004   */\n    tag_105:\n        /* \"#utility.yul\":17728:17734   */\n      0x00\n        /* \"#utility.yul\":17765:17766   */\n      0x02\n        /* \"#utility.yul\":17759:17763   */\n      dup3\n        /* \"#utility.yul\":17755:17767   */\n      div\n        /* \"#utility.yul\":17745:17767   */\n      swap1\n      pop\n        /* \"#utility.yul\":17812:17813   */\n      0x01\n        /* \"#utility.yul\":17806:17810   */\n      dup3\n        /* \"#utility.yul\":17802:17814   */\n      and\n        /* \"#utility.yul\":17833:17851   */\n      dup1\n        /* \"#utility.yul\":17823:17904   */\n      tag_335\n      jumpi\n        /* \"#utility.yul\":17889:17893   */\n      0x7f\n        /* \"#utility.yul\":17881:17887   */\n      dup3\n        /* \"#utility.yul\":17877:17894   */\n      and\n        /* \"#utility.yul\":17867:17894   */\n      swap2\n      pop\n        /* \"#utility.yul\":17823:17904   */\n    tag_335:\n        /* \"#utility.yul\":17951:17953   */\n      0x20\n        /* \"#utility.yul\":17943:17949   */\n      dup3\n        /* \"#utility.yul\":17940:17954   */\n      lt\n        /* \"#utility.yul\":17920:17938   */\n      dup2\n        /* \"#utility.yul\":17917:17955   */\n      sub\n        /* \"#utility.yul\":17914:17998   */\n      tag_336\n      jumpi\n        /* \"#utility.yul\":17970:17988   */\n      tag_337\n      tag_178\n      jump\t// in\n    tag_337:\n        /* \"#utility.yul\":17914:17998   */\n    tag_336:\n        /* \"#utility.yul\":17735:18004   */\n      pop\n        /* \"#utility.yul\":17684:18004   */\n      swap2\n      swap1\n      pop\n      jump\t// out\n        /* \"#utility.yul\":18010:18182   */\n    tag_179:\n        /* \"#utility.yul\":18150:18174   */\n      0x4c6120766f746163696f6e207961207465726d696e6f00000000000000000000\n        /* \"#utility.yul\":18146:18147   */\n      0x00\n        /* \"#utility.yul\":18138:18144   */\n      dup3\n        /* \"#utility.yul\":18134:18148   */\n      add\n        /* \"#utility.yul\":18127:18175   */\n      mstore\n        /* \"#utility.yul\":18010:18182   */\n      pop\n      jump\t// out\n        /* \"#utility.yul\":18188:18554   */\n    tag_180:\n        /* \"#utility.yul\":18330:18333   */\n      0x00\n        /* \"#utility.yul\":18351:18418   */\n      tag_340\n        /* \"#utility.yul\":18415:18417   */\n      0x16\n        /* \"#utility.yul\":18410:18413   */\n      dup4\n        /* \"#utility.yul\":18351:18418   */\n      tag_159\n      jump\t// in\n    tag_340:\n        /* \"#utility.yul\":18344:18418   */\n      swap2\n      pop\n        /* \"#utility.yul\":18427:18520   */\n      tag_341\n        /* \"#utility.yul\":18516:18519   */\n      dup3\n        /* \"#utility.yul\":18427:18520   */\n      tag_179\n      jump\t// in\n    tag_341:\n        /* \"#utility.yul\":18545:18547   */\n      0x20\n        /* \"#utility.yul\":18540:18543   */\n      dup3\n        /* \"#utility.yul\":18536:18548   */\n      add\n        /* \"#utility.yul\":18529:18548   */\n      swap1\n      pop\n        /* \"#utility.yul\":18188:18554   */\n      swap2\n      swap1\n      pop\n      jump\t// out\n        /* \"#utility.yul\":18560:18979   */\n    tag_126:\n        /* \"#utility.yul\":18726:18730   */\n      0x00\n        /* \"#utility.yul\":18764:18766   */\n      0x20\n        /* \"#utility.yul\":18753:18762   */\n      dup3\n        /* \"#utility.yul\":18749:18767   */\n      add\n        /* \"#utility.yul\":18741:18767   */\n      swap1\n      pop\n        /* \"#utility.yul\":18813:18822   */\n      dup2\n        /* \"#utility.yul\":18807:18811   */\n      dup2\n        /* \"#utility.yul\":18803:18823   */\n      sub\n        /* \"#utility.yul\":18799:18800   */\n      0x00\n        /* \"#utility.yul\":18788:18797   */\n      dup4\n        /* \"#utility.yul\":18784:18801   */\n      add\n        /* \"#utility.yul\":18777:18824   */\n      mstore\n        /* \"#utility.yul\":18841:18972   */\n      tag_343\n        /* \"#utility.yul\":18967:18971   */\n      dup2\n        /* \"#utility.yul\":18841:18972   */\n      tag_180\n      jump\t// in\n    tag_343:\n        /* \"#utility.yul\":18833:18972   */\n      swap1\n      pop\n        /* \"#utility.yul\":18560:18979   */\n      swap2\n      swap1\n      pop\n      jump\t// out\n        /* \"#utility.yul\":18985:19219   */\n    tag_181:\n        /* \"#utility.yul\":19125:19159   */\n      0x46696e616c697a61646120616e74696369706164616d656e746520706f722065\n        /* \"#utility.yul\":19121:19122   */\n      0x00\n        /* \"#utility.yul\":19113:19119   */\n      dup3\n        /* \"#utility.yul\":19109:19123   */\n      add\n        /* \"#utility.yul\":19102:19160   */\n      mstore\n        /* \"#utility.yul\":19194:19211   */\n      0x6c2061646d696e6973747261646f720000000000000000000000000000000000\n        /* \"#utility.yul\":19189:19191   */\n      0x20\n        /* \"#utility.yul\":19181:19187   */\n      dup3\n        /* \"#utility.yul\":19177:19192   */\n      add\n        /* \"#utility.yul\":19170:19212   */\n      mstore\n        /* \"#utility.yul\":18985:19219   */\n      pop\n      jump\t// out\n        /* \"#utility.yul\":19225:19591   */\n    tag_182:\n        /* \"#utility.yul\":19367:19370   */\n      0x00\n        /* \"#utility.yul\":19388:19455   */\n      tag_346\n        /* \"#utility.yul\":19452:19454   */\n      0x2f\n        /* \"#utility.yul\":19447:19450   */\n      dup4\n        /* \"#utility.yul\":19388:19455   */\n      tag_159\n      jump\t// in\n    tag_346:\n        /* \"#utility.yul\":19381:19455   */\n      swap2\n      pop\n        /* \"#utility.yul\":19464:19557   */\n      tag_347\n        /* \"#utility.yul\":19553:19556   */\n      dup3\n        /* \"#utility.yul\":19464:19557   */\n      tag_181\n      jump\t// in\n    tag_347:\n        /* \"#utility.yul\":19582:19584   */\n      0x40\n        /* \"#utility.yul\":19577:19580   */\n      dup3\n        /* \"#utility.yul\":19573:19585   */\n      add\n        /* \"#utility.yul\":19566:19585   */\n      swap1\n      pop\n        /* \"#utility.yul\":19225:19591   */\n      swap2\n      swap1\n      pop\n      jump\t// out\n        /* \"#utility.yul\":19597:20016   */\n    tag_128:\n        /* \"#utility.yul\":19763:19767   */\n      0x00\n        /* \"#utility.yul\":19801:19803   */\n      0x20\n        /* \"#utility.yul\":19790:19799   */\n      dup3\n        /* \"#utility.yul\":19786:19804   */\n      add\n        /* \"#utility.yul\":19778:19804   */\n      swap1\n      pop\n        /* \"#utility.yul\":19850:19859   */\n      dup2\n        /* \"#utility.yul\":19844:19848   */\n      dup2\n        /* \"#utility.yul\":19840:19860   */\n      sub\n        /* \"#utility.yul\":19836:19837   */\n      0x00\n        /* \"#utility.yul\":19825:19834   */\n      dup4\n        /* \"#utility.yul\":19821:19838   */\n      add\n        /* \"#utility.yul\":19814:19861   */\n      mstore\n        /* \"#utility.yul\":19878:20009   */\n      tag_349\n        /* \"#utility.yul\":20004:20008   */\n      dup2\n        /* \"#utility.yul\":19878:20009   */\n      tag_182\n      jump\t// in\n    tag_349:\n        /* \"#utility.yul\":19870:20009   */\n      swap1\n      pop\n        /* \"#utility.yul\":19597:20016   */\n      swap2\n      swap1\n      pop\n      jump\t// out\n\n    auxdata: 0xa26469706673582212205bde8828e7e8e2935e9cbcd54e699861ad361d78457c3cb0c116f7acbd4a2d9a64736f6c634300081f0033\n}\n",
				"bytecode": {
					"linkReferences": {},
					"object": "608060405234801561000f575f5ffd5b50604051611d56380380611d568339818101604052810190610031919061037f565b335f5f6101000a81548173ffffffffffffffffffffffffffffffffffffffff021916908373ffffffffffffffffffffffffffffffffffffffff1602179055504260038190555080426100839190610406565b6004819055505f5f90505b82518110156101155760405180606001604052808281526020018483815181106100bb576100ba610439565b5b602002602001015181526020015f81525060015f8381526020019081526020015f205f820151815f015560208201518160010190816100fa919061066d565b5060408201518160020155905050808060010191505061008e565b50505061073c565b5f604051905090565b5f5ffd5b5f5ffd5b5f5ffd5b5f601f19601f8301169050919050565b7f4e487b71000000000000000000000000000000000000000000000000000000005f52604160045260245ffd5b61017882610132565b810181811067ffffffffffffffff8211171561019757610196610142565b5b80604052505050565b5f6101a961011d565b90506101b5828261016f565b919050565b5f67ffffffffffffffff8211156101d4576101d3610142565b5b602082029050602081019050919050565b5f5ffd5b5f5ffd5b5f67ffffffffffffffff82111561020757610206610142565b5b61021082610132565b9050602081019050919050565b8281835e5f83830152505050565b5f61023d610238846101ed565b6101a0565b905082815260208101848484011115610259576102586101e9565b5b61026484828561021d565b509392505050565b5f82601f8301126102805761027f61012e565b5b815161029084826020860161022b565b91505092915050565b5f6102ab6102a6846101ba565b6101a0565b905080838252602082019050602084028301858111156102ce576102cd6101e5565b5b835b8181101561031557805167ffffffffffffffff8111156102f3576102f261012e565b5b808601610300898261026c565b855260208501945050506020810190506102d0565b5050509392505050565b5f82601f8301126103335761033261012e565b5b8151610343848260208601610299565b91505092915050565b5f819050919050565b61035e8161034c565b8114610368575f5ffd5b50565b5f8151905061037981610355565b92915050565b5f5f6040838503121561039557610394610126565b5b5f83015167ffffffffffffffff8111156103b2576103b161012a565b5b6103be8582860161031f565b92505060206103cf8582860161036b565b9150509250929050565b7f4e487b71000000000000000000000000000000000000000000000000000000005f52601160045260245ffd5b5f6104108261034c565b915061041b8361034c565b9250828201905080821115610433576104326103d9565b5b92915050565b7f4e487b71000000000000000000000000000000000000000000000000000000005f52603260045260245ffd5b5f81519050919050565b7f4e487b71000000000000000000000000000000000000000000000000000000005f52602260045260245ffd5b5f60028204905060018216806104b457607f821691505b6020821081036104c7576104c6610470565b5b50919050565b5f819050815f5260205f209050919050565b5f6020601f8301049050919050565b5f82821b905092915050565b5f600883026105297fffffffffffffffffffffffffffffffffffffffffffffffffffffffffffffffff826104ee565b61053386836104ee565b95508019841693508086168417925050509392505050565b5f819050919050565b5f61056e6105696105648461034c565b61054b565b61034c565b9050919050565b5f819050919050565b61058783610554565b61059b61059382610575565b8484546104fa565b825550505050565b5f5f905090565b6105b26105a3565b6105bd81848461057e565b505050565b5b818110156105e0576105d55f826105aa565b6001810190506105c3565b5050565b601f821115610625576105f6816104cd565b6105ff846104df565b8101602085101561060e578190505b61062261061a856104df565b8301826105c2565b50505b505050565b5f82821c905092915050565b5f6106455f198460080261062a565b1980831691505092915050565b5f61065d8383610636565b9150826002028217905092915050565b61067682610466565b67ffffffffffffffff81111561068f5761068e610142565b5b610699825461049d565b6106a48282856105e4565b5f60209050601f8311600181146106d5575f84156106c3578287015190505b6106cd8582610652565b865550610734565b601f1984166106e3866104cd565b5f5b8281101561070a578489015182556001820191506020850194506020810190506106e5565b868310156107275784890151610723601f891682610636565b8355505b6001600288020188555050505b505050505050565b61160d806107495f395ff3fe608060405234801561000f575f5ffd5b506004361061009c575f3560e01c80638f023f85116100645780638f023f85146101345780639225f3b0146101665780639ed1f25514610184578063a92284d0146101b6578063c3403ddf146101e85761009c565b80630121b93f146100a057806338db6dd3146100bc5780634717f97c146100d85780638cff86cc146100f85780638da5cb5b14610116575b5f5ffd5b6100ba60048036038101906100b59190610c86565b6101f2565b005b6100d660048036038101906100d19190610d0b565b6104f7565b005b6100e06106bd565b6040516100ef93929190610f18565b60405180910390f35b61010061093b565b60405161010d9190610f71565b60405180910390f35b61011e610941565b60405161012b9190610f99565b60405180910390f35b61014e60048036038101906101499190610c86565b610965565b60405161015d93929190610ffa565b60405180910390f35b61016e610a11565b60405161017b9190610f71565b60405180910390f35b61019e60048036038101906101999190610d0b565b610a17565b6040516101ad93929190611050565b60405180910390f35b6101d060048036038101906101cb9190610d0b565b610b01565b6040516101df93929190611050565b60405180910390f35b6101f0610b3f565b005b600354421015610237576040517f08c379a000000000000000000000000000000000000000000000000000000000815260040161022e906110cf565b60405180910390fd5b60045442111561027c576040517f08c379a000000000000000000000000000000000000000000000000000000000815260040161027390611137565b60405180910390fd5b60025f3373ffffffffffffffffffffffffffffffffffffffff1673ffffffffffffffffffffffffffffffffffffffff1681526020019081526020015f205f015f9054906101000a900460ff16610307576040517f08c379a00000000000000000000000000000000000000000000000000000000081526004016102fe9061119f565b60405180910390fd5b60025f3373ffffffffffffffffffffffffffffffffffffffff1673ffffffffffffffffffffffffffffffffffffffff1681526020019081526020015f205f0160019054906101000a900460ff1615610394576040517f08c379a000000000000000000000000000000000000000000000000000000000815260040161038b90611207565b60405180910390fd5b8060015f8381526020019081526020015f205f0154146103e9576040517f08c379a00000000000000000000000000000000000000000000000000000000081526004016103e09061126f565b60405180910390fd5b600160025f3373ffffffffffffffffffffffffffffffffffffffff1673ffffffffffffffffffffffffffffffffffffffff1681526020019081526020015f205f0160016101000a81548160ff0219169083151502179055508060025f3373ffffffffffffffffffffffffffffffffffffffff1673ffffffffffffffffffffffffffffffffffffffff1681526020019081526020015f20600101819055506001805f8381526020019081526020015f206002015f8282546104a991906112ba565b92505081905550803373ffffffffffffffffffffffffffffffffffffffff167fac1dcdb899109d4da03ab9144f50cd414560615119d4abd1a5b043365c81c59560405160405180910390a350565b5f5f9054906101000a900473ffffffffffffffffffffffffffffffffffffffff1673ffffffffffffffffffffffffffffffffffffffff163373ffffffffffffffffffffffffffffffffffffffff1614610585576040517f08c379a000000000000000000000000000000000000000000000000000000000815260040161057c9061135d565b60405180910390fd5b60025f8273ffffffffffffffffffffffffffffffffffffffff1673ffffffffffffffffffffffffffffffffffffffff1681526020019081526020015f205f015f9054906101000a900460ff1615610611576040517f08c379a0000000000000000000000000000000000000000000000000000000008152600401610608906113c5565b60405180910390fd5b60405180606001604052806001151581526020015f151581526020016201869f81525060025f8373ffffffffffffffffffffffffffffffffffffffff1673ffffffffffffffffffffffffffffffffffffffff1681526020019081526020015f205f820151815f015f6101000a81548160ff0219169083151502179055506020820151815f0160016101000a81548160ff0219169083151502179055506040820151816001015590505050565b60608060605f5f90505f5f90505b6064811015610713578060015f8381526020019081526020015f205f0154036107015781806106f9906113e3565b925050610706565b610713565b80806001019150506106cb565b508067ffffffffffffffff81111561072e5761072d61142a565b5b60405190808252806020026020018201604052801561075c5781602001602082028036833780820191505090505b5093508067ffffffffffffffff8111156107795761077861142a565b5b6040519080825280602002602001820160405280156107ac57816020015b60608152602001906001900390816107975790505b5092508067ffffffffffffffff8111156107c9576107c861142a565b5b6040519080825280602002602001820160405280156107f75781602001602082028036833780820191505090505b5091505f5f90505b818110156109345760015f8281526020019081526020015f205f015485828151811061082e5761082d611457565b5b60200260200101818152505060015f8281526020019081526020015f206001018054610859906114b1565b80601f0160208091040260200160405190810160405280929190818152602001828054610885906114b1565b80156108d05780601f106108a7576101008083540402835291602001916108d0565b820191905f5260205f20905b8154815290600101906020018083116108b357829003601f168201915b50505050508482815181106108e8576108e7611457565b5b602002602001018190525060015f8281526020019081526020015f206002015483828151811061091b5761091a611457565b5b60200260200101818152505080806001019150506107ff565b5050909192565b60035481565b5f5f9054906101000a900473ffffffffffffffffffffffffffffffffffffffff1681565b6001602052805f5260405f205f91509050805f01549080600101805461098a906114b1565b80601f01602080910402602001604051908101604052809291908181526020018280546109b6906114b1565b8015610a015780601f106109d857610100808354040283529160200191610a01565b820191905f5260205f20905b8154815290600101906020018083116109e457829003601f168201915b5050505050908060020154905083565b60045481565b5f5f5f60025f8573ffffffffffffffffffffffffffffffffffffffff1673ffffffffffffffffffffffffffffffffffffffff1681526020019081526020015f205f015f9054906101000a900460ff1660025f8673ffffffffffffffffffffffffffffffffffffffff1673ffffffffffffffffffffffffffffffffffffffff1681526020019081526020015f205f0160019054906101000a900460ff1660025f8773ffffffffffffffffffffffffffffffffffffffff1673ffffffffffffffffffffffffffffffffffffffff1681526020019081526020015f20600101549250925092509193909250565b6002602052805f5260405f205f91509050805f015f9054906101000a900460ff1690805f0160019054906101000a900460ff16908060010154905083565b5f5f9054906101000a900473ffffffffffffffffffffffffffffffffffffffff1673ffffffffffffffffffffffffffffffffffffffff163373ffffffffffffffffffffffffffffffffffffffff1614610bcd576040517f08c379a0000000000000000000000000000000000000000000000000000000008152600401610bc49061135d565b60405180910390fd5b6004544210610c11576040517f08c379a0000000000000000000000000000000000000000000000000000000008152600401610c089061152b565b60405180910390fd5b426004819055507fbabe3b8da6535f2cd9f87c37dbce6ddc53fd35264b8c32502c6a560ba2e459bf604051610c45906115b9565b60405180910390a1565b5f5ffd5b5f819050919050565b610c6581610c53565b8114610c6f575f5ffd5b50565b5f81359050610c8081610c5c565b92915050565b5f60208284031215610c9b57610c9a610c4f565b5b5f610ca884828501610c72565b91505092915050565b5f73ffffffffffffffffffffffffffffffffffffffff82169050919050565b5f610cda82610cb1565b9050919050565b610cea81610cd0565b8114610cf4575f5ffd5b50565b5f81359050610d0581610ce1565b92915050565b5f60208284031215610d2057610d1f610c4f565b5b5f610d2d84828501610cf7565b91505092915050565b5f81519050919050565b5f82825260208201905092915050565b5f819050602082019050919050565b610d6881610c53565b82525050565b5f610d798383610d5f565b60208301905092915050565b5f602082019050919050565b5f610d9b82610d36565b610da58185610d40565b9350610db083610d50565b805f5b83811015610de0578151610dc78882610d6e565b9750610dd283610d85565b925050600181019050610db3565b5085935050505092915050565b5f81519050919050565b5f82825260208201905092915050565b5f819050602082019050919050565b5f81519050919050565b5f82825260208201905092915050565b8281835e5f83830152505050565b5f601f19601f8301169050919050565b5f610e5882610e16565b610e628185610e20565b9350610e72818560208601610e30565b610e7b81610e3e565b840191505092915050565b5f610e918383610e4e565b905092915050565b5f602082019050919050565b5f610eaf82610ded565b610eb98185610df7565b935083602082028501610ecb85610e07565b805f5b85811015610f065784840389528151610ee78582610e86565b9450610ef283610e99565b925060208a01995050600181019050610ece565b50829750879550505050505092915050565b5f6060820190508181035f830152610f308186610d91565b90508181036020830152610f448185610ea5565b90508181036040830152610f588184610d91565b9050949350505050565b610f6b81610c53565b82525050565b5f602082019050610f845f830184610f62565b92915050565b610f9381610cd0565b82525050565b5f602082019050610fac5f830184610f8a565b92915050565b5f82825260208201905092915050565b5f610fcc82610e16565b610fd68185610fb2565b9350610fe6818560208601610e30565b610fef81610e3e565b840191505092915050565b5f60608201905061100d5f830186610f62565b818103602083015261101f8185610fc2565b905061102e6040830184610f62565b949350505050565b5f8115159050919050565b61104a81611036565b82525050565b5f6060820190506110635f830186611041565b6110706020830185611041565b61107d6040830184610f62565b949350505050565b7f4c6120766f746163696f6e2061756e206e6f20686120696e69636961646f00005f82015250565b5f6110b9601e83610fb2565b91506110c482611085565b602082019050919050565b5f6020820190508181035f8301526110e6816110ad565b9050919050565b7f4c6120766f746163696f6e2079612068612066696e616c697a61646f000000005f82015250565b5f611121601c83610fb2565b915061112c826110ed565b602082019050919050565b5f6020820190508181035f83015261114e81611115565b9050919050565b7f4e6f206573746173206175746f72697a61646f207061726120766f74617200005f82015250565b5f611189601e83610fb2565b915061119482611155565b602082019050919050565b5f6020820190508181035f8301526111b68161117d565b9050919050565b7f59612068617320656d697469646f20747520766f746f000000000000000000005f82015250565b5f6111f1601683610fb2565b91506111fc826111bd565b602082019050919050565b5f6020820190508181035f83015261121e816111e5565b9050919050565b7f43616e64696461746f206e6f2076616c69646f000000000000000000000000005f82015250565b5f611259601383610fb2565b915061126482611225565b602082019050919050565b5f6020820190508181035f8301526112868161124d565b9050919050565b7f4e487b71000000000000000000000000000000000000000000000000000000005f52601160045260245ffd5b5f6112c482610c53565b91506112cf83610c53565b92508282019050808211156112e7576112e661128d565b5b92915050565b7f536f6c6f20656c2061646d696e6973747261646f7220707565646520686163655f8201527f72206573746f0000000000000000000000000000000000000000000000000000602082015250565b5f611347602683610fb2565b9150611352826112ed565b604082019050919050565b5f6020820190508181035f8301526113748161133b565b9050919050565b7f4573746520766f74616e74652079612065737461207265676973747261646f005f82015250565b5f6113af601f83610fb2565b91506113ba8261137b565b602082019050919050565b5f6020820190508181035f8301526113dc816113a3565b9050919050565b5f6113ed82610c53565b91507fffffffffffffffffffffffffffffffffffffffffffffffffffffffffffffffff820361141f5761141e61128d565b5b600182019050919050565b7f4e487b71000000000000000000000000000000000000000000000000000000005f52604160045260245ffd5b7f4e487b71000000000000000000000000000000000000000000000000000000005f52603260045260245ffd5b7f4e487b71000000000000000000000000000000000000000000000000000000005f52602260045260245ffd5b5f60028204905060018216806114c857607f821691505b6020821081036114db576114da611484565b5b50919050565b7f4c6120766f746163696f6e207961207465726d696e6f000000000000000000005f82015250565b5f611515601683610fb2565b9150611520826114e1565b602082019050919050565b5f6020820190508181035f83015261154281611509565b9050919050565b7f46696e616c697a61646120616e74696369706164616d656e746520706f7220655f8201527f6c2061646d696e6973747261646f720000000000000000000000000000000000602082015250565b5f6115a3602f83610fb2565b91506115ae82611549565b604082019050919050565b5f6020820190508181035f8301526115d081611597565b905091905056fea26469706673582212205bde8828e7e8e2935e9cbcd54e699861ad361d78457c3cb0c116f7acbd4a2d9a64736f6c634300081f0033",
					"opcodes": "PUSH1 0x80 PUSH1 0x40 MSTORE CALLVALUE DUP1 ISZERO PUSH2 0xF JUMPI PUSH0 PUSH0 REVERT JUMPDEST POP PUSH1 0x40 MLOAD PUSH2 0x1D56 CODESIZE SUB DUP1 PUSH2 0x1D56 DUP4 CODECOPY DUP2 DUP2 ADD PUSH1 0x40 MSTORE DUP2 ADD SWAP1 PUSH2 0x31 SWAP2 SWAP1 PUSH2 0x37F JUMP JUMPDEST CALLER PUSH0 PUSH0 PUSH2 0x100 EXP DUP2 SLOAD DUP2 PUSH20 0xFFFFFFFFFFFFFFFFFFFFFFFFFFFFFFFFFFFFFFFF MUL NOT AND SWAP1 DUP4 PUSH20 0xFFFFFFFFFFFFFFFFFFFFFFFFFFFFFFFFFFFFFFFF AND MUL OR SWAP1 SSTORE POP TIMESTAMP PUSH1 0x3 DUP2 SWAP1 SSTORE POP DUP1 TIMESTAMP PUSH2 0x83 SWAP2 SWAP1 PUSH2 0x406 JUMP JUMPDEST PUSH1 0x4 DUP2 SWAP1 SSTORE POP PUSH0 PUSH0 SWAP1 POP JUMPDEST DUP3 MLOAD DUP2 LT ISZERO PUSH2 0x115 JUMPI PUSH1 0x40 MLOAD DUP1 PUSH1 0x60 ADD PUSH1 0x40 MSTORE DUP1 DUP3 DUP2 MSTORE PUSH1 0x20 ADD DUP5 DUP4 DUP2 MLOAD DUP2 LT PUSH2 0xBB JUMPI PUSH2 0xBA PUSH2 0x439 JUMP JUMPDEST JUMPDEST PUSH1 0x20 MUL PUSH1 0x20 ADD ADD MLOAD DUP2 MSTORE PUSH1 0x20 ADD PUSH0 DUP2 MSTORE POP PUSH1 0x1 PUSH0 DUP4 DUP2 MSTORE PUSH1 0x20 ADD SWAP1 DUP2 MSTORE PUSH1 0x20 ADD PUSH0 KECCAK256 PUSH0 DUP3 ADD MLOAD DUP2 PUSH0 ADD SSTORE PUSH1 0x20 DUP3 ADD MLOAD DUP2 PUSH1 0x1 ADD SWAP1 DUP2 PUSH2 0xFA SWAP2 SWAP1 PUSH2 0x66D JUMP JUMPDEST POP PUSH1 0x40 DUP3 ADD MLOAD DUP2 PUSH1 0x2 ADD SSTORE SWAP1 POP POP DUP1 DUP1 PUSH1 0x1 ADD SWAP2 POP POP PUSH2 0x8E JUMP JUMPDEST POP POP POP PUSH2 0x73C JUMP JUMPDEST PUSH0 PUSH1 0x40 MLOAD SWAP1 POP SWAP1 JUMP JUMPDEST PUSH0 PUSH0 REVERT JUMPDEST PUSH0 PUSH0 REVERT JUMPDEST PUSH0 PUSH0 REVERT JUMPDEST PUSH0 PUSH1 0x1F NOT PUSH1 0x1F DUP4 ADD AND SWAP1 POP SWAP2 SWAP1 POP JUMP JUMPDEST PUSH32 0x4E487B7100000000000000000000000000000000000000000000000000000000 PUSH0 MSTORE PUSH1 0x41 PUSH1 0x4 MSTORE PUSH1 0x24 PUSH0 REVERT JUMPDEST PUSH2 0x178 DUP3 PUSH2 0x132 JUMP JUMPDEST DUP2 ADD DUP2 DUP2 LT PUSH8 0xFFFFFFFFFFFFFFFF DUP3 GT OR ISZERO PUSH2 0x197 JUMPI PUSH2 0x196 PUSH2 0x142 JUMP JUMPDEST JUMPDEST DUP1 PUSH1 0x40 MSTORE POP POP POP JUMP JUMPDEST PUSH0 PUSH2 0x1A9 PUSH2 0x11D JUMP JUMPDEST SWAP1 POP PUSH2 0x1B5 DUP3 DUP3 PUSH2 0x16F JUMP JUMPDEST SWAP2 SWAP1 POP JUMP JUMPDEST PUSH0 PUSH8 0xFFFFFFFFFFFFFFFF DUP3 GT ISZERO PUSH2 0x1D4 JUMPI PUSH2 0x1D3 PUSH2 0x142 JUMP JUMPDEST JUMPDEST PUSH1 0x20 DUP3 MUL SWAP1 POP PUSH1 0x20 DUP2 ADD SWAP1 POP SWAP2 SWAP1 POP JUMP JUMPDEST PUSH0 PUSH0 REVERT JUMPDEST PUSH0 PUSH0 REVERT JUMPDEST PUSH0 PUSH8 0xFFFFFFFFFFFFFFFF DUP3 GT ISZERO PUSH2 0x207 JUMPI PUSH2 0x206 PUSH2 0x142 JUMP JUMPDEST JUMPDEST PUSH2 0x210 DUP3 PUSH2 0x132 JUMP JUMPDEST SWAP1 POP PUSH1 0x20 DUP2 ADD SWAP1 POP SWAP2 SWAP1 POP JUMP JUMPDEST DUP3 DUP2 DUP4 MCOPY PUSH0 DUP4 DUP4 ADD MSTORE POP POP POP JUMP JUMPDEST PUSH0 PUSH2 0x23D PUSH2 0x238 DUP5 PUSH2 0x1ED JUMP JUMPDEST PUSH2 0x1A0 JUMP JUMPDEST SWAP1 POP DUP3 DUP2 MSTORE PUSH1 0x20 DUP2 ADD DUP5 DUP5 DUP5 ADD GT ISZERO PUSH2 0x259 JUMPI PUSH2 0x258 PUSH2 0x1E9 JUMP JUMPDEST JUMPDEST PUSH2 0x264 DUP5 DUP3 DUP6 PUSH2 0x21D JUMP JUMPDEST POP SWAP4 SWAP3 POP POP POP JUMP JUMPDEST PUSH0 DUP3 PUSH1 0x1F DUP4 ADD SLT PUSH2 0x280 JUMPI PUSH2 0x27F PUSH2 0x12E JUMP JUMPDEST JUMPDEST DUP2 MLOAD PUSH2 0x290 DUP5 DUP3 PUSH1 0x20 DUP7 ADD PUSH2 0x22B JUMP JUMPDEST SWAP2 POP POP SWAP3 SWAP2 POP POP JUMP JUMPDEST PUSH0 PUSH2 0x2AB PUSH2 0x2A6 DUP5 PUSH2 0x1BA JUMP JUMPDEST PUSH2 0x1A0 JUMP JUMPDEST SWAP1 POP DUP1 DUP4 DUP3 MSTORE PUSH1 0x20 DUP3 ADD SWAP1 POP PUSH1 0x20 DUP5 MUL DUP4 ADD DUP6 DUP2 GT ISZERO PUSH2 0x2CE JUMPI PUSH2 0x2CD PUSH2 0x1E5 JUMP JUMPDEST JUMPDEST DUP4 JUMPDEST DUP2 DUP2 LT ISZERO PUSH2 0x315 JUMPI DUP1 MLOAD PUSH8 0xFFFFFFFFFFFFFFFF DUP2 GT ISZERO PUSH2 0x2F3 JUMPI PUSH2 0x2F2 PUSH2 0x12E JUMP JUMPDEST JUMPDEST DUP1 DUP7 ADD PUSH2 0x300 DUP10 DUP3 PUSH2 0x26C JUMP JUMPDEST DUP6 MSTORE PUSH1 0x20 DUP6 ADD SWAP5 POP POP POP PUSH1 0x20 DUP2 ADD SWAP1 POP PUSH2 0x2D0 JUMP JUMPDEST POP POP POP SWAP4 SWAP3 POP POP POP JUMP JUMPDEST PUSH0 DUP3 PUSH1 0x1F DUP4 ADD SLT PUSH2 0x333 JUMPI PUSH2 0x332 PUSH2 0x12E JUMP JUMPDEST JUMPDEST DUP2 MLOAD PUSH2 0x343 DUP5 DUP3 PUSH1 0x20 DUP7 ADD PUSH2 0x299 JUMP JUMPDEST SWAP2 POP POP SWAP3 SWAP2 POP POP JUMP JUMPDEST PUSH0 DUP2 SWAP1 POP SWAP2 SWAP1 POP JUMP JUMPDEST PUSH2 0x35E DUP2 PUSH2 0x34C JUMP JUMPDEST DUP2 EQ PUSH2 0x368 JUMPI PUSH0 PUSH0 REVERT JUMPDEST POP JUMP JUMPDEST PUSH0 DUP2 MLOAD SWAP1 POP PUSH2 0x379 DUP2 PUSH2 0x355 JUMP JUMPDEST SWAP3 SWAP2 POP POP JUMP JUMPDEST PUSH0 PUSH0 PUSH1 0x40 DUP4 DUP6 SUB SLT ISZERO PUSH2 0x395 JUMPI PUSH2 0x394 PUSH2 0x126 JUMP JUMPDEST JUMPDEST PUSH0 DUP4 ADD MLOAD PUSH8 0xFFFFFFFFFFFFFFFF DUP2 GT ISZERO PUSH2 0x3B2 JUMPI PUSH2 0x3B1 PUSH2 0x12A JUMP JUMPDEST JUMPDEST PUSH2 0x3BE DUP6 DUP3 DUP7 ADD PUSH2 0x31F JUMP JUMPDEST SWAP3 POP POP PUSH1 0x20 PUSH2 0x3CF DUP6 DUP3 DUP7 ADD PUSH2 0x36B JUMP JUMPDEST SWAP2 POP POP SWAP3 POP SWAP3 SWAP1 POP JUMP JUMPDEST PUSH32 0x4E487B7100000000000000000000000000000000000000000000000000000000 PUSH0 MSTORE PUSH1 0x11 PUSH1 0x4 MSTORE PUSH1 0x24 PUSH0 REVERT JUMPDEST PUSH0 PUSH2 0x410 DUP3 PUSH2 0x34C JUMP JUMPDEST SWAP2 POP PUSH2 0x41B DUP4 PUSH2 0x34C JUMP JUMPDEST SWAP3 POP DUP3 DUP3 ADD SWAP1 POP DUP1 DUP3 GT ISZERO PUSH2 0x433 JUMPI PUSH2 0x432 PUSH2 0x3D9 JUMP JUMPDEST JUMPDEST SWAP3 SWAP2 POP POP JUMP JUMPDEST PUSH32 0x4E487B7100000000000000000000000000000000000000000000000000000000 PUSH0 MSTORE PUSH1 0x32 PUSH1 0x4 MSTORE PUSH1 0x24 PUSH0 REVERT JUMPDEST PUSH0 DUP2 MLOAD SWAP1 POP SWAP2 SWAP1 POP JUMP JUMPDEST PUSH32 0x4E487B7100000000000000000000000000000000000000000000000000000000 PUSH0 MSTORE PUSH1 0x22 PUSH1 0x4 MSTORE PUSH1 0x24 PUSH0 REVERT JUMPDEST PUSH0 PUSH1 0x2 DUP3 DIV SWAP1 POP PUSH1 0x1 DUP3 AND DUP1 PUSH2 0x4B4 JUMPI PUSH1 0x7F DUP3 AND SWAP2 POP JUMPDEST PUSH1 0x20 DUP3 LT DUP2 SUB PUSH2 0x4C7 JUMPI PUSH2 0x4C6 PUSH2 0x470 JUMP JUMPDEST JUMPDEST POP SWAP2 SWAP1 POP JUMP JUMPDEST PUSH0 DUP2 SWAP1 POP DUP2 PUSH0 MSTORE PUSH1 0x20 PUSH0 KECCAK256 SWAP1 POP SWAP2 SWAP1 POP JUMP JUMPDEST PUSH0 PUSH1 0x20 PUSH1 0x1F DUP4 ADD DIV SWAP1 POP SWAP2 SWAP1 POP JUMP JUMPDEST PUSH0 DUP3 DUP3 SHL SWAP1 POP SWAP3 SWAP2 POP POP JUMP JUMPDEST PUSH0 PUSH1 0x8 DUP4 MUL PUSH2 0x529 PUSH32 0xFFFFFFFFFFFFFFFFFFFFFFFFFFFFFFFFFFFFFFFFFFFFFFFFFFFFFFFFFFFFFFFF DUP3 PUSH2 0x4EE JUMP JUMPDEST PUSH2 0x533 DUP7 DUP4 PUSH2 0x4EE JUMP JUMPDEST SWAP6 POP DUP1 NOT DUP5 AND SWAP4 POP DUP1 DUP7 AND DUP5 OR SWAP3 POP POP POP SWAP4 SWAP3 POP POP POP JUMP JUMPDEST PUSH0 DUP2 SWAP1 POP SWAP2 SWAP1 POP JUMP JUMPDEST PUSH0 PUSH2 0x56E PUSH2 0x569 PUSH2 0x564 DUP5 PUSH2 0x34C JUMP JUMPDEST PUSH2 0x54B JUMP JUMPDEST PUSH2 0x34C JUMP JUMPDEST SWAP1 POP SWAP2 SWAP1 POP JUMP JUMPDEST PUSH0 DUP2 SWAP1 POP SWAP2 SWAP1 POP JUMP JUMPDEST PUSH2 0x587 DUP4 PUSH2 0x554 JUMP JUMPDEST PUSH2 0x59B PUSH2 0x593 DUP3 PUSH2 0x575 JUMP JUMPDEST DUP5 DUP5 SLOAD PUSH2 0x4FA JUMP JUMPDEST DUP3 SSTORE POP POP POP POP JUMP JUMPDEST PUSH0 PUSH0 SWAP1 POP SWAP1 JUMP JUMPDEST PUSH2 0x5B2 PUSH2 0x5A3 JUMP JUMPDEST PUSH2 0x5BD DUP2 DUP5 DUP5 PUSH2 0x57E JUMP JUMPDEST POP POP POP JUMP JUMPDEST JUMPDEST DUP2 DUP2 LT ISZERO PUSH2 0x5E0 JUMPI PUSH2 0x5D5 PUSH0 DUP3 PUSH2 0x5AA JUMP JUMPDEST PUSH1 0x1 DUP2 ADD SWAP1 POP PUSH2 0x5C3 JUMP JUMPDEST POP POP JUMP JUMPDEST PUSH1 0x1F DUP3 GT ISZERO PUSH2 0x625 JUMPI PUSH2 0x5F6 DUP2 PUSH2 0x4CD JUMP JUMPDEST PUSH2 0x5FF DUP5 PUSH2 0x4DF JUMP JUMPDEST DUP2 ADD PUSH1 0x20 DUP6 LT ISZERO PUSH2 0x60E JUMPI DUP2 SWAP1 POP JUMPDEST PUSH2 0x622 PUSH2 0x61A DUP6 PUSH2 0x4DF JUMP JUMPDEST DUP4 ADD DUP3 PUSH2 0x5C2 JUMP JUMPDEST POP POP JUMPDEST POP POP POP JUMP JUMPDEST PUSH0 DUP3 DUP3 SHR SWAP1 POP SWAP3 SWAP2 POP POP JUMP JUMPDEST PUSH0 PUSH2 0x645 PUSH0 NOT DUP5 PUSH1 0x8 MUL PUSH2 0x62A JUMP JUMPDEST NOT DUP1 DUP4 AND SWAP2 POP POP SWAP3 SWAP2 POP POP JUMP JUMPDEST PUSH0 PUSH2 0x65D DUP4 DUP4 PUSH2 0x636 JUMP JUMPDEST SWAP2 POP DUP3 PUSH1 0x2 MUL DUP3 OR SWAP1 POP SWAP3 SWAP2 POP POP JUMP JUMPDEST PUSH2 0x676 DUP3 PUSH2 0x466 JUMP JUMPDEST PUSH8 0xFFFFFFFFFFFFFFFF DUP2 GT ISZERO PUSH2 0x68F JUMPI PUSH2 0x68E PUSH2 0x142 JUMP JUMPDEST JUMPDEST PUSH2 0x699 DUP3 SLOAD PUSH2 0x49D JUMP JUMPDEST PUSH2 0x6A4 DUP3 DUP3 DUP6 PUSH2 0x5E4 JUMP JUMPDEST PUSH0 PUSH1 0x20 SWAP1 POP PUSH1 0x1F DUP4 GT PUSH1 0x1 DUP2 EQ PUSH2 0x6D5 JUMPI PUSH0 DUP5 ISZERO PUSH2 0x6C3 JUMPI DUP3 DUP8 ADD MLOAD SWAP1 POP JUMPDEST PUSH2 0x6CD DUP6 DUP3 PUSH2 0x652 JUMP JUMPDEST DUP7 SSTORE POP PUSH2 0x734 JUMP JUMPDEST PUSH1 0x1F NOT DUP5 AND PUSH2 0x6E3 DUP7 PUSH2 0x4CD JUMP JUMPDEST PUSH0 JUMPDEST DUP3 DUP2 LT ISZERO PUSH2 0x70A JUMPI DUP5 DUP10 ADD MLOAD DUP3 SSTORE PUSH1 0x1 DUP3 ADD SWAP2 POP PUSH1 0x20 DUP6 ADD SWAP5 POP PUSH1 0x20 DUP2 ADD SWAP1 POP PUSH2 0x6E5 JUMP JUMPDEST DUP7 DUP4 LT ISZERO PUSH2 0x727 JUMPI DUP5 DUP10 ADD MLOAD PUSH2 0x723 PUSH1 0x1F DUP10 AND DUP3 PUSH2 0x636 JUMP JUMPDEST DUP4 SSTORE POP JUMPDEST PUSH1 0x1 PUSH1 0x2 DUP9 MUL ADD DUP9 SSTORE POP POP POP JUMPDEST POP POP POP POP POP POP JUMP JUMPDEST PUSH2 0x160D DUP1 PUSH2 0x749 PUSH0 CODECOPY PUSH0 RETURN INVALID PUSH1 0x80 PUSH1 0x40 MSTORE CALLVALUE DUP1 ISZERO PUSH2 0xF JUMPI PUSH0 PUSH0 REVERT JUMPDEST POP PUSH1 0x4 CALLDATASIZE LT PUSH2 0x9C JUMPI PUSH0 CALLDATALOAD PUSH1 0xE0 SHR DUP1 PUSH4 0x8F023F85 GT PUSH2 0x64 JUMPI DUP1 PUSH4 0x8F023F85 EQ PUSH2 0x134 JUMPI DUP1 PUSH4 0x9225F3B0 EQ PUSH2 0x166 JUMPI DUP1 PUSH4 0x9ED1F255 EQ PUSH2 0x184 JUMPI DUP1 PUSH4 0xA92284D0 EQ PUSH2 0x1B6 JUMPI DUP1 PUSH4 0xC3403DDF EQ PUSH2 0x1E8 JUMPI PUSH2 0x9C JUMP JUMPDEST DUP1 PUSH4 0x121B93F EQ PUSH2 0xA0 JUMPI DUP1 PUSH4 0x38DB6DD3 EQ PUSH2 0xBC JUMPI DUP1 PUSH4 0x4717F97C EQ PUSH2 0xD8 JUMPI DUP1 PUSH4 0x8CFF86CC EQ PUSH2 0xF8 JUMPI DUP1 PUSH4 0x8DA5CB5B EQ PUSH2 0x116 JUMPI JUMPDEST PUSH0 PUSH0 REVERT JUMPDEST PUSH2 0xBA PUSH1 0x4 DUP1 CALLDATASIZE SUB DUP2 ADD SWAP1 PUSH2 0xB5 SWAP2 SWAP1 PUSH2 0xC86 JUMP JUMPDEST PUSH2 0x1F2 JUMP JUMPDEST STOP JUMPDEST PUSH2 0xD6 PUSH1 0x4 DUP1 CALLDATASIZE SUB DUP2 ADD SWAP1 PUSH2 0xD1 SWAP2 SWAP1 PUSH2 0xD0B JUMP JUMPDEST PUSH2 0x4F7 JUMP JUMPDEST STOP JUMPDEST PUSH2 0xE0 PUSH2 0x6BD JUMP JUMPDEST PUSH1 0x40 MLOAD PUSH2 0xEF SWAP4 SWAP3 SWAP2 SWAP1 PUSH2 0xF18 JUMP JUMPDEST PUSH1 0x40 MLOAD DUP1 SWAP2 SUB SWAP1 RETURN JUMPDEST PUSH2 0x100 PUSH2 0x93B JUMP JUMPDEST PUSH1 0x40 MLOAD PUSH2 0x10D SWAP2 SWAP1 PUSH2 0xF71 JUMP JUMPDEST PUSH1 0x40 MLOAD DUP1 SWAP2 SUB SWAP1 RETURN JUMPDEST PUSH2 0x11E PUSH2 0x941 JUMP JUMPDEST PUSH1 0x40 MLOAD PUSH2 0x12B SWAP2 SWAP1 PUSH2 0xF99 JUMP JUMPDEST PUSH1 0x40 MLOAD DUP1 SWAP2 SUB SWAP1 RETURN JUMPDEST PUSH2 0x14E PUSH1 0x4 DUP1 CALLDATASIZE SUB DUP2 ADD SWAP1 PUSH2 0x149 SWAP2 SWAP1 PUSH2 0xC86 JUMP JUMPDEST PUSH2 0x965 JUMP JUMPDEST PUSH1 0x40 MLOAD PUSH2 0x15D SWAP4 SWAP3 SWAP2 SWAP1 PUSH2 0xFFA JUMP JUMPDEST PUSH1 0x40 MLOAD DUP1 SWAP2 SUB SWAP1 RETURN JUMPDEST PUSH2 0x16E PUSH2 0xA11 JUMP JUMPDEST PUSH1 0x40 MLOAD PUSH2 0x17B SWAP2 SWAP1 PUSH2 0xF71 JUMP JUMPDEST PUSH1 0x40 MLOAD DUP1 SWAP2 SUB SWAP1 RETURN JUMPDEST PUSH2 0x19E PUSH1 0x4 DUP1 CALLDATASIZE SUB DUP2 ADD SWAP1 PUSH2 0x199 SWAP2 SWAP1 PUSH2 0xD0B JUMP JUMPDEST PUSH2 0xA17 JUMP JUMPDEST PUSH1 0x40 MLOAD PUSH2 0x1AD SWAP4 SWAP3 SWAP2 SWAP1 PUSH2 0x1050 JUMP JUMPDEST PUSH1 0x40 MLOAD DUP1 SWAP2 SUB SWAP1 RETURN JUMPDEST PUSH2 0x1D0 PUSH1 0x4 DUP1 CALLDATASIZE SUB DUP2 ADD SWAP1 PUSH2 0x1CB SWAP2 SWAP1 PUSH2 0xD0B JUMP JUMPDEST PUSH2 0xB01 JUMP JUMPDEST PUSH1 0x40 MLOAD PUSH2 0x1DF SWAP4 SWAP3 SWAP2 SWAP1 PUSH2 0x1050 JUMP JUMPDEST PUSH1 0x40 MLOAD DUP1 SWAP2 SUB SWAP1 RETURN JUMPDEST PUSH2 0x1F0 PUSH2 0xB3F JUMP JUMPDEST STOP JUMPDEST PUSH1 0x3 SLOAD TIMESTAMP LT ISZERO PUSH2 0x237 JUMPI PUSH1 0x40 MLOAD PUSH32 0x8C379A000000000000000000000000000000000000000000000000000000000 DUP2 MSTORE PUSH1 0x4 ADD PUSH2 0x22E SWAP1 PUSH2 0x10CF JUMP JUMPDEST PUSH1 0x40 MLOAD DUP1 SWAP2 SUB SWAP1 REVERT JUMPDEST PUSH1 0x4 SLOAD TIMESTAMP GT ISZERO PUSH2 0x27C JUMPI PUSH1 0x40 MLOAD PUSH32 0x8C379A000000000000000000000000000000000000000000000000000000000 DUP2 MSTORE PUSH1 0x4 ADD PUSH2 0x273 SWAP1 PUSH2 0x1137 JUMP JUMPDEST PUSH1 0x40 MLOAD DUP1 SWAP2 SUB SWAP1 REVERT JUMPDEST PUSH1 0x2 PUSH0 CALLER PUSH20 0xFFFFFFFFFFFFFFFFFFFFFFFFFFFFFFFFFFFFFFFF AND PUSH20 0xFFFFFFFFFFFFFFFFFFFFFFFFFFFFFFFFFFFFFFFF AND DUP2 MSTORE PUSH1 0x20 ADD SWAP1 DUP2 MSTORE PUSH1 0x20 ADD PUSH0 KECCAK256 PUSH0 ADD PUSH0 SWAP1 SLOAD SWAP1 PUSH2 0x100 EXP SWAP1 DIV PUSH1 0xFF AND PUSH2 0x307 JUMPI PUSH1 0x40 MLOAD PUSH32 0x8C379A000000000000000000000000000000000000000000000000000000000 DUP2 MSTORE PUSH1 0x4 ADD PUSH2 0x2FE SWAP1 PUSH2 0x119F JUMP JUMPDEST PUSH1 0x40 MLOAD DUP1 SWAP2 SUB SWAP1 REVERT JUMPDEST PUSH1 0x2 PUSH0 CALLER PUSH20 0xFFFFFFFFFFFFFFFFFFFFFFFFFFFFFFFFFFFFFFFF AND PUSH20 0xFFFFFFFFFFFFFFFFFFFFFFFFFFFFFFFFFFFFFFFF AND DUP2 MSTORE PUSH1 0x20 ADD SWAP1 DUP2 MSTORE PUSH1 0x20 ADD PUSH0 KECCAK256 PUSH0 ADD PUSH1 0x1 SWAP1 SLOAD SWAP1 PUSH2 0x100 EXP SWAP1 DIV PUSH1 0xFF AND ISZERO PUSH2 0x394 JUMPI PUSH1 0x40 MLOAD PUSH32 0x8C379A000000000000000000000000000000000000000000000000000000000 DUP2 MSTORE PUSH1 0x4 ADD PUSH2 0x38B SWAP1 PUSH2 0x1207 JUMP JUMPDEST PUSH1 0x40 MLOAD DUP1 SWAP2 SUB SWAP1 REVERT JUMPDEST DUP1 PUSH1 0x1 PUSH0 DUP4 DUP2 MSTORE PUSH1 0x20 ADD SWAP1 DUP2 MSTORE PUSH1 0x20 ADD PUSH0 KECCAK256 PUSH0 ADD SLOAD EQ PUSH2 0x3E9 JUMPI PUSH1 0x40 MLOAD PUSH32 0x8C379A000000000000000000000000000000000000000000000000000000000 DUP2 MSTORE PUSH1 0x4 ADD PUSH2 0x3E0 SWAP1 PUSH2 0x126F JUMP JUMPDEST PUSH1 0x40 MLOAD DUP1 SWAP2 SUB SWAP1 REVERT JUMPDEST PUSH1 0x1 PUSH1 0x2 PUSH0 CALLER PUSH20 0xFFFFFFFFFFFFFFFFFFFFFFFFFFFFFFFFFFFFFFFF AND PUSH20 0xFFFFFFFFFFFFFFFFFFFFFFFFFFFFFFFFFFFFFFFF AND DUP2 MSTORE PUSH1 0x20 ADD SWAP1 DUP2 MSTORE PUSH1 0x20 ADD PUSH0 KECCAK256 PUSH0 ADD PUSH1 0x1 PUSH2 0x100 EXP DUP2 SLOAD DUP2 PUSH1 0xFF MUL NOT AND SWAP1 DUP4 ISZERO ISZERO MUL OR SWAP1 SSTORE POP DUP1 PUSH1 0x2 PUSH0 CALLER PUSH20 0xFFFFFFFFFFFFFFFFFFFFFFFFFFFFFFFFFFFFFFFF AND PUSH20 0xFFFFFFFFFFFFFFFFFFFFFFFFFFFFFFFFFFFFFFFF AND DUP2 MSTORE PUSH1 0x20 ADD SWAP1 DUP2 MSTORE PUSH1 0x20 ADD PUSH0 KECCAK256 PUSH1 0x1 ADD DUP2 SWAP1 SSTORE POP PUSH1 0x1 DUP1 PUSH0 DUP4 DUP2 MSTORE PUSH1 0x20 ADD SWAP1 DUP2 MSTORE PUSH1 0x20 ADD PUSH0 KECCAK256 PUSH1 0x2 ADD PUSH0 DUP3 DUP3 SLOAD PUSH2 0x4A9 SWAP2 SWAP1 PUSH2 0x12BA JUMP JUMPDEST SWAP3 POP POP DUP2 SWAP1 SSTORE POP DUP1 CALLER PUSH20 0xFFFFFFFFFFFFFFFFFFFFFFFFFFFFFFFFFFFFFFFF AND PUSH32 0xAC1DCDB899109D4DA03AB9144F50CD414560615119D4ABD1A5B043365C81C595 PUSH1 0x40 MLOAD PUSH1 0x40 MLOAD DUP1 SWAP2 SUB SWAP1 LOG3 POP JUMP JUMPDEST PUSH0 PUSH0 SWAP1 SLOAD SWAP1 PUSH2 0x100 EXP SWAP1 DIV PUSH20 0xFFFFFFFFFFFFFFFFFFFFFFFFFFFFFFFFFFFFFFFF AND PUSH20 0xFFFFFFFFFFFFFFFFFFFFFFFFFFFFFFFFFFFFFFFF AND CALLER PUSH20 0xFFFFFFFFFFFFFFFFFFFFFFFFFFFFFFFFFFFFFFFF AND EQ PUSH2 0x585 JUMPI PUSH1 0x40 MLOAD PUSH32 0x8C379A000000000000000000000000000000000000000000000000000000000 DUP2 MSTORE PUSH1 0x4 ADD PUSH2 0x57C SWAP1 PUSH2 0x135D JUMP JUMPDEST PUSH1 0x40 MLOAD DUP1 SWAP2 SUB SWAP1 REVERT JUMPDEST PUSH1 0x2 PUSH0 DUP3 PUSH20 0xFFFFFFFFFFFFFFFFFFFFFFFFFFFFFFFFFFFFFFFF AND PUSH20 0xFFFFFFFFFFFFFFFFFFFFFFFFFFFFFFFFFFFFFFFF AND DUP2 MSTORE PUSH1 0x20 ADD SWAP1 DUP2 MSTORE PUSH1 0x20 ADD PUSH0 KECCAK256 PUSH0 ADD PUSH0 SWAP1 SLOAD SWAP1 PUSH2 0x100 EXP SWAP1 DIV PUSH1 0xFF AND ISZERO PUSH2 0x611 JUMPI PUSH1 0x40 MLOAD PUSH32 0x8C379A000000000000000000000000000000000000000000000000000000000 DUP2 MSTORE PUSH1 0x4 ADD PUSH2 0x608 SWAP1 PUSH2 0x13C5 JUMP JUMPDEST PUSH1 0x40 MLOAD DUP1 SWAP2 SUB SWAP1 REVERT JUMPDEST PUSH1 0x40 MLOAD DUP1 PUSH1 0x60 ADD PUSH1 0x40 MSTORE DUP1 PUSH1 0x1 ISZERO ISZERO DUP2 MSTORE PUSH1 0x20 ADD PUSH0 ISZERO ISZERO DUP2 MSTORE PUSH1 0x20 ADD PUSH3 0x1869F DUP2 MSTORE POP PUSH1 0x2 PUSH0 DUP4 PUSH20 0xFFFFFFFFFFFFFFFFFFFFFFFFFFFFFFFFFFFFFFFF AND PUSH20 0xFFFFFFFFFFFFFFFFFFFFFFFFFFFFFFFFFFFFFFFF AND DUP2 MSTORE PUSH1 0x20 ADD SWAP1 DUP2 MSTORE PUSH1 0x20 ADD PUSH0 KECCAK256 PUSH0 DUP3 ADD MLOAD DUP2 PUSH0 ADD PUSH0 PUSH2 0x100 EXP DUP2 SLOAD DUP2 PUSH1 0xFF MUL NOT AND SWAP1 DUP4 ISZERO ISZERO MUL OR SWAP1 SSTORE POP PUSH1 0x20 DUP3 ADD MLOAD DUP2 PUSH0 ADD PUSH1 0x1 PUSH2 0x100 EXP DUP2 SLOAD DUP2 PUSH1 0xFF MUL NOT AND SWAP1 DUP4 ISZERO ISZERO MUL OR SWAP1 SSTORE POP PUSH1 0x40 DUP3 ADD MLOAD DUP2 PUSH1 0x1 ADD SSTORE SWAP1 POP POP POP JUMP JUMPDEST PUSH1 0x60 DUP1 PUSH1 0x60 PUSH0 PUSH0 SWAP1 POP PUSH0 PUSH0 SWAP1 POP JUMPDEST PUSH1 0x64 DUP2 LT ISZERO PUSH2 0x713 JUMPI DUP1 PUSH1 0x1 PUSH0 DUP4 DUP2 MSTORE PUSH1 0x20 ADD SWAP1 DUP2 MSTORE PUSH1 0x20 ADD PUSH0 KECCAK256 PUSH0 ADD SLOAD SUB PUSH2 0x701 JUMPI DUP2 DUP1 PUSH2 0x6F9 SWAP1 PUSH2 0x13E3 JUMP JUMPDEST SWAP3 POP POP PUSH2 0x706 JUMP JUMPDEST PUSH2 0x713 JUMP JUMPDEST DUP1 DUP1 PUSH1 0x1 ADD SWAP2 POP POP PUSH2 0x6CB JUMP JUMPDEST POP DUP1 PUSH8 0xFFFFFFFFFFFFFFFF DUP2 GT ISZERO PUSH2 0x72E JUMPI PUSH2 0x72D PUSH2 0x142A JUMP JUMPDEST JUMPDEST PUSH1 0x40 MLOAD SWAP1 DUP1 DUP3 MSTORE DUP1 PUSH1 0x20 MUL PUSH1 0x20 ADD DUP3 ADD PUSH1 0x40 MSTORE DUP1 ISZERO PUSH2 0x75C JUMPI DUP2 PUSH1 0x20 ADD PUSH1 0x20 DUP3 MUL DUP1 CALLDATASIZE DUP4 CALLDATACOPY DUP1 DUP3 ADD SWAP2 POP POP SWAP1 POP JUMPDEST POP SWAP4 POP DUP1 PUSH8 0xFFFFFFFFFFFFFFFF DUP2 GT ISZERO PUSH2 0x779 JUMPI PUSH2 0x778 PUSH2 0x142A JUMP JUMPDEST JUMPDEST PUSH1 0x40 MLOAD SWAP1 DUP1 DUP3 MSTORE DUP1 PUSH1 0x20 MUL PUSH1 0x20 ADD DUP3 ADD PUSH1 0x40 MSTORE DUP1 ISZERO PUSH2 0x7AC JUMPI DUP2 PUSH1 0x20 ADD JUMPDEST PUSH1 0x60 DUP2 MSTORE PUSH1 0x20 ADD SWAP1 PUSH1 0x1 SWAP1 SUB SWAP1 DUP2 PUSH2 0x797 JUMPI SWAP1 POP JUMPDEST POP SWAP3 POP DUP1 PUSH8 0xFFFFFFFFFFFFFFFF DUP2 GT ISZERO PUSH2 0x7C9 JUMPI PUSH2 0x7C8 PUSH2 0x142A JUMP JUMPDEST JUMPDEST PUSH1 0x40 MLOAD SWAP1 DUP1 DUP3 MSTORE DUP1 PUSH1 0x20 MUL PUSH1 0x20 ADD DUP3 ADD PUSH1 0x40 MSTORE DUP1 ISZERO PUSH2 0x7F7 JUMPI DUP2 PUSH1 0x20 ADD PUSH1 0x20 DUP3 MUL DUP1 CALLDATASIZE DUP4 CALLDATACOPY DUP1 DUP3 ADD SWAP2 POP POP SWAP1 POP JUMPDEST POP SWAP2 POP PUSH0 PUSH0 SWAP1 POP JUMPDEST DUP2 DUP2 LT ISZERO PUSH2 0x934 JUMPI PUSH1 0x1 PUSH0 DUP3 DUP2 MSTORE PUSH1 0x20 ADD SWAP1 DUP2 MSTORE PUSH1 0x20 ADD PUSH0 KECCAK256 PUSH0 ADD SLOAD DUP6 DUP3 DUP2 MLOAD DUP2 LT PUSH2 0x82E JUMPI PUSH2 0x82D PUSH2 0x1457 JUMP JUMPDEST JUMPDEST PUSH1 0x20 MUL PUSH1 0x20 ADD ADD DUP2 DUP2 MSTORE POP POP PUSH1 0x1 PUSH0 DUP3 DUP2 MSTORE PUSH1 0x20 ADD SWAP1 DUP2 MSTORE PUSH1 0x20 ADD PUSH0 KECCAK256 PUSH1 0x1 ADD DUP1 SLOAD PUSH2 0x859 SWAP1 PUSH2 0x14B1 JUMP JUMPDEST DUP1 PUSH1 0x1F ADD PUSH1 0x20 DUP1 SWAP2 DIV MUL PUSH1 0x20 ADD PUSH1 0x40 MLOAD SWAP1 DUP2 ADD PUSH1 0x40 MSTORE DUP1 SWAP3 SWAP2 SWAP1 DUP2 DUP2 MSTORE PUSH1 0x20 ADD DUP3 DUP1 SLOAD PUSH2 0x885 SWAP1 PUSH2 0x14B1 JUMP JUMPDEST DUP1 ISZERO PUSH2 0x8D0 JUMPI DUP1 PUSH1 0x1F LT PUSH2 0x8A7 JUMPI PUSH2 0x100 DUP1 DUP4 SLOAD DIV MUL DUP4 MSTORE SWAP2 PUSH1 0x20 ADD SWAP2 PUSH2 0x8D0 JUMP JUMPDEST DUP3 ADD SWAP2 SWAP1 PUSH0 MSTORE PUSH1 0x20 PUSH0 KECCAK256 SWAP1 JUMPDEST DUP2 SLOAD DUP2 MSTORE SWAP1 PUSH1 0x1 ADD SWAP1 PUSH1 0x20 ADD DUP1 DUP4 GT PUSH2 0x8B3 JUMPI DUP3 SWAP1 SUB PUSH1 0x1F AND DUP3 ADD SWAP2 JUMPDEST POP POP POP POP POP DUP5 DUP3 DUP2 MLOAD DUP2 LT PUSH2 0x8E8 JUMPI PUSH2 0x8E7 PUSH2 0x1457 JUMP JUMPDEST JUMPDEST PUSH1 0x20 MUL PUSH1 0x20 ADD ADD DUP2 SWAP1 MSTORE POP PUSH1 0x1 PUSH0 DUP3 DUP2 MSTORE PUSH1 0x20 ADD SWAP1 DUP2 MSTORE PUSH1 0x20 ADD PUSH0 KECCAK256 PUSH1 0x2 ADD SLOAD DUP4 DUP3 DUP2 MLOAD DUP2 LT PUSH2 0x91B JUMPI PUSH2 0x91A PUSH2 0x1457 JUMP JUMPDEST JUMPDEST PUSH1 0x20 MUL PUSH1 0x20 ADD ADD DUP2 DUP2 MSTORE POP POP DUP1 DUP1 PUSH1 0x1 ADD SWAP2 POP POP PUSH2 0x7FF JUMP JUMPDEST POP POP SWAP1 SWAP2 SWAP3 JUMP JUMPDEST PUSH1 0x3 SLOAD DUP2 JUMP JUMPDEST PUSH0 PUSH0 SWAP1 SLOAD SWAP1 PUSH2 0x100 EXP SWAP1 DIV PUSH20 0xFFFFFFFFFFFFFFFFFFFFFFFFFFFFFFFFFFFFFFFF AND DUP2 JUMP JUMPDEST PUSH1 0x1 PUSH1 0x20 MSTORE DUP1 PUSH0 MSTORE PUSH1 0x40 PUSH0 KECCAK256 PUSH0 SWAP2 POP SWAP1 POP DUP1 PUSH0 ADD SLOAD SWAP1 DUP1 PUSH1 0x1 ADD DUP1 SLOAD PUSH2 0x98A SWAP1 PUSH2 0x14B1 JUMP JUMPDEST DUP1 PUSH1 0x1F ADD PUSH1 0x20 DUP1 SWAP2 DIV MUL PUSH1 0x20 ADD PUSH1 0x40 MLOAD SWAP1 DUP2 ADD PUSH1 0x40 MSTORE DUP1 SWAP3 SWAP2 SWAP1 DUP2 DUP2 MSTORE PUSH1 0x20 ADD DUP3 DUP1 SLOAD PUSH2 0x9B6 SWAP1 PUSH2 0x14B1 JUMP JUMPDEST DUP1 ISZERO PUSH2 0xA01 JUMPI DUP1 PUSH1 0x1F LT PUSH2 0x9D8 JUMPI PUSH2 0x100 DUP1 DUP4 SLOAD DIV MUL DUP4 MSTORE SWAP2 PUSH1 0x20 ADD SWAP2 PUSH2 0xA01 JUMP JUMPDEST DUP3 ADD SWAP2 SWAP1 PUSH0 MSTORE PUSH1 0x20 PUSH0 KECCAK256 SWAP1 JUMPDEST DUP2 SLOAD DUP2 MSTORE SWAP1 PUSH1 0x1 ADD SWAP1 PUSH1 0x20 ADD DUP1 DUP4 GT PUSH2 0x9E4 JUMPI DUP3 SWAP1 SUB PUSH1 0x1F AND DUP3 ADD SWAP2 JUMPDEST POP POP POP POP POP SWAP1 DUP1 PUSH1 0x2 ADD SLOAD SWAP1 POP DUP4 JUMP JUMPDEST PUSH1 0x4 SLOAD DUP2 JUMP JUMPDEST PUSH0 PUSH0 PUSH0 PUSH1 0x2 PUSH0 DUP6 PUSH20 0xFFFFFFFFFFFFFFFFFFFFFFFFFFFFFFFFFFFFFFFF AND PUSH20 0xFFFFFFFFFFFFFFFFFFFFFFFFFFFFFFFFFFFFFFFF AND DUP2 MSTORE PUSH1 0x20 ADD SWAP1 DUP2 MSTORE PUSH1 0x20 ADD PUSH0 KECCAK256 PUSH0 ADD PUSH0 SWAP1 SLOAD SWAP1 PUSH2 0x100 EXP SWAP1 DIV PUSH1 0xFF AND PUSH1 0x2 PUSH0 DUP7 PUSH20 0xFFFFFFFFFFFFFFFFFFFFFFFFFFFFFFFFFFFFFFFF AND PUSH20 0xFFFFFFFFFFFFFFFFFFFFFFFFFFFFFFFFFFFFFFFF AND DUP2 MSTORE PUSH1 0x20 ADD SWAP1 DUP2 MSTORE PUSH1 0x20 ADD PUSH0 KECCAK256 PUSH0 ADD PUSH1 0x1 SWAP1 SLOAD SWAP1 PUSH2 0x100 EXP SWAP1 DIV PUSH1 0xFF AND PUSH1 0x2 PUSH0 DUP8 PUSH20 0xFFFFFFFFFFFFFFFFFFFFFFFFFFFFFFFFFFFFFFFF AND PUSH20 0xFFFFFFFFFFFFFFFFFFFFFFFFFFFFFFFFFFFFFFFF AND DUP2 MSTORE PUSH1 0x20 ADD SWAP1 DUP2 MSTORE PUSH1 0x20 ADD PUSH0 KECCAK256 PUSH1 0x1 ADD SLOAD SWAP3 POP SWAP3 POP SWAP3 POP SWAP2 SWAP4 SWAP1 SWAP3 POP JUMP JUMPDEST PUSH1 0x2 PUSH1 0x20 MSTORE DUP1 PUSH0 MSTORE PUSH1 0x40 PUSH0 KECCAK256 PUSH0 SWAP2 POP SWAP1 POP DUP1 PUSH0 ADD PUSH0 SWAP1 SLOAD SWAP1 PUSH2 0x100 EXP SWAP1 DIV PUSH1 0xFF AND SWAP1 DUP1 PUSH0 ADD PUSH1 0x1 SWAP1 SLOAD SWAP1 PUSH2 0x100 EXP SWAP1 DIV PUSH1 0xFF AND SWAP1 DUP1 PUSH1 0x1 ADD SLOAD SWAP1 POP DUP4 JUMP JUMPDEST PUSH0 PUSH0 SWAP1 SLOAD SWAP1 PUSH2 0x100 EXP SWAP1 DIV PUSH20 0xFFFFFFFFFFFFFFFFFFFFFFFFFFFFFFFFFFFFFFFF AND PUSH20 0xFFFFFFFFFFFFFFFFFFFFFFFFFFFFFFFFFFFFFFFF AND CALLER PUSH20 0xFFFFFFFFFFFFFFFFFFFFFFFFFFFFFFFFFFFFFFFF AND EQ PUSH2 0xBCD JUMPI PUSH1 0x40 MLOAD PUSH32 0x8C379A000000000000000000000000000000000000000000000000000000000 DUP2 MSTORE PUSH1 0x4 ADD PUSH2 0xBC4 SWAP1 PUSH2 0x135D JUMP JUMPDEST PUSH1 0x40 MLOAD DUP1 SWAP2 SUB SWAP1 REVERT JUMPDEST PUSH1 0x4 SLOAD TIMESTAMP LT PUSH2 0xC11 JUMPI PUSH1 0x40 MLOAD PUSH32 0x8C379A000000000000000000000000000000000000000000000000000000000 DUP2 MSTORE PUSH1 0x4 ADD PUSH2 0xC08 SWAP1 PUSH2 0x152B JUMP JUMPDEST PUSH1 0x40 MLOAD DUP1 SWAP2 SUB SWAP1 REVERT JUMPDEST TIMESTAMP PUSH1 0x4 DUP2 SWAP1 SSTORE POP PUSH32 0xBABE3B8DA6535F2CD9F87C37DBCE6DDC53FD35264B8C32502C6A560BA2E459BF PUSH1 0x40 MLOAD PUSH2 0xC45 SWAP1 PUSH2 0x15B9 JUMP JUMPDEST PUSH1 0x40 MLOAD DUP1 SWAP2 SUB SWAP1 LOG1 JUMP JUMPDEST PUSH0 PUSH0 REVERT JUMPDEST PUSH0 DUP2 SWAP1 POP SWAP2 SWAP1 POP JUMP JUMPDEST PUSH2 0xC65 DUP2 PUSH2 0xC53 JUMP JUMPDEST DUP2 EQ PUSH2 0xC6F JUMPI PUSH0 PUSH0 REVERT JUMPDEST POP JUMP JUMPDEST PUSH0 DUP2 CALLDATALOAD SWAP1 POP PUSH2 0xC80 DUP2 PUSH2 0xC5C JUMP JUMPDEST SWAP3 SWAP2 POP POP JUMP JUMPDEST PUSH0 PUSH1 0x20 DUP3 DUP5 SUB SLT ISZERO PUSH2 0xC9B JUMPI PUSH2 0xC9A PUSH2 0xC4F JUMP JUMPDEST JUMPDEST PUSH0 PUSH2 0xCA8 DUP5 DUP3 DUP6 ADD PUSH2 0xC72 JUMP JUMPDEST SWAP2 POP POP SWAP3 SWAP2 POP POP JUMP JUMPDEST PUSH0 PUSH20 0xFFFFFFFFFFFFFFFFFFFFFFFFFFFFFFFFFFFFFFFF DUP3 AND SWAP1 POP SWAP2 SWAP1 POP JUMP JUMPDEST PUSH0 PUSH2 0xCDA DUP3 PUSH2 0xCB1 JUMP JUMPDEST SWAP1 POP SWAP2 SWAP1 POP JUMP JUMPDEST PUSH2 0xCEA DUP2 PUSH2 0xCD0 JUMP JUMPDEST DUP2 EQ PUSH2 0xCF4 JUMPI PUSH0 PUSH0 REVERT JUMPDEST POP JUMP JUMPDEST PUSH0 DUP2 CALLDATALOAD SWAP1 POP PUSH2 0xD05 DUP2 PUSH2 0xCE1 JUMP JUMPDEST SWAP3 SWAP2 POP POP JUMP JUMPDEST PUSH0 PUSH1 0x20 DUP3 DUP5 SUB SLT ISZERO PUSH2 0xD20 JUMPI PUSH2 0xD1F PUSH2 0xC4F JUMP JUMPDEST JUMPDEST PUSH0 PUSH2 0xD2D DUP5 DUP3 DUP6 ADD PUSH2 0xCF7 JUMP JUMPDEST SWAP2 POP POP SWAP3 SWAP2 POP POP JUMP JUMPDEST PUSH0 DUP2 MLOAD SWAP1 POP SWAP2 SWAP1 POP JUMP JUMPDEST PUSH0 DUP3 DUP3 MSTORE PUSH1 0x20 DUP3 ADD SWAP1 POP SWAP3 SWAP2 POP POP JUMP JUMPDEST PUSH0 DUP2 SWAP1 POP PUSH1 0x20 DUP3 ADD SWAP1 POP SWAP2 SWAP1 POP JUMP JUMPDEST PUSH2 0xD68 DUP2 PUSH2 0xC53 JUMP JUMPDEST DUP3 MSTORE POP POP JUMP JUMPDEST PUSH0 PUSH2 0xD79 DUP4 DUP4 PUSH2 0xD5F JUMP JUMPDEST PUSH1 0x20 DUP4 ADD SWAP1 POP SWAP3 SWAP2 POP POP JUMP JUMPDEST PUSH0 PUSH1 0x20 DUP3 ADD SWAP1 POP SWAP2 SWAP1 POP JUMP JUMPDEST PUSH0 PUSH2 0xD9B DUP3 PUSH2 0xD36 JUMP JUMPDEST PUSH2 0xDA5 DUP2 DUP6 PUSH2 0xD40 JUMP JUMPDEST SWAP4 POP PUSH2 0xDB0 DUP4 PUSH2 0xD50 JUMP JUMPDEST DUP1 PUSH0 JUMPDEST DUP4 DUP2 LT ISZERO PUSH2 0xDE0 JUMPI DUP2 MLOAD PUSH2 0xDC7 DUP9 DUP3 PUSH2 0xD6E JUMP JUMPDEST SWAP8 POP PUSH2 0xDD2 DUP4 PUSH2 0xD85 JUMP JUMPDEST SWAP3 POP POP PUSH1 0x1 DUP2 ADD SWAP1 POP PUSH2 0xDB3 JUMP JUMPDEST POP DUP6 SWAP4 POP POP POP POP SWAP3 SWAP2 POP POP JUMP JUMPDEST PUSH0 DUP2 MLOAD SWAP1 POP SWAP2 SWAP1 POP JUMP JUMPDEST PUSH0 DUP3 DUP3 MSTORE PUSH1 0x20 DUP3 ADD SWAP1 POP SWAP3 SWAP2 POP POP JUMP JUMPDEST PUSH0 DUP2 SWAP1 POP PUSH1 0x20 DUP3 ADD SWAP1 POP SWAP2 SWAP1 POP JUMP JUMPDEST PUSH0 DUP2 MLOAD SWAP1 POP SWAP2 SWAP1 POP JUMP JUMPDEST PUSH0 DUP3 DUP3 MSTORE PUSH1 0x20 DUP3 ADD SWAP1 POP SWAP3 SWAP2 POP POP JUMP JUMPDEST DUP3 DUP2 DUP4 MCOPY PUSH0 DUP4 DUP4 ADD MSTORE POP POP POP JUMP JUMPDEST PUSH0 PUSH1 0x1F NOT PUSH1 0x1F DUP4 ADD AND SWAP1 POP SWAP2 SWAP1 POP JUMP JUMPDEST PUSH0 PUSH2 0xE58 DUP3 PUSH2 0xE16 JUMP JUMPDEST PUSH2 0xE62 DUP2 DUP6 PUSH2 0xE20 JUMP JUMPDEST SWAP4 POP PUSH2 0xE72 DUP2 DUP6 PUSH1 0x20 DUP7 ADD PUSH2 0xE30 JUMP JUMPDEST PUSH2 0xE7B DUP2 PUSH2 0xE3E JUMP JUMPDEST DUP5 ADD SWAP2 POP POP SWAP3 SWAP2 POP POP JUMP JUMPDEST PUSH0 PUSH2 0xE91 DUP4 DUP4 PUSH2 0xE4E JUMP JUMPDEST SWAP1 POP SWAP3 SWAP2 POP POP JUMP JUMPDEST PUSH0 PUSH1 0x20 DUP3 ADD SWAP1 POP SWAP2 SWAP1 POP JUMP JUMPDEST PUSH0 PUSH2 0xEAF DUP3 PUSH2 0xDED JUMP JUMPDEST PUSH2 0xEB9 DUP2 DUP6 PUSH2 0xDF7 JUMP JUMPDEST SWAP4 POP DUP4 PUSH1 0x20 DUP3 MUL DUP6 ADD PUSH2 0xECB DUP6 PUSH2 0xE07 JUMP JUMPDEST DUP1 PUSH0 JUMPDEST DUP6 DUP2 LT ISZERO PUSH2 0xF06 JUMPI DUP5 DUP5 SUB DUP10 MSTORE DUP2 MLOAD PUSH2 0xEE7 DUP6 DUP3 PUSH2 0xE86 JUMP JUMPDEST SWAP5 POP PUSH2 0xEF2 DUP4 PUSH2 0xE99 JUMP JUMPDEST SWAP3 POP PUSH1 0x20 DUP11 ADD SWAP10 POP POP PUSH1 0x1 DUP2 ADD SWAP1 POP PUSH2 0xECE JUMP JUMPDEST POP DUP3 SWAP8 POP DUP8 SWAP6 POP POP POP POP POP POP SWAP3 SWAP2 POP POP JUMP JUMPDEST PUSH0 PUSH1 0x60 DUP3 ADD SWAP1 POP DUP2 DUP2 SUB PUSH0 DUP4 ADD MSTORE PUSH2 0xF30 DUP2 DUP7 PUSH2 0xD91 JUMP JUMPDEST SWAP1 POP DUP2 DUP2 SUB PUSH1 0x20 DUP4 ADD MSTORE PUSH2 0xF44 DUP2 DUP6 PUSH2 0xEA5 JUMP JUMPDEST SWAP1 POP DUP2 DUP2 SUB PUSH1 0x40 DUP4 ADD MSTORE PUSH2 0xF58 DUP2 DUP5 PUSH2 0xD91 JUMP JUMPDEST SWAP1 POP SWAP5 SWAP4 POP POP POP POP JUMP JUMPDEST PUSH2 0xF6B DUP2 PUSH2 0xC53 JUMP JUMPDEST DUP3 MSTORE POP POP JUMP JUMPDEST PUSH0 PUSH1 0x20 DUP3 ADD SWAP1 POP PUSH2 0xF84 PUSH0 DUP4 ADD DUP5 PUSH2 0xF62 JUMP JUMPDEST SWAP3 SWAP2 POP POP JUMP JUMPDEST PUSH2 0xF93 DUP2 PUSH2 0xCD0 JUMP JUMPDEST DUP3 MSTORE POP POP JUMP JUMPDEST PUSH0 PUSH1 0x20 DUP3 ADD SWAP1 POP PUSH2 0xFAC PUSH0 DUP4 ADD DUP5 PUSH2 0xF8A JUMP JUMPDEST SWAP3 SWAP2 POP POP JUMP JUMPDEST PUSH0 DUP3 DUP3 MSTORE PUSH1 0x20 DUP3 ADD SWAP1 POP SWAP3 SWAP2 POP POP JUMP JUMPDEST PUSH0 PUSH2 0xFCC DUP3 PUSH2 0xE16 JUMP JUMPDEST PUSH2 0xFD6 DUP2 DUP6 PUSH2 0xFB2 JUMP JUMPDEST SWAP4 POP PUSH2 0xFE6 DUP2 DUP6 PUSH1 0x20 DUP7 ADD PUSH2 0xE30 JUMP JUMPDEST PUSH2 0xFEF DUP2 PUSH2 0xE3E JUMP JUMPDEST DUP5 ADD SWAP2 POP POP SWAP3 SWAP2 POP POP JUMP JUMPDEST PUSH0 PUSH1 0x60 DUP3 ADD SWAP1 POP PUSH2 0x100D PUSH0 DUP4 ADD DUP7 PUSH2 0xF62 JUMP JUMPDEST DUP2 DUP2 SUB PUSH1 0x20 DUP4 ADD MSTORE PUSH2 0x101F DUP2 DUP6 PUSH2 0xFC2 JUMP JUMPDEST SWAP1 POP PUSH2 0x102E PUSH1 0x40 DUP4 ADD DUP5 PUSH2 0xF62 JUMP JUMPDEST SWAP5 SWAP4 POP POP POP POP JUMP JUMPDEST PUSH0 DUP2 ISZERO ISZERO SWAP1 POP SWAP2 SWAP1 POP JUMP JUMPDEST PUSH2 0x104A DUP2 PUSH2 0x1036 JUMP JUMPDEST DUP3 MSTORE POP POP JUMP JUMPDEST PUSH0 PUSH1 0x60 DUP3 ADD SWAP1 POP PUSH2 0x1063 PUSH0 DUP4 ADD DUP7 PUSH2 0x1041 JUMP JUMPDEST PUSH2 0x1070 PUSH1 0x20 DUP4 ADD DUP6 PUSH2 0x1041 JUMP JUMPDEST PUSH2 0x107D PUSH1 0x40 DUP4 ADD DUP5 PUSH2 0xF62 JUMP JUMPDEST SWAP5 SWAP4 POP POP POP POP JUMP JUMPDEST PUSH32 0x4C6120766F746163696F6E2061756E206E6F20686120696E69636961646F0000 PUSH0 DUP3 ADD MSTORE POP JUMP JUMPDEST PUSH0 PUSH2 0x10B9 PUSH1 0x1E DUP4 PUSH2 0xFB2 JUMP JUMPDEST SWAP2 POP PUSH2 0x10C4 DUP3 PUSH2 0x1085 JUMP JUMPDEST PUSH1 0x20 DUP3 ADD SWAP1 POP SWAP2 SWAP1 POP JUMP JUMPDEST PUSH0 PUSH1 0x20 DUP3 ADD SWAP1 POP DUP2 DUP2 SUB PUSH0 DUP4 ADD MSTORE PUSH2 0x10E6 DUP2 PUSH2 0x10AD JUMP JUMPDEST SWAP1 POP SWAP2 SWAP1 POP JUMP JUMPDEST PUSH32 0x4C6120766F746163696F6E2079612068612066696E616C697A61646F00000000 PUSH0 DUP3 ADD MSTORE POP JUMP JUMPDEST PUSH0 PUSH2 0x1121 PUSH1 0x1C DUP4 PUSH2 0xFB2 JUMP JUMPDEST SWAP2 POP PUSH2 0x112C DUP3 PUSH2 0x10ED JUMP JUMPDEST PUSH1 0x20 DUP3 ADD SWAP1 POP SWAP2 SWAP1 POP JUMP JUMPDEST PUSH0 PUSH1 0x20 DUP3 ADD SWAP1 POP DUP2 DUP2 SUB PUSH0 DUP4 ADD MSTORE PUSH2 0x114E DUP2 PUSH2 0x1115 JUMP JUMPDEST SWAP1 POP SWAP2 SWAP1 POP JUMP JUMPDEST PUSH32 0x4E6F206573746173206175746F72697A61646F207061726120766F7461720000 PUSH0 DUP3 ADD MSTORE POP JUMP JUMPDEST PUSH0 PUSH2 0x1189 PUSH1 0x1E DUP4 PUSH2 0xFB2 JUMP JUMPDEST SWAP2 POP PUSH2 0x1194 DUP3 PUSH2 0x1155 JUMP JUMPDEST PUSH1 0x20 DUP3 ADD SWAP1 POP SWAP2 SWAP1 POP JUMP JUMPDEST PUSH0 PUSH1 0x20 DUP3 ADD SWAP1 POP DUP2 DUP2 SUB PUSH0 DUP4 ADD MSTORE PUSH2 0x11B6 DUP2 PUSH2 0x117D JUMP JUMPDEST SWAP1 POP SWAP2 SWAP1 POP JUMP JUMPDEST PUSH32 0x59612068617320656D697469646F20747520766F746F00000000000000000000 PUSH0 DUP3 ADD MSTORE POP JUMP JUMPDEST PUSH0 PUSH2 0x11F1 PUSH1 0x16 DUP4 PUSH2 0xFB2 JUMP JUMPDEST SWAP2 POP PUSH2 0x11FC DUP3 PUSH2 0x11BD JUMP JUMPDEST PUSH1 0x20 DUP3 ADD SWAP1 POP SWAP2 SWAP1 POP JUMP JUMPDEST PUSH0 PUSH1 0x20 DUP3 ADD SWAP1 POP DUP2 DUP2 SUB PUSH0 DUP4 ADD MSTORE PUSH2 0x121E DUP2 PUSH2 0x11E5 JUMP JUMPDEST SWAP1 POP SWAP2 SWAP1 POP JUMP JUMPDEST PUSH32 0x43616E64696461746F206E6F2076616C69646F00000000000000000000000000 PUSH0 DUP3 ADD MSTORE POP JUMP JUMPDEST PUSH0 PUSH2 0x1259 PUSH1 0x13 DUP4 PUSH2 0xFB2 JUMP JUMPDEST SWAP2 POP PUSH2 0x1264 DUP3 PUSH2 0x1225 JUMP JUMPDEST PUSH1 0x20 DUP3 ADD SWAP1 POP SWAP2 SWAP1 POP JUMP JUMPDEST PUSH0 PUSH1 0x20 DUP3 ADD SWAP1 POP DUP2 DUP2 SUB PUSH0 DUP4 ADD MSTORE PUSH2 0x1286 DUP2 PUSH2 0x124D JUMP JUMPDEST SWAP1 POP SWAP2 SWAP1 POP JUMP JUMPDEST PUSH32 0x4E487B7100000000000000000000000000000000000000000000000000000000 PUSH0 MSTORE PUSH1 0x11 PUSH1 0x4 MSTORE PUSH1 0x24 PUSH0 REVERT JUMPDEST PUSH0 PUSH2 0x12C4 DUP3 PUSH2 0xC53 JUMP JUMPDEST SWAP2 POP PUSH2 0x12CF DUP4 PUSH2 0xC53 JUMP JUMPDEST SWAP3 POP DUP3 DUP3 ADD SWAP1 POP DUP1 DUP3 GT ISZERO PUSH2 0x12E7 JUMPI PUSH2 0x12E6 PUSH2 0x128D JUMP JUMPDEST JUMPDEST SWAP3 SWAP2 POP POP JUMP JUMPDEST PUSH32 0x536F6C6F20656C2061646D696E6973747261646F722070756564652068616365 PUSH0 DUP3 ADD MSTORE PUSH32 0x72206573746F0000000000000000000000000000000000000000000000000000 PUSH1 0x20 DUP3 ADD MSTORE POP JUMP JUMPDEST PUSH0 PUSH2 0x1347 PUSH1 0x26 DUP4 PUSH2 0xFB2 JUMP JUMPDEST SWAP2 POP PUSH2 0x1352 DUP3 PUSH2 0x12ED JUMP JUMPDEST PUSH1 0x40 DUP3 ADD SWAP1 POP SWAP2 SWAP1 POP JUMP JUMPDEST PUSH0 PUSH1 0x20 DUP3 ADD SWAP1 POP DUP2 DUP2 SUB PUSH0 DUP4 ADD MSTORE PUSH2 0x1374 DUP2 PUSH2 0x133B JUMP JUMPDEST SWAP1 POP SWAP2 SWAP1 POP JUMP JUMPDEST PUSH32 0x4573746520766F74616E74652079612065737461207265676973747261646F00 PUSH0 DUP3 ADD MSTORE POP JUMP JUMPDEST PUSH0 PUSH2 0x13AF PUSH1 0x1F DUP4 PUSH2 0xFB2 JUMP JUMPDEST SWAP2 POP PUSH2 0x13BA DUP3 PUSH2 0x137B JUMP JUMPDEST PUSH1 0x20 DUP3 ADD SWAP1 POP SWAP2 SWAP1 POP JUMP JUMPDEST PUSH0 PUSH1 0x20 DUP3 ADD SWAP1 POP DUP2 DUP2 SUB PUSH0 DUP4 ADD MSTORE PUSH2 0x13DC DUP2 PUSH2 0x13A3 JUMP JUMPDEST SWAP1 POP SWAP2 SWAP1 POP JUMP JUMPDEST PUSH0 PUSH2 0x13ED DUP3 PUSH2 0xC53 JUMP JUMPDEST SWAP2 POP PUSH32 0xFFFFFFFFFFFFFFFFFFFFFFFFFFFFFFFFFFFFFFFFFFFFFFFFFFFFFFFFFFFFFFFF DUP3 SUB PUSH2 0x141F JUMPI PUSH2 0x141E PUSH2 0x128D JUMP JUMPDEST JUMPDEST PUSH1 0x1 DUP3 ADD SWAP1 POP SWAP2 SWAP1 POP JUMP JUMPDEST PUSH32 0x4E487B7100000000000000000000000000000000000000000000000000000000 PUSH0 MSTORE PUSH1 0x41 PUSH1 0x4 MSTORE PUSH1 0x24 PUSH0 REVERT JUMPDEST PUSH32 0x4E487B7100000000000000000000000000000000000000000000000000000000 PUSH0 MSTORE PUSH1 0x32 PUSH1 0x4 MSTORE PUSH1 0x24 PUSH0 REVERT JUMPDEST PUSH32 0x4E487B7100000000000000000000000000000000000000000000000000000000 PUSH0 MSTORE PUSH1 0x22 PUSH1 0x4 MSTORE PUSH1 0x24 PUSH0 REVERT JUMPDEST PUSH0 PUSH1 0x2 DUP3 DIV SWAP1 POP PUSH1 0x1 DUP3 AND DUP1 PUSH2 0x14C8 JUMPI PUSH1 0x7F DUP3 AND SWAP2 POP JUMPDEST PUSH1 0x20 DUP3 LT DUP2 SUB PUSH2 0x14DB JUMPI PUSH2 0x14DA PUSH2 0x1484 JUMP JUMPDEST JUMPDEST POP SWAP2 SWAP1 POP JUMP JUMPDEST PUSH32 0x4C6120766F746163696F6E207961207465726D696E6F00000000000000000000 PUSH0 DUP3 ADD MSTORE POP JUMP JUMPDEST PUSH0 PUSH2 0x1515 PUSH1 0x16 DUP4 PUSH2 0xFB2 JUMP JUMPDEST SWAP2 POP PUSH2 0x1520 DUP3 PUSH2 0x14E1 JUMP JUMPDEST PUSH1 0x20 DUP3 ADD SWAP1 POP SWAP2 SWAP1 POP JUMP JUMPDEST PUSH0 PUSH1 0x20 DUP3 ADD SWAP1 POP DUP2 DUP2 SUB PUSH0 DUP4 ADD MSTORE PUSH2 0x1542 DUP2 PUSH2 0x1509 JUMP JUMPDEST SWAP1 POP SWAP2 SWAP1 POP JUMP JUMPDEST PUSH32 0x46696E616C697A61646120616E74696369706164616D656E746520706F722065 PUSH0 DUP3 ADD MSTORE PUSH32 0x6C2061646D696E6973747261646F720000000000000000000000000000000000 PUSH1 0x20 DUP3 ADD MSTORE POP JUMP JUMPDEST PUSH0 PUSH2 0x15A3 PUSH1 0x2F DUP4 PUSH2 0xFB2 JUMP JUMPDEST SWAP2 POP PUSH2 0x15AE DUP3 PUSH2 0x1549 JUMP JUMPDEST PUSH1 0x40 DUP3 ADD SWAP1 POP SWAP2 SWAP1 POP JUMP JUMPDEST PUSH0 PUSH1 0x20 DUP3 ADD SWAP1 POP DUP2 DUP2 SUB PUSH0 DUP4 ADD MSTORE PUSH2 0x15D0 DUP2 PUSH2 0x1597 JUMP JUMPDEST SWAP1 POP SWAP2 SWAP1 POP JUMP INVALID LOG2 PUSH5 0x6970667358 0x22 SLT KECCAK256 JUMPDEST 0xDE DUP9 0x28 SWAPN 0xE8 0xE2 SWAP4 MCOPY SWAP13 0xBC 0xD5 0x4E PUSH10 0x9861AD361D78457C3CB0 0xC1 AND 0xF7 0xAC 0xBD BLOBBASEFEE 0x2D SWAP11 PUSH5 0x736F6C6343 STOP ADDMOD 0x1F STOP CALLER "
				},
				"gasEstimates": {
					"creation": {
						"codeDepositCost": "1129000",
						"executionCost": "infinite",
						"totalCost": "infinite"
					},
					"external": {
						"candidatos(uint256)": "infinite",
						"endVoting()": "28705",
						"finVotacion()": "2447",
						"getResults()": "infinite",
						"getVoterInfo(address)": "infinite",
						"inicioVotacion()": "2492",
						"owner()": "2596",
						"registerVoter(address)": "75805",
						"votantes(address)": "infinite",
						"vote(uint256)": "infinite"
					}
				},
				"methodIdentifiers": {
					"candidatos(uint256)": "8f023f85",
					"endVoting()": "c3403ddf",
					"finVotacion()": "9225f3b0",
					"getResults()": "4717f97c",
					"getVoterInfo(address)": "9ed1f255",
					"inicioVotacion()": "8cff86cc",
					"owner()": "8da5cb5b",
					"registerVoter(address)": "38db6dd3",
					"votantes(address)": "a92284d0",
					"vote(uint256)": "0121b93f"
				}
			},
			"storageLayout": {
				"storage": [
					{
						"astId": 17,
						"contract": "Votacion.sol:Votacion",
						"label": "owner",
						"offset": 0,
						"slot": "0",
						"type": "t_address"
					},
					{
						"astId": 22,
						"contract": "Votacion.sol:Votacion",
						"label": "candidatos",
						"offset": 0,
						"slot": "1",
						"type": "t_mapping(t_uint256,t_struct(Candidato)8_storage)"
					},
					{
						"astId": 27,
						"contract": "Votacion.sol:Votacion",
						"label": "votantes",
						"offset": 0,
						"slot": "2",
						"type": "t_mapping(t_address,t_struct(Votante)15_storage)"
					},
					{
						"astId": 29,
						"contract": "Votacion.sol:Votacion",
						"label": "inicioVotacion",
						"offset": 0,
						"slot": "3",
						"type": "t_uint256"
					},
					{
						"astId": 31,
						"contract": "Votacion.sol:Votacion",
						"label": "finVotacion",
						"offset": 0,
						"slot": "4",
						"type": "t_uint256"
					}
				],
				"types": {
					"t_address": {
						"encoding": "inplace",
						"label": "address",
						"numberOfBytes": "20"
					},
					"t_bool": {
						"encoding": "inplace",
						"label": "bool",
						"numberOfBytes": "1"
					},
					"t_mapping(t_address,t_struct(Votante)15_storage)": {
						"encoding": "mapping",
						"key": "t_address",
						"label": "mapping(address => struct Votacion.Votante)",
						"numberOfBytes": "32",
						"value": "t_struct(Votante)15_storage"
					},
					"t_mapping(t_uint256,t_struct(Candidato)8_storage)": {
						"encoding": "mapping",
						"key": "t_uint256",
						"label": "mapping(uint256 => struct Votacion.Candidato)",
						"numberOfBytes": "32",
						"value": "t_struct(Candidato)8_storage"
					},
					"t_string_storage": {
						"encoding": "bytes",
						"label": "string",
						"numberOfBytes": "32"
					},
					"t_struct(Candidato)8_storage": {
						"encoding": "inplace",
						"label": "struct Votacion.Candidato",
						"members": [
							{
								"astId": 3,
								"contract": "Votacion.sol:Votacion",
								"label": "id",
								"offset": 0,
								"slot": "0",
								"type": "t_uint256"
							},
							{
								"astId": 5,
								"contract": "Votacion.sol:Votacion",
								"label": "nombre",
								"offset": 0,
								"slot": "1",
								"type": "t_string_storage"
							},
							{
								"astId": 7,
								"contract": "Votacion.sol:Votacion",
								"label": "cantidadVotos",
								"offset": 0,
								"slot": "2",
								"type": "t_uint256"
							}
						],
						"numberOfBytes": "96"
					},
					"t_struct(Votante)15_storage": {
						"encoding": "inplace",
						"label": "struct Votacion.Votante",
						"members": [
							{
								"astId": 10,
								"contract": "Votacion.sol:Votacion",
								"label": "estaRegistrado",
								"offset": 0,
								"slot": "0",
								"type": "t_bool"
							},
							{
								"astId": 12,
								"contract": "Votacion.sol:Votacion",
								"label": "yaVoto",
								"offset": 1,
								"slot": "0",
								"type": "t_bool"
							},
							{
								"astId": 14,
								"contract": "Votacion.sol:Votacion",
								"label": "votoParaCandidato",
								"offset": 0,
								"slot": "1",
								"type": "t_uint256"
							}
						],
						"numberOfBytes": "64"
					},
					"t_uint256": {
						"encoding": "inplace",
						"label": "uint256",
						"numberOfBytes": "32"
					}
				}
			},
			"userdoc": {
				"kind": "user",
				"methods": {},
				"version": 1
			}
		}
	}
}